S01A00004275696C64696E675F427261696E735F56342E7372656335
S11300002DC047C046C045C044C043C05EC441C0C3
S113001040C03FC03EC03DC03CC03BC03AC039C0F8
S113002038C037C036C035C034C033C032C031C028
S113003030C02FC007634236B79BD8A71A39685619
S113004018AEBAAB558C1D3CB7CC5763BD6DEDFDF6
S1130050753EF6177231BF000000803F11241FBEA9
S1130060CFEFCDBFDFE3DEBF1EE3A0E0BEE3E0E5FC
S1130070F1E102C005900D92A630B107D9F72EE345
S1130080A6E0BEE301C01D92A935B207E1F721D075
S11300905DC8B6CF25D208958091063E9091073E63
S11300A0A091083EB091093E0196A11DB11D809317
S11300B0063E9093073EA093083EB093093E0895F0
S11300C06091063E7091073E8091083E9091093EF2
S11300D00895E0DF83E38093A00080E098D2812C30
S11300E0912C54011FD48823E9F3EADF6B017C01CE
S11300F0681979098A099B091BD631D480E00FD489
S113010046015701EFCFCF93DBDF60930A3E709334
S11301100B3E80930C3E90930D3EC0E020E340E301
S113012060E38C2F3DD2CF5FC630C1F7CF910895E5
S11301308F929F92AF92BF92CF92DF92EF92FF92F3
S11301400F931F93CF936B017C01BADF00910A3E9A
S113015010910B3E20910C3E30910D3EDC01CB0101
S1130160801B910BA20BB30B84369105A105B1053D
S113017050F4C0E020E340E360E38C2F11D2CF5F62
S1130180C630C1F753C0C0E020E040E060E08C2FEF
S113019007D2CF5FC630C1F7C701B60193D59B0123
S11301A0772324F422273327261B370BB901330F77
S11301B0880B990BBFD54B015C0120E030E040E88F
S11301C05FE3CFD4882334F420E140E160E182E0AE
S11301D0E7D12CC020E030E048EC51E4C501B40183
S11301E0C5D420E030E040E452E4F6D662D771D5BD
S11301F0C62F20E030E0A901C701B601B2D488239C
S11302005CF420E040E06C2F80E0CAD120E040E0C4
S11302106C2F81E0C5D10AC020E04C2F60E083E060
S1130220BFD120E04C2F60E084E0BAD1C6D1CF9199
S11302301F910F91FF90EF90DF90CF90BF90AF9000
S11302409F908F9008950F931F93CF93DF938AB15C
S1130250D1E0C82FC47082FDD0E0C11134C08091B8
S1130260133E81110DC02CDF60930F3E7093103E3E
S11302708093113E9093123E8091133E882319F18E
S11302801FDF00910F3E1091103E2091113E3091DE
S1130290123EDC01CB01801B910BA20BB30B813D01
S11302A09740A105B10578F090910E3E81E0892731
S11302B080930E3E05DF60930F3E7093103E809353
S11302C0113E9093123ECC2319F08091133E01C04D
S11302D080E0D093133EDF91CF911F910F91089549
S11302E080910E3E08950F931F93EADE0091153E10
S11302F01091163E2091173E3091183EDC01CB013F
S1130300801B910BA20BB30B893E9340A105B10551
S113031088F081E08093143ED3DE6093153E7093A1
S1130320163E8093173E9093183E8091143E81119F
S113033027C027C0C5DE0091153E1091163E2091BE
S1130340173E3091183EDC01CB01801B910BA20BB0
S1130350B30B853F9140A105B10570F0B1DE609308
S1130360153E7093163E8093173E9093183E81E09D
S11303708093143E8AE105C01092143E80E001C0CF
S11303808AE11F910F91089585E08093000680E033
S1130390089580910B0681700895E0E0F6E086836D
S11303A081E08087F6DF8823E9F3E0E0F6E0208946
S11303B03189938591609387C901089580E00895F8
S11303C0E0ECF1E088EA848788E083878BEB82871E
S11303D089E0818781E4808380E0089547E068EDC7
S11303E08CE790E091D041E068ED81E690E08CD01C
S11303F080E00895789480E0089581E480938006F5
S113040080E00895809381060895E0E1F4E080811E
S113041088608193E83184E0F807C9F7E0E3F4E009
S1130420808188608193E83384E0F807C9F7E0E5C8
S1130430F4E0808188608193E83584E0F807C9F7A7
S11304400895E5E1F4E08081887F84608083808181
S1130450877F8083E7E1F4E08081887F8460808304
S11304608081877F8083E4E3F4E08081887F8460F7
S113047080838081877F8083E1E3F4E08081887FCB
S1130480846080838081877F8083E0E3F4E08081DF
S1130490887F846080838081877F808375DF08956F
S11304A0259A2D98E0E0F2E082818460828354D022
S11304B00895419A4998E0E0F2E080818062808367
S11304C07FDF08950298E2E1F4E08081877F8083F2
S11304D0019A0998039A0B98049A0C9835D00895B8
S11304E094DF279A2F984298E2E5F4E080818860AF
S11304F0808374DF0DD0A5DFD3DFDBDFE3DF7DDFB7
S113050079DF20D05BDF0895FC0164BF4083089548
S1130510E0E4F1E081818111FDCFE0E4F1E080E2EB
S113052090E08087918721E820838287938781E008
S11305308583828381898111FDCF81E0809350017D
S113054080E0089580E00895E0E2F8E083E28083AB
S113055084E0818380E00895E0E0FAE084E090E0C4
S113056084A795A783E4818384E0828387E090E075
S113057086A397A380E0089590912308909323087D
S1130580E0E0FAE010A211A291E0908380932408A5
S1130590E0E2F8E083818823ECF71092000A0895E2
S11305A090E0FC01EE0FFF1F8E0F9F1FFC01E75E22
S11305B0F14C60834183228308950F931F93CF935B
S11305C0DF93C9E1DEE30BE21EE38981D5DF888195
S11305D0D3DF8A81D1DF2396C017D107B1F7DF912A
S11305E0CF911F910F910895E0913B3EE43070F458
S11305F0EF5FE0933B3EF0E0EE0FFF1FEE0FFF1FB7
S1130600E95DF14C6083718382839383089591E063
S1130610811101C090E090933C3E0895CF92DF9207
S1130620EF92FF920F931F93CF93DF93CBE2DEE31E
S113063010E005E045DDC990D990E990F990DC011E
S1130640CB01CC96A11DB11D8C159D05AE05BF0532
S113065008F4012F1F5F143069F7053099F0E02F7B
S1130660F0E0EE0FFF1FEE0FFF1FE55DF14C10826F
S113067011821282138280913B3E815080933B3ED3
S113068081E001C080E0DF91CF911F910F91FF9035
S1130690EF90DF90CF900895CF92DF92EF92FF9288
S11306A08823A9F0662369F00BDD6C597F4F8F4FC7
S11306B09F4F9ADF05DD6A567F4F8F4F9F4F94DF20
S11306C006C0FEDC6C597F4F8F4F9F4F8DDF8091AA
S11306D03B3E8823A9F1C0902B3ED0902C3EE09065
S11306E02D3EF0902E3EECDCC616D706E806F90641
S11306F038F581E080933D3E80913B3E815080936C
S11307003B3EEBE2FEE384819581A681B781808341
S11307109183A283B38380859185A285B3858483E5
S11307209583A683B78384859585A685B7858087B9
S11307309187A287B3871486158616861786E3DC0D
S113074080913D3E882389F010923D3E80913C3E4D
S1130750811104C08FEF90E055DE03C080E890E083
S113076051DE81E080933E3E0AC080913E3E882364
S113077019F010923E3E03C080E090E043DEFF900B
S1130780EF90DF90CF9008958F929F92AF92BF9297
S1130790CF92DF92EF92FF920F931F93CF93DF9349
S11307A00F2EF0E0EF2EFEE3FF2EF02D09E41EE302
S11307B00F2EF3E5CF2EFEE3DF2EF02DE801F70137
S11307C081917F01EADD89939993CC15DD05B9F711
S11307D0A4E4BEE36FE37EE349E45EE3FD01AA24FF
S11307E0A3940F2EF3E0BF2EF02D6894CC24C1F80F
S11307F06894DD24D2F80F2EF6E0EF2EF02D0F2EA4
S1130800F5E0FF2EF02D4F018081EB018993BE01AD
S1130810E801299139918E01263D310510F0F082CD
S11308201AC0213A310510F0E08215C02C38310588
S113083010F0D08210C02337310510F0C0820BC0F5
S11308402835310510F0B08206C02333310510F08D
S1130850A08201C01082E4019881891301C018822A
S11308603196E417F50779F620E030E09D91933056
S1130870A1F028F49130B1F0923091F015C0953088
S113088031F040F0963081F42C5C3F4F0DC0265E71
S11308903F4F0AC02C5E3F4F07C02253310904C0AA
S11308A02A51310924513109A417B507F9F6822FC9
S11308B0DF91CF911F910F91FF90EF90DF90CF9038
S11308C0BF90AF909F908F9008951F920F920FB694
S11308D00F9211242F933F934F935F936F937F93C2
S11308E08F939F93AF93BF93CF93EF93FF93C1E005
S11308F0C093533ED1DBC0934301FF91EF91CF915D
S1130900BF91AF919F918F917F916F915F914F9123
S11309103F912F910F900FBE0F901F9018958093C9
S1130920533E08958091533E0895682F880F770BA6
S1130930880B990BFFD19B01AC016091553E7091DE
S1130940563E8091573E9091583E9FD06093553EBD
S11309507093563E8093573E9093583E08958F92DD
S11309609F92AF92BF92CF92DF92EF92FF924B0190
S11309705C010ADFDADF67DC882311F08AE1D5DF66
S1130980AFDC8093543E882311F0ADDCCEDFC09001
S1130990553ED090563EE090573EF090583E20E0B1
S11309A030E048E452E4C701B6019BD2181664F45F
S11309B061E081E071DE1092553E1092563E109235
S11309C0573E1092583E32C020E030E048EC51E4EB
S11309D0C701B60186D2181664F460E081E05CDEDB
S11309E01092553E1092563E1092573E1092583E29
S11309F01DC060E080E050DE20E030E048EC51ECC7
S1130A006091553E7091563E8091573E9091583E6C
S1130A10A8D088235CF402DE882341F01092553E6E
S1130A201092563E1092573E1092583E6091553E99
S1130A307091563E8091573E9091583E79DB20E06C
S1130A4030E048EC52E4C501B40190D0905808D18C
S1130A509B01AC016091553E7091563E8091573E8A
S1130A609091583EB9D26093553E7093563E809310
S1130A70573E9093583EFF90EF90DF90CF90BF90F9
S1130A80AF909F908F9008955058BB27AA270E943B
S1130A905C050C9437070E94290738F00E94300740
S1130AA020F039F49F3F19F426F40C94FF060EF459
S1130AB0E095E7FB0C94F906E92F0E94480758F3E8
S1130AC0BA17620773078407950720F079F4A6F52F
S1130AD00C946A070EF4E0950B2EBA2FA02D0B018F
S1130AE0B90190010C01CA01A0011124FF27591B6F
S1130AF099F0593F50F4503E68F11A16F040A22F75
S1130B00232F342F4427585FF3CF469537952795E5
S1130B10A795F0405395C9F77EF41F16BA0B620BE4
S1130B20730B840BBAF09150A1F0FF0FBB1F661F2B
S1130B30771F881FC2F70EC0BA0F621F731F841F6E
S1130B4048F4879577956795B795F7959E3F08F094
S1130B50B0CF9395880F08F09927EE0F9795879556
S1130B6008950E94D50608F481E008950E94CA05FC
S1130B700C9437070E94300758F00E94290740F070
S1130B8029F45F3F29F00C94F90651110C946B077A
S1130B900C94FF060E94480768F39923B1F3552388
S1130BA091F3951B550BBB27AA276217730784077C
S1130BB038F09F5F5F4F220F331F441FAA1FA9F312
S1130BC035D00E2E3AF0E0E832D091505040E69500
S1130BD0001CCAF72BD0FE2F29D0660F771F881F61
S1130BE0BB1F261737074807AB07B0E809F0BB0B54
S1130BF0802DBF01FF2793585F4F3AF09E3F510568
S1130C0078F00C94F9060C946B075F3FE4F3983E7C
S1130C10D4F3869577956795B795F7959F5FC9F750
S1130C20880F911D9695879597F90895E1E0660FD1
S1130C30771F881FBB1F621773078407BA0720F04A
S1130C40621B730B840BBA0BEE1F88F7E0950895B3
S1130C5029F416F00C94F9060C946A070C94FF0618
S1130C600E945007A8F39638A0F707F80F92E8946B
S1130C702BE33AEA48EB5FE70E9402080F920F92D7
S1130C800F924DB75EB70F920E94B807E4E3F0E00D
S1130C900E9402074F915F91EF91FF91E595EE1F3E
S1130CA0FF1F49F0FE57E0684427EE0F441FFA95F2
S1130CB0E1F74195550B0E9482070F9007FE0C94B3
S1130CC0760708950E9469066894B1110C946B0725
S1130CD008950E94500788F09F5798F0B92F9927DC
S1130CE0B751B0F0E1F0660F771F881F991F1AF013
S1130CF0BA95C9F714C0B13091F00E946A07B1E007
S1130D0008950C946A07672F782F8827B85F39F005
S1130D10B93FCCF3869577956795B395D9F73EF4AB
S1130D2090958095709561957F4F8F4F9F4F089553
S1130D30E89409C097FB3EF4909580957095619571
S1130D407F4F8F4F9F4F9923A9F0F92F96E9BB2727
S1130D509395F695879577956795B795F111F8CFA3
S1130D60FAF4BB0F11F460FF1BC06F5F7F4F8F4F0E
S1130D709F4F16C0882311F096E911C0772321F004
S1130D809EE8872F762F05C0662371F096E8862F9C
S1130D9070E060E02AF09A95660F771F881FDAF7F3
S1130DA0880F9695879597F90895990F0008550F20
S1130DB0AA0BE0E8FEEF16161706E807F907C0F0DD
S1130DC012161306E407F50798F0621B730B840BE5
S1130DD0950B39F40A2661F0232B242B252B21F4BF
S1130DE008950A2609F4A140A6958FEF811D811D5F
S1130DF0089597F99F6780E870E060E008959FEF99
S1130E0080EC0895DF93CF931F930F93FF92EF929B
S1130E10DF927B018C01689406C0DA2EEF010E94F8
S1130E20FF07FE01E894A5912591359145915591CF
S1130E30A6F3EF010E945C05FE019701A801DA9474
S1130E4069F7DF90EF90FF900F911F91CF91DF91A1
S1130E50089500240A94161617061806090608951C
S1130E6000240A9412161306140605060895092E82
S1130E700394000C11F4882352F0BB0F40F4BF2BF1
S1130E8011F460FF04C06F5F7F4F8F4F9F4F089531
S1130E9057FD9058440F551F59F05F3F71F0479527
S1130EA0880F97FB991F61F09F3F79F0879508950C
S1130EB0121613061406551FF2CF4695F1DF08C02B
S1130EC0161617061806991FF1CF86957105610548
S1130ED008940895E894BB2766277727CB0197F9F0
S1130EE008950E94D50608F48FEF08959B01AC0184
S1130EF060E070E080E89FE30C94B6050C94F9067A
S1130F000C9498080E945007D8F39923C9F3940FBE
S1130F10511DA3F39150504094F059F0882332F0BE
S1130F20660F771F881F91505040C1F79E3F5105AF
S1130F302CF7880F911D9695879597F908955F3F33
S1130F40ACF0983E9CF0BB27869577956795B7954E
S1130F5008F4B1609395C1F7BB0F58F711F460FF23
S1130F60E8CF6F5F7F4F8F4F9F4FE3CF0C946B079A
S1130F70FA01DC01AA0FBB1F9B01AC01BF5728F487
S1130F80222733274427507820C0B75190F4AB2F41
S1130F900024469537952795011CA395D2F300208C
S1130FA071F0220F331F441FB395DAF30ED00C9463
S1130FB0440561307105A0E88A07B94630F49B0105
S1130FC0AC016627772788279078309621F0208314
S1130FD031834283538308950E94FF070C9437079B
S1130FE00E94290738F00E94300720F0952311F061
S1130FF00C94F9060C94FF0611240C946B070E94C0
S1131000480770F3959FC1F3950F50E0551F629FF9
S1131010F001729FBB27F00DB11D639FAA27F00D4D
S1131020B11DAA1F649F6627B00DA11D661F829F74
S11310302227B00DA11D621F739FB00DA11D621F59
S1131040839FA00D611D221F749F3327A00D611D76
S1131050231F849F600D211D822F762F6A2F112458
S11310609F5750409AF0F1F088234AF0EE0FFF1F8B
S1131070BB1F661F771F881F91505040A9F79E3FE2
S1131080510580F00C94F9060C946B075F3FE4F370
S1131090983ED4F3869577956795B795F795E79538
S11310A09F5FC1F7FE2B880F911D9695879597F941
S11310B008950E945007E8F09E37E8F09639B8F496
S11310C09E3848F4672F782F8827985FF9CF869544
S11310D07795679593959539D0F3B62FB1706B0FCB
S11310E0711D811D20F487957795679593950C94D0
S11310F07D080C9498080C946B07882371F477236B
S113110021F09850872B762F07C0662311F4992776
S11311100DC09051862B70E060E02AF09A95660F1E
S1131120771F881FDAF7880F9695879597F90895A2
S11311309F3F31F0915020F4879577956795B79547
S1131140880F911D9695879597F90895F894FFCF88
S10911500507090A0B006B
S9030000FC
