S01A00004275696C64696E675F427261696E735F56342E7372656335
S11300002DC047C046C045C044C043C010C541C010
S113001040C03FC03EC03DC03CC03BC03AC039C0F8
S113002038C037C036C035C034C033C032C031C028
S113003030C02FC007634236B79BD8A71A39685619
S113004018AEBAAB558C1D3CB7CC5763BD6DEDFDF6
S1130050753EF6177231BF000000803F11241FBEA9
S1130060CFEFCDBFDFE3DEBF1EE3A0E0BEE3E8E6F3
S1130070F4E102C005900D92AC30B107D9F72EE33C
S1130080ACE0BEE301C01D92AE35B207E1F79FD1EB
S1130090E9C9B6CFADD0089585E08093000680E02D
S11300A0089580910B0681700895E0E0F6E0868360
S11300B081E08087F6DF8823E9F3E0E0F6E0208939
S11300C03189938591609387C901089580E00895EB
S11300D0E0ECF1E088EA848788E083878BEB828711
S11300E089E0818781E4808380E0089547E068EDBA
S11300F08CE790E091D041E068ED81E690E08CD00F
S113010080E00895789480E0089581E480938006E7
S113011080E00895809381060895E0E1F4E0808111
S113012088608193E83184E0F807C9F7E0E3F4E0FC
S1130130808188608193E83384E0F807C9F7E0E5BB
S1130140F4E0808188608193E83584E0F807C9F79A
S11301500895E5E1F4E08081887F84608083808174
S1130160877F8083E7E1F4E08081887F84608083F7
S11301708081877F8083E4E3F4E08081887F8460EA
S113018080838081877F8083E1E3F4E08081887FBE
S1130190846080838081877F8083E0E3F4E08081D2
S11301A0887F846080838081877F808375DF089562
S11301B0259A2D98E0E0F2E0828184608283DAD08F
S11301C00895419A4998E0E0F2E08081806280835A
S11301D07FDF08950298E2E1F4E08081877F8083E5
S11301E0019A0998039A0B98049A0C98BBD0089525
S11301F094DF279A2F984298E2E5F4E080818860A2
S1130200808374DF93D0A5DFD3DFDBDFE3DF7DDF23
S113021079DFA6D05BDF0895FC0164BF40830895B5
S1130220CF92DF92EF92FF92CF93DF93EC016A01BA
S11302307B0186E090E0F5D7009759F0FC01C0827D
S1130240D182E282F38228813981248335838883B1
S11302509983DF91CF91FF90EF90DF90CF90089535
S1130260CF92DF92EF92FF920F931F93CF93DF937E
S1130270DC01ED91FC91309711F1C0E0D0E002C0B7
S1130280EF01F9012481358121153105C9F78C016C
S1130290C080D180E280F380CF015BD8209739F011
S11302A01C821D826C2D7D2D8E2D9F2D0CC0F8017E
S11302B0108211826C2D7D2D8E2D9F2D04C060E047
S11302C070E080E090E0DF91CF911F910F91FF905B
S11302D0EF90DF90CF900895CF92DF92EF92FF924C
S11302E00F931F93CF93DF93DC01ED91FC91309733
S11302F081F0EC01C480D580E080F180028113811B
S1130300CF0127D8C882D9826E2D7F2D802F912FBF
S113031004C060E070E080E090E0DF91CF911F9135
S11303200F91FF90EF90DF90CF900895E0E4F1E01B
S113033081818111FDCFE0E4F1E080E290E08087EB
S1130340918721E820838287938781E08583828354
S113035081898111FDCF81E08093500180E008956F
S113036080E00895E0E2F8E083E2808384E0818322
S113037080E00895E0E0FAE084E090E084A795A7A7
S113038083E4818384E0828387E090E086A397A35B
S113039080E0089580910C3E90910D3EA0910E3E18
S11303A0B0910F3E0196A11DB11D80930C3E909318
S11303B00D3EA0930E3EB0930F3E089560910C3E07
S11303C070910D3E80910E3E90910F3E0895CF9313
S11303D0DF9300D0CDB7DEB75DDE80E38093A1006C
S11303E019821A8280E092D1812C912C54014CD331
S11303F08823E9F3E3DF6B017C016819790980E064
S113040090E001D55ED389819A81019689839A838C
S113041080E037D346015701EACFCF93CFDF609313
S1130420103E7093113E8093123E9093133EC0E0B1
S113043020E340E360E38C2F45D1CF5FC630C1F7A2
S1130440CF9108958F929F92AF92BF92CF92DF92F5
S1130450EF92FF920F931F93CF936B017C01AEDF5A
S11304600091103E1091113E2091123E3091133EA6
S1130470DC01CB01801B910BA20BB30B84369105DD
S1130480A105B10550F4C0E020E340E360E38C2F04
S113049019D1CF5FC630C1F753C0C0E020E040E0BF
S11304A060E08C2F0FD1CF5FC630C1F7C701B60112
S11304B074D49B01772324F422273327261B370B7C
S11304C0B901330F880B990BA0D44B015C0120E0D8
S11304D030E040E85FE3B0D3882334F420E140E126
S11304E060E182E0EFD02CC020E030E048EC51E441
S11304F0C501B401A6D320E030E040E452E4D7D5EE
S113050043D652D4C62F20E030E0A901C701B6017A
S113051093D388235CF420E040E06C2F80E0D2D0B9
S113052020E040E06C2F81E0CDD00AC020E04C2FC9
S113053060E083E0C7D020E04C2F60E084E0C2D0CC
S1130540CED0CF911F910F91FF90EF90DF90CF907D
S1130550BF90AF909F908F9008950F931F93CF9368
S1130560DF938AB1D1E0C82FC47082FDD0E0C111FD
S113057034C08091193E81110DC020DF6093153E77
S11305807093163E8093173E9093183E8091193EC7
S1130590882319F113DF0091153E1091163E209126
S11305A0173E3091183EDC01CB01801B910BA20B4E
S11305B0B30B813D9740A105B10578F09091143EAD
S11305C081E089278093143EF9DE6093153E709391
S11305D0163E8093173E9093183ECC2319F08091D9
S11305E0193E01C080E0D093193EDF91CF911F9155
S11305F00F9108958091143E08950F931F93DEDEAA
S113060000911B3E10911C3E20911D3E30911E3ED8
S1130610DC01CB01801B910BA20BB30B893E9340F1
S1130620A105B10588F081E080931A3EC7DE60938E
S11306301B3E70931C3E80931D3E90931E3E809102
S11306401A3E811127C027C0B9DE00911B3E1091CC
S11306501C3E20911D3E30911E3EDC01CB01801BCF
S1130660910BA20BB30B853F9140A105B10570F02E
S1130670A5DE60931B3E70931C3E80931D3E9093B9
S11306801E3E81E080931A3E8AE105C010921A3E14
S113069080E001C08AE11F910F9108959091230891
S11306A090932308E0E0FAE010A211A291E0908375
S11306B080932408E0E2F8E083818823ECF7109229
S11306C0000A089590E0FC01EE0FFF1F8E0F9F1F9C
S11306D0FC01E15EF14C60834183228308950F9312
S11306E01F93CF93DF93CFE1DEE301E31EE3898120
S11306F0D5DF8881D3DF8A81D1DF2396C017D10764
S1130700B1F7DF91CF911F910F91089591E081117D
S113071001C090E09093353E0895CF92DF92EF921E
S1130720FF924CDE6B017C0182E39EE3D5DD611513
S1130730710581059105C1F02CE3C20ED11CE11CA9
S1130740F11CC616D706E806F90638F48091343E43
S113075081508093343E81E008C0AB01BC0182E348
S11307609EE35EDD80E001C080E0FF90EF90DF90CB
S1130770CF9008954F925F926F927F928F929F9243
S1130780AF92BF92CF92DF92EF92FF92CF93DF931B
S11307906B017C0113DE2B013C0120E030E048ECCE
S11307A051E4C701B60108D418165CF5C0E0D0E0E6
S11307B05301420184E6880E911CA11CB11CAE01B8
S11307C00D2E000C660B770B480D591D6A1D7B1D01
S11307D082E39EE325DD8091343E8F5F8093343E37
S11307E020E030E040EF51E4C701B601B8D16B011D
S11307F07C01E29620E030E048EC51E4DDD31816A9
S1130800F4F220E030E048EC51ECC701B60114D218
S1130810882384F48091343E882379F17EDF882311
S113082049F020E030E048EC51E4C701B60198D12A
S11308306B017C018091343E8823F9F04091563E4F
S11308405091573E6091583E7091593E441655065A
S11308506606770690F091E09093363E815080933F
S1130860343E82E39EE3FCDC6093563E7093573E35
S11308708093583E9093593ED0DD8091363E882334
S1130880B9F01092363E81E08093373E8091353E38
S1130890811107C08FEF90E03DDC81EE8093313E03
S11308A013C080E890E036DC80E88093313E0CC0D1
S11308B08091373E882319F01092373E05C080E0BE
S11308C090E028DC1092313EC701B601DF91CF9150
S11308D0FF90EF90DF90CF90BF90AF909F908F905C
S11308E07F906F905F904F9008958F929F92AF92F8
S11308F0BF92CF92DF92EF92FF920F931F93CF9309
S1130900DF930F2EF6E0EF2EFEE3FF2EF02D02E430
S11309101EE30F2EFCE4CF2EFEE3DF2EF02DE801C4
S1130920F70181917F01C1DB89939993CC15DD0592
S1130930B9F7ADE3BEE368E37EE342E45EE3FD01C1
S1130940AA24A3940F2EF3E0BF2EF02D6894CC2498
S1130950C1F86894DD24D2F80F2EF6E0EF2EF02DC6
S11309600F2EF5E0FF2EF02D4F018081EB018993CE
S1130970BE01E801299139918E01263D310510F01F
S1130980F0821AC0213A310510F0E08215C02C38EB
S1130990310510F0D08210C02337310510F0C08229
S11309A00BC02835310510F0B08206C02333310561
S11309B010F0A08201C01082E4019881891301C063
S11309C018823196E417F50779F620E030E09D911E
S11309D09330A1F028F49130B9F0923091F016C020
S11309E0953031F040F0963089F42C5C3F4F0EC0C6
S11309F0265E3F4F0BC02C5E3F4F08C02253310987
S1130A0005C02A51310902C024513109A417B50780
S1130A10F1F6C901DF91CF911F910F91FF90EF90F3
S1130A20DF90CF90BF90AF909F908F9008951F92CA
S1130A300F920FB60F9211242F933F934F935F930E
S1130A406F937F938F939F93AF93BF93CF93EF93C2
S1130A50FF93C1E0C0934C3E9DDCC0934301FF91E2
S1130A60EF91CF91BF91AF919F918F917F916F91B2
S1130A705F914F913F912F910F900FBE0F901F9058
S1130A80189580934C3E089580914C3E0895682FAC
S1130A90880F770B880B990BB8D19B01AC0160913F
S1130AA0523E7091533E8091543E9091553E58D0A1
S1130AB06093523E7093533E8093543E9093553EC0
S1130AC00895CF93DF9320E030E048EC52E4B9D0AE
S1130AD0905831D19B01AC016091523E7091533ECC
S1130AE08091543E9091553EE2D26093523E709371
S1130AF0533E8093543E9093553EF7DEEC01BC0187
S1130B00990F880B990B81D160934E3E70934F3EA1
S1130B108093503E9093513E8C2FB9DF1EDD882385
S1130B2011F08AE1B4DF66DD80934D3E882311F035
S1130B3064DDADDF6091523E7091533E8091543E2E
S1130B409091553E17DE6093523E7093533E8093CE
S1130B50543E9093553E76DCDF91CF9108955058E2
S1130B60BB27AA270E94C7050C94A2070E949407DA
S1130B7038F00E949B0720F039F49F3F19F426F4C3
S1130B800C946A070EF4E095E7FB0C946407E92FD4
S1130B900E94B30758F3BA176207730784079507CF
S1130BA020F079F4A6F50C94D5070EF4E0950B2EFD
S1130BB0BA2FA02D0B01B90190010C01CA01A001AB
S1130BC01124FF27591B99F0593F50F4503E68F106
S1130BD01A16F040A22F232F342F4427585FF3CF47
S1130BE0469537952795A795F0405395C9F77EF418
S1130BF01F16BA0B620B730B840BBAF09150A1F061
S1130C00FF0FBB1F661F771F881FC2F70EC0BA0FE6
S1130C10621F731F841F48F4879577956795B7956E
S1130C20F7959E3F08F0B0CF9395880F08F0992769
S1130C30EE0F9795879508950E94400708F481E088
S1130C4008950E9435060C94A2070E949B0758F051
S1130C500E94940740F029F45F3F29F00C94640744
S1130C6051110C94D6070C946A070E94B30768F3D9
S1130C709923B1F3552391F3951B550BBB27AA2751
S1130C8062177307840738F09F5F5F4F220F331F8B
S1130C90441FAA1FA9F335D00E2E3AF0E0E832D053
S1130CA091505040E695001CCAF72BD0FE2F29D056
S1130CB0660F771F881FBB1F261737074807AB0728
S1130CC0B0E809F0BB0B802DBF01FF2793585F4F9D
S1130CD03AF09E3F510578F00C9464070C94D607C3
S1130CE05F3FE4F3983ED4F3869577956795B7957F
S1130CF0F7959F5FC9F7880F911D9695879597F98A
S1130D000895E1E0660F771F881FBB1F6217730702
S1130D108407BA0720F0621B730B840BBA0BEE1F17
S1130D2088F7E095089529F416F00C9464070C9460
S1130D30D5070C946A070E94BB07A8F39638A0F75E
S1130D4007F80F92E8942BE33AEA48EB5FE70E9436
S1130D506D080F920F920F924DB75EB70F920E94DB
S1130D602308E4E3F0E00E946D074F915F91EF9157
S1130D70FF91E595EE1FFF1F49F0FE57E0684427F9
S1130D80EE0F441FFA95E1F74195550B0E94ED07CC
S1130D900F9007FE0C94E10708950E94D40668940E
S1130DA0B1110C94D60708950E94BB0788F09F5791
S1130DB098F0B92F9927B751B0F0E1F0660F771F7B
S1130DC0881F991F1AF0BA95C9F714C0B13091F071
S1130DD00E94D507B1E008950C94D507672F782FAA
S1130DE08827B85F39F0B93FCCF386957795679536
S1130DF0B395D9F73EF490958095709561957F4FA2
S1130E008F4F9F4F0895E89409C097FB3EF4909547
S1130E108095709561957F4F8F4F9F4F9923A9F0CF
S1130E20F92F96E9BB279395F6958795779567955E
S1130E30B795F111F8CFFAF4BB0F11F460FF1BC0A2
S1130E406F5F7F4F8F4F9F4F16C0882311F096E935
S1130E5011C0772321F09EE8872F762F05C06623E3
S1130E6071F096E8862F70E060E02AF09A95660F9C
S1130E70771F881FDAF7880F9695879597F9089555
S1130E80990F0008550FAA0BE0E8FEEF1616170697
S1130E90E807F907C0F012161306E407F50798F0FF
S1130EA0621B730B840B950B39F40A2661F0232B18
S1130EB0242B252B21F408950A2609F4A140A69594
S1130EC08FEF811D811D089597F99F6780E870E079
S1130ED060E008959FEF80EC0895DF93CF931F9314
S1130EE00F93FF92EF92DF927B018C01689406C00E
S1130EF0DA2EEF010E946A08FE01E894A59125917B
S1130F00359145915591A6F3EF010E94C705FE0165
S1130F109701A801DA9469F7DF90EF90FF900F91A1
S1130F201F91CF91DF91089500240A941616170695
S1130F3018060906089500240A94121613061406C6
S1130F4005060895092E0394000C11F4882352F029
S1130F50BB0F40F4BF2B11F460FF04C06F5F7F4FE1
S1130F608F4F9F4F089557FD9058440F551F59F0C8
S1130F705F3F71F04795880F97FB991F61F09F3F82
S1130F8079F087950895121613061406551FF2CFAB
S1130F904695F1DF08C0161617061806991FF1CFFB
S1130FA086957105610508940895E894BB27662722
S1130FB07727CB0197F908950E94400708F48FEF33
S1130FC008959B01AC0160E070E080E89FE30C941D
S1130FD021060C9464070C9403090E94BB07D8F300
S1130FE09923C9F3940F511DA3F39150504094F0E9
S1130FF059F0882332F0660F771F881F91505040B4
S1131000C1F79E3F51052CF7880F911D9695879542
S113101097F908955F3FACF0983E9CF0BB27869506
S113102077956795B79508F4B1609395C1F7BB0FB1
S113103058F711F460FFE8CF6F5F7F4F8F4F9F4FDA
S1131040E3CF0C94D607FA01DC01AA0FBB1F9B0166
S1131050AC01BF5728F4222733274427507820C0F7
S1131060B75190F4AB2F0024469537952795011C72
S1131070A395D2F3002071F0220F331F441FB395C0
S1131080DAF30ED00C94AF0561307105A0E88A073D
S1131090B94630F49B01AC016627772788279078FE
S11310A0309621F0208331834283538308950E9434
S11310B06A080C94A2070E94940738F00E949B07C8
S11310C020F0952311F00C9464070C946A07112402
S11310D00C94D6070E94B30770F3959FC1F3950F44
S11310E050E0551F629FF001729FBB27F00DB11DA8
S11310F0639FAA27F00DB11DAA1F649F6627B00D38
S1131100A11D661F829F2227B00DA11D621F739F20
S1131110B00DA11D621F839FA00D611D221F749F2E
S11311203327A00D611D231F849F600D211D822F75
S1131130762F6A2F11249F5750409AF0F1F088239C
S11311404AF0EE0FFF1FBB1F661F771F881F9150C9
S11311505040A9F79E3F510580F00C9464070C940D
S1131160D6075F3FE4F3983ED4F386957795679569
S1131170B795F795E7959F5FC1F7FE2B880F911DF3
S11311809695879597F908950E94BB07E8F09E37D6
S1131190E8F09639B8F49E3848F4672F782F8827FA
S11311A0985FF9CF86957795679593959539D0F3A0
S11311B0B62FB1706B0F711D811D20F48795779543
S11311C0679593950C94E8080C9403090C94D6073E
S11311D0882371F4772321F09850872B762F07C04A
S11311E0662311F499270DC09051862B70E060E0BE
S11311F02AF09A95660F771F881FDAF7880F96955D
S1131200879597F908959F3F31F0915020F4879581
S113121077956795B795880F911D9695879597F95A
S113122008950F931F93CF93DF938230910510F4A9
S113123082E090E0E0915C3EF0915D3E20E030E0A1
S1131240A0E0B0E0309719F140815181028113810F
S113125048175907C8F08417950769F4109731F0B7
S113126012960C93129713961C9327C000935C3E1E
S113127010935D3E22C02115310519F04217530722
S113128018F49A01BD01EF01DF01F801DBCF21154C
S11312903105F9F0281B390B2430310580F48A819B
S11312A09B816115710521F0FB018283938304C046
S11312B080935C3E90935D3EFE01329644C0FE01F5
S11312C0E20FF31F819391932250310928833983CC
S11312D03AC020915A3E30915B3E232B41F4209139
S11312E0023E3091033E20935A3E30935B3E209160
S11312F0003E3091013E2115310541F42DB73EB732
S11313004091043E5091053E241B350BE0915A3E1A
S1131310F0915B3EE217F307A0F42E1B3F0B281756
S1131320390778F0AC014E5F5F4F2417350748F05A
S11313304E0F5F1F40935A3E50935B3E81939193AF
S113134002C0E0E0F0E0CF01DF91CF911F910F9157
S11313500895CF93DF93009709F481C0FC0132977D
S113136012821382A0915C3EB0915D3E109781F48D
S113137020813181820F931F20915A3E30915B3E30
S11313802817390751F5E0935A3EF0935B3E67C046
S1131390ED0120E030E0CE17DF0740F44A815B81A5
S11313A09E0141155105F1F0EA01F5CFC283D383C3
S11313B040815181840F951FC817D90759F488813A
S11313C09981840F951F0296808391838A819B81E2
S11313D0828393832115310529F4E0935C3EF093D5
S11313E05D3E3DC0E901EA83FB8349915991C40FF5
S11313F0D51FEC17FD0761F480819181840F951F3F
S11314000296E90188839983828193818A839B83ED
S1131410E0E0F0E012968D919C911397009719F0FB
S1131420FD01DC01F7CF8D919C9111979D012E5FF9
S11314303F4F820F931F20915A3E30915B3E2817F5
S1131440390769F4309729F410925C3E10925D3E9E
S113145002C012821382A0935A3EB0935B3EDF9186
S10B1460CF910895F894FFCF29
S10F146800005E3E20000507090A0B008E
S9030000FC
