S01A00004275696C64696E675F427261696E735F56342E7372656335
S11300003CC056C055C054C053C052C096C650C020
S11300104FC04EC04DC04CC04BC04AC049C048C080
S113002047C046C045C044C043C042C041C040C0B0
S11300303FC03EC007634236B79BD8A71A396856FB
S113004018AEBAAB558C1D3CB7CC5763BD6DEDFDF6
S1130050753EF6177231BF000000803F05A84CCDF5
S1130060B2D44EB93836A9020C50B9918688083CEE
S1130070A6AAAA2ABE000000803F11241FBECFEF0B
S1130080CDBFDFE3DEBF1EE3A0E0BEE3E0E4F6E1C4
S113009002C005900D92A631B107D9F72EE3A6E16F
S11300A0BEE301C01D92AF36B207E1F7A6D1B0CAD4
S11300B0A7CFC2D0089585E08093000680E008951C
S11300C080910B0681700895E0E0F6E0868381E07C
S11300D08087F6DF8823E9F3E0E0F6E020893189C0
S11300E0938591609387C901089580E00895E0ECB9
S11300F0F1E088EA848788E083878BEB828789E054
S1130100818781E4808380E0089547E068ED8CE78F
S113011090E0ADD041E068ED81E690E0A8D080E0C9
S11301200895789480E0089581E48093800680E0C7
S11301300895809381060895E0E1F4E08081886069
S11301408193E83184E0F807C9F7E0E3F4E08081C3
S113015088608193E83384E0F807C9F7E0E5F4E0C8
S1130160808188608193E83584E0F807C9F70895B1
S1130170E5E1F4E08081887F846080838081877FEB
S11301808083E7E1F4E08081887F846080838081DC
S1130190877F8083E4E3F4E08081887F84608083C8
S11301A08081877F8083E1E3F4E08081887F8460BD
S11301B080838081877F8083E0E3F4E08081887F8F
S11301C0846080838081877F808375DF089523988E
S11301D0E3E3F4E08081877F8083229A2A9881D0A8
S11301E00895259A2D98E0E0F2E08281846082836C
S11301F068D00895419A4998E0E0F2E080818062F5
S1130200808375DF08950298E2E1F4E08081877FBE
S11302108083019A0998039A0B98049A0C9849D000
S11302200895E6E1F4E08081887F846080838081A2
S1130230877F808379DF08957FDF2798E7E3F4E001
S11302408081877F80834298E2E5F4E08081886042
S11302508083459A4D9A59DF0ED08ADFB8DFC1DF1B
S1130260C9DFD1DFDEDF5DDF22D03FDF0895FC018F
S113027064BF40830895E0E4F1E081818111FDCF02
S1130280E0E4F1E080E290E08087918781E8808378
S113029080E892E08287938781E0858382838189E5
S11302A08111FDCF81E08093500180E0089580E0CA
S11302B00895E0E2F8E083E2808384E0818380E0D3
S11302C00895E0E0FAE084E090E084A795A783E451
S11302D0818384E0828387E090E086A397A380E013
S11302E00895E0E0F8E087E490E18087918780EC6E
S11302F0868380E09EE380936B3E90936C3E80E027
S11303000895E0E0F8E0948195FFFDCF8093020822
S11303100895F7DF80E090E0089580915C3E0895B1
S113032086B1881F8827881F089580935C3E0895AE
S113033080915C3E882311F04D9808954D9A08955C
S1130340089508950895089590911C3E81E08927A9
S113035080931C3E0895CF92DF92EF92FF926B013F
S11303607C0180911C3E882321F13ED02091183ECF
S11303703091193E621B730B6093163E7093173EC7
S113038080910E3E90910F3E6817790790F020E01F
S113039030E040ED51E4C701B60183D56B017C0127
S11303A023D06093183E7093193E80931A3E909325
S11303B01B3EC701B601FF90EF90DF90CF900895E8
S11303C080911D3E90911E3EA0911F3EB091203E13
S11303D00196A11DB11D80931D3E90931E3EA093D6
S11303E01F3EB093203E089560911D3E70911E3EC5
S11303F080911F3E9091203E08955BDE80E38093C0
S1130400A000C8D48823E9F388DF882381F088DF3B
S1130410882321F063E081E089D003C060E081E0BB
S113042085D097D342E061E080E091D009C012D03A
S1130430B4D480E084D0811103C043E062E087D06B
S1130440C6D076DF80E0A3D4CFDF84E196E978DFFD
S11304507ADFD7CF0F931F93CF93DF931092253E6C
S11304608AB1D1E0C82FC47082FDD0E0C11130C080
S11304708091263E81110DC0B7DF6093213E7093B9
S1130480223E8093233E9093243E8091263E8823EF
S113049041F1AADF0091213E1091223E2091233E9A
S11304A03091243E601B710B820B930B46D620E0E7
S11304B030E048EC52E439D7181654F445DF94DFA1
S11304C06093213E7093223E8093233E9093243E7A
S11304D0CC2339F08091263E882319F081E0809363
S11304E0253ED093263EDF91CF911F910F91089521
S11304F02091253E222329F020E030E040ED51E414
S1130500D0D408959091230890932308E0E0FAE072
S113051010A211A291E0908380932408E0E2F8E015
S113052083818823ECF71092000A0895E82FF0E005
S1130530EE0FFF1FEB59F14C608311820895E82FF1
S1130540F0E0EE0FFF1FEB59F14C8081089590E02D
S1130550FC01EE0FFF1FEB59F14C608341834430E3
S113056029F4FC01E35AF14C2AE020830895DC01CC
S1130570FB019C918081981320C011969C91119746
S1130580818198131CC012969C91129782819813B2
S113059018C013969C9113978381981314C01496D2
S11305A09C9114978481981310C081E015962C9126
S11305B09581291759F080E0089580E0089580E03E
S11305C0089580E0089580E0089580E008952F92D2
S11305D03F924F925F926F927F928F929F92AF92CF
S11305E0BF92CF92DF92EF92FF920F931F93CF931C
S11305F0DF93CDB7DEB76F97CDBFDEBFF5DE6B01FE
S11306007C019BD522ED33E54BEF51E4BBD475D788
S113061020E030E040E85FE344D469877A878B8741
S11306209C87C701B60122E330E040E050E0CED71A
S113063084D520E030E048EC51E49FD4881F88271B
S1130640881F8D87C701B60124EF31E040E050E0F8
S1130650BDD773D520E030E040E251E48ED4881F4A
S11306608827881F0F2EF5E62F2EFEE33F2EF02D50
S11306709E012F5F3F4F0DE51EE30F2EF9E6CF2EAF
S1130680FEE3DF2EF02D4901482E512C612C712CF4
S11306902E873F87F10180818230A1F018F48130E8
S11306A031F021C0833039F0843099F01CC0F12C32
S11306B0E12C69E11BC0F12C0F2EF9E1EF2EF02D96
S11306C060E014C00F2EF9E1FF2EF02DE12C60E064
S11306D00DC00F2EF9E1FF2EF02D0F2EF9E1EF2EB4
S11306E0F02D69E103C0F12CE12C60E08F82988643
S11306F0D4016C931196EC9211971296FC9281811D
S11307008230D1F018F4813039F0E0C08330E1F167
S1130710843009F4A7C0DAC0BD85B69F602D1124CA
S1130720EF81F8856083BE9DE02C1124E182BF9D9A
S1130730F02C1124F282CAC070E080E090E0FFD473
S113074029853A854B855C856BD6C8D4D4016C93D6
S11307506E2D70E080E090E0F2D429853A854B85D7
S11307605C855ED6BBD4F40161836F2D70E080E0BC
S113077090E0E5D429853A854B855C8551D6AED485
S1130780D40112966C93A2C070E080E090E0D5D4BE
S11307909B01AC0160E070E080E89FE30BD56C8BBB
S11307A07D8B8E8B9F8BC301B201C9D4688B798BEF
S11307B08A8B9B8B6E2D70E080E090E0BED49B0111
S11307C0AC0160E070E080E89FE3F4D4688F798F37
S11307D08A8F9B8F6F2D70E080E090E0AED49B01F8
S11307E0AC0160E070E080E89FE3E4D46C8F7D8F1F
S11307F08E8F9F8F20E030E040EA50E46C897D8941
S11308008E899F890DD6288939894A895B8908D6BA
S113081065D4EF81F885608320E030E040EA50E45D
S1130820688D798D8A8D9B8DFBD5288939894A8974
S11308305B89F6D553D4AF81B88511966C9320E0CB
S113084030E040EA50E46C8D7D8D8E8D9F8DE8D52F
S1130850288939894A895B89E3D540D4EF81F885B1
S1130860628334C0D801BC90BB2079F170E080E091
S113087090E065D429853A854B855C85D1D52ED405
S1130880EF81F88560836E2D70E080E090E057D4AE
S113089029853A854B855C85C3D520D4AF81B8853D
S11308A011966C936F2D70E080E090E048D4298518
S11308B03A854B855C85B4D511D4EF81F885628384
S11308C08FEF8B0DD8018C9301C01082B2E02B0EF8
S11308D0311CE3E08E0E911C0F5F1F4F2C143D045E
S11308E009F0D8CEAE84BF846FE57EE3CE010196D5
S11308F03EDE81111EC00FE51EE37E01F7E0EF0E20
S1130900F11CD50111968C91FDDDF5018081FADD94
S1130910D50112968C91F6DDF50181919191A19109
S11309205F01F80181939193A1938F01AE14BF04E9
S113093041F76F96CDBFDEBFDF91CF911F910F912D
S1130940FF90EF90DF90CF90BF90AF909F908F90EB
S11309507F906F905F904F903F902F9008952091DB
S1130960283E3091293E232B51F0EAE2FEE321E0B8
S113097030E0B90141915191452B81F402C060E00E
S113098070E0660F771FFB01E85DF14C8083918373
S113099080913C3E8F5F80933C3E08952F5F3F4F94
S11309A02A30310531F708954091283E5091293E6F
S11309B0EAE2FEE380E091E021913191421753078E
S11309C010F4892FA9019F5F9A30B1F70895CF934E
S11309D0C0913C3ECC2381F0E7DFE82FF0E0EE0F3E
S11309E0FF1FE85DF14C80819181CD9738F0C150B3
S11309F0C0933C3E81E003C080E001C080E0CF9121
S1130A000895CF92DF92EF92FF926B017C0120E078
S1130A1030E048EC51E489D4181684F580913C3ECA
S1130A20882399F0C1DFE82FF0E0EE0FFF1FE85DA7
S1130A30F14C80819181C2968536910510F08FDF4B
S1130A4007C084E690E08BDF03C084E690E087DF94
S1130A5020E030E040EF51E4C701B60121D26B0140
S1130A607C0144E063E081E072DD20E030E048ECAA
S1130A7051E4C701B60159D4181684F220E030E0DD
S1130A8048EC51ECC701B60178D288230CF045C07C
S1130A9080913C3E882301F19ADF8823F1F120E024
S1130AA030E048EC51E4C701B601FBD16B017C0195
S1130AB034C080819181009739F0019780839183BC
S1130AC0892B11F4415051E03296E217F30789F76C
S1130AD050933D3E40933C3E80913D3E882381F0BF
S1130AE010923D3E81E080933E3E87ED90E021DB15
S1130AF087ED8093273E44E064E080E028DD18C061
S1130B0080913E3E882319F010923E3E11C080E051
S1130B1090E00FDB1092273E0BC040913C3E4423F3
S1130B20D9F250913D3EE8E2FEE32CE33EE3C1CF2F
S1130B306091273E89E196E904DC60913C3E8EE1B8
S1130B4096E9FFDBC701B601FF90EF90DF90CF90ED
S1130B5008952F923F924F925F926F927F928F925D
S1130B609F92AF92BF92CF92DF92EF92FF920F9338
S1130B701F93CF93DF9300E11EE30F2EF9E4CF2EF2
S1130B80FEE3DF2EF02D0F2EF3E5EF2EFEE3FF2E16
S1130B90F02DE601F80181918F0196DA89939993FA
S1130BA0CE15DF05B9F7C9E4DEE36881798185E212
S1130BB096E9C6DB6A817B8188E296E9C1DB6C81B8
S1130BC07D818BE296E9BCDB6E817F818EE296E9C2
S1130BD0B7DB6885798581E396E9B2DB80E0A5DB44
S1130BE0C4E4DEE30FE31EE30F2EF9E48F2EFEE3ED
S1130BF09F2EF02D662463946894222421F868942F
S1130C00332432F80F2EF6E04F2EF02D0F2EF5E0A0
S1130C107F2EF02D0F2EF7E05F2EF02D7E01580170
S1130C208881F8018083F601819191916F01893E59
S1130C30910520F05882862D78DB1FC0883C9105F1
S1130C4010F078821AC0873A910510F0488215C0D6
S1130C508538910510F0388210C08436910510F063
S1130C6028820BC08334910518F083E0888305C083
S1130C70829710F0688201C018820F5F1F4FF7013E
S1130C809081F5018081981302C0F70110822196AA
S1130C90C815D90519F6DF91CF911F910F91FF90D7
S1130CA0EF90DF90CF90BF90AF909F908F907F9008
S1130CB06F905F904F903F902F9008954ADFE4E447
S1130CC0FEE349E45EE320E030E091919330A1F04B
S1130CD028F49130B9F0923091F016C0953031F08B
S1130CE040F0963089F42C5C3F4F0EC0265E3F4F97
S1130CF00BC02C5E3F4F08C02253310905C02A5156
S1130D00310902C024513109E417F507F1F6C9018C
S1130D100895CF92DF92EF92FF926B017C01CEDFB8
S1130D20BC01990F880B990B0AD2A7019601B9D07F
S1130D30FF90EF90DF90CF9008951F920F920FB61F
S1130D400F9211242F933F934F935F936F937F934D
S1130D508F939F93AF93BF93CF93EF93FF93C1E090
S1130D60C093533E2DDBC0934301FF91EF91CF918C
S1130D70BF91AF919F918F917F916F915F914F91AF
S1130D803F912F910F900FBE0F901F901895809355
S1130D90533E08958091533E0895CF92DF92EF928F
S1130DA0FF9222DB8091543E681B70E080E090E06B
S1130DB0C4D120E030E048EC52E4E4D090585CD157
S1130DC02091583E3091593E40915A3E50915B3E9D
S1130DD027D36B017C019F772DEC3CEC4CEC5DE35D
S1130DE0CCD088234CF0C092583ED092593EE09229
S1130DF05A3EF0925B3E08C01092583E1092593E03
S1130E0010925A3E10925B3EEFDA6093543E709318
S1130E10553E8093563E9093573E6091583E709154
S1130E20593E80915A3E90915B3E73DFAB01BC0109
S1130E304093583E5093593E60935A3E70935B3EA4
S1130E4084E396E97FDA6091583E7091593E80912F
S1130E505A3E90915B3E4CDB6093583E7093593EF2
S1130E6080935A3E90935B3E76DA6093583E70933B
S1130E70593E80935A3E90935B3EC3DDAB01BC0167
S1130E804093583E5093593E60935A3E70935B3E54
S1130E908AE396E957DAFF90EF90DF90CF900895B8
S1130EA05058BB27AA270E9468070C945B090E942C
S1130EB04D0938F00E94540920F039F49F3F19F489
S1130EC026F40C9423090EF4E095E7FB0C941D0919
S1130ED0E92F0E946C0958F3BA1762077307840755
S1130EE0950720F079F4A6F50C948E090EF4E0959C
S1130EF00B2EBA2FA02D0B01B90190010C01CA01D0
S1130F00A0011124FF27591B99F0593F50F4503E7A
S1130F1068F11A16F040A22F232F342F4427585F6C
S1130F20F3CF469537952795A795F0405395C9F784
S1130F307EF41F16BA0B620B730B840BBAF091503C
S1130F40A1F0FF0FBB1F661F771F881FC2F70EC0DB
S1130F50BA0F621F731F841F48F4879577956795AE
S1130F60B795F7959E3F08F0B0CF9395880F08F09A
S1130F709927EE0F9795879508950E94F90808F42C
S1130F8081E008950E94D6070C945B090E945409DD
S1130F9058F00E944D0940F029F45F3F29F00C9469
S1130FA01D0951110C948F090C9423090E946C099A
S1130FB068F39923B1F3552391F3951B550BBB2784
S1130FC0AA2762177307840738F09F5F5F4F220FC9
S1130FD0331F441FAA1FA9F335D00E2E3AF0E0E8C0
S1130FE032D091505040E695001CCAF72BD0FE2F0A
S1130FF029D0660F771F881FBB1F2617370748079E
S1131000AB07B0E809F0BB0B802DBF01FF27935855
S11310105F4F3AF09E3F510578F00C941D090C94F3
S11310208F095F3FE4F3983ED4F3869577956795EF
S1131030B795F7959F5FC9F7880F911D969587958A
S113104097F90895E1E0660F771F881FBB1F6217A9
S113105073078407BA0720F0621B730B840BBA0B67
S1131060EE1F88F7E095089529F416F00C941D09F5
S11310700C948E090C9423090E947409A8F39638E1
S1131080A0F707F80F92E8942BE33AEA48EB5FE7FE
S11310900E94260A0F920F920F924DB75EB70F92DD
S11310A00E94DC09E4E3F0E00E9426094F915F917D
S11310B0EF91FF91E595EE1FFF1F49F0FE57E068A1
S11310C04427EE0F441FFA95E1F74195550B0E9412
S11310D0A6090F9007FE0C949A0908950E947409BA
S11310E088F09F5798F0B92F9927B751B0F0E1F0E5
S11310F0660F771F881F991F1AF0BA95C9F714C095
S1131100B13091F00E948E09B1E008950C948E09DB
S1131110672F782F8827B85F39F0B93FCCF38695CD
S113112077956795B395D9F73EF49095809570952A
S113113061957F4F8F4F9F4F0895E89409C097FBA7
S11311403EF490958095709561957F4F8F4F9F4F9A
S11311509923A9F0F92F96E9BB279395F6958795DE
S113116077956795B795F111F8CFFAF4BB0F11F4A1
S113117060FF1BC06F5F7F4F8F4F9F4F16C0882348
S113118011F096E911C0772321F09EE8872F762F7E
S113119005C0662371F096E8862F70E060E02AF0BF
S11311A09A95660F771F881FDAF7880F96958795AB
S11311B097F90895990FBB0B550FAA0BE0E8FEEFC2
S11311C016161706E807F90770F012161306E40757
S11311D0F50760F0BA1754F031F4261737074807BB
S11311E05907A7951BF4B901CA01BA2FB69597956B
S11311F00895990F0008550FAA0BE0E8FEEF1616A4
S11312001706E807F907C0F012161306E407F507F6
S113121098F0621B730B840B950B39F40A2661F06A
S1131220232B242B252B21F408950A2609F4A1400D
S1131230A6958FEF811D811D089597F99F6780E81A
S113124070E060E008959FEF80EC0895DF93CF9302
S11312501F930F93FF92EF92DF927B018C016894AE
S113126006C0DA2EEF010E94230AFE01E894A5913C
S11312702591359145915591A6F3EF010E94680798
S1131280FE019701A801DA9469F7DF90EF90FF90CF
S11312900F911F91CF91DF91089500240A9416169F
S11312A0170618060906089500240A941216130650
S11312B0140605060895092E0394000C11F48823DE
S11312C052F0BB0F40F4BF2B11F460FF04C06F5FFA
S11312D07F4F8F4F9F4F089557FD9058440F551FD0
S11312E059F05F3F71F04795880F97FB991F61F0A4
S11312F09F3F79F087950895121613061406551F1B
S1131300F2CF4695F1DF08C0161617061806991F86
S1131310F1CF86957105610508940895E894BB277B
S113132066277727CB0197F908950E94F90808F4F6
S11313308FEF08959B01AC0160E070E080E89FE3CB
S11313400C94C2070C941D090C94850A0E9474091C
S1131350D8F39923C9F3940F511DA3F3915050402E
S113136094F059F0882332F0660F771F881F91504C
S11313705040C1F79E3F51052CF7880F911D96955B
S1131380879597F908955F3FACF0983E9CF0BB2792
S1131390869577956795B79508F4B1609395C1F7ED
S11313A0BB0F58F711F460FFE8CF6F5F7F4F8F4F8B
S11313B09F4FE3CF0C948F09FA01DC01AA0FBB1FE6
S11313C09B01AC01BF5728F42227332744275078C8
S11313D020C0B75190F4AB2F00244695379527953C
S11313E0011CA395D2F3002071F0220F331F441F78
S11313F0B395DAF30ED00C94500761307105A0E870
S11314008A07B94630F49B01AC0166277727882701
S11314109078309621F0208331834283538308955A
S11314200E94230A0C945B090E944D0938F00E9423
S1131430540920F0952311F00C941D090C942309F0
S113144011240C948F090E946C0970F3959FC1F3C9
S1131450950F50E0551F629FF001729FBB27F00D5E
S1131460B11D639FAA27F00DB11DAA1F649F6627B3
S1131470B00DA11D661F829F2227B00DA11D621F02
S1131480739FB00DA11D621F839FA00D611D221FBC
S1131490749F3327A00D611D231F849F600D211DA0
S11314A0822F762F6A2F11249F5750409AF0F1F023
S11314B088234AF0EE0FFF1FBB1F661F771F881F8C
S11314C091505040A9F79E3F510580F00C941D099E
S11314D00C948F095F3FE4F3983ED4F38695779597
S11314E06795B795F795E7959F5FC1F7FE2B880F32
S11314F0911D9695879597F908959F930E94950A53
S11315000F9007FCEE5F0C94BE0A9F3F31F09150A0
S113151020F4879577956795B795880F911D9695D3
S1131520879597F908950C9423090E947409D8F3B8
S1131530E894E0E0BB279F57F0F02AED3FE049EC48
S113154006C0EE0FBB0F661F771F881F28F0B23A44
S113155062077307840728F0B25A620B730B840B7B
S1131560E3959A9572F7803830F49A95BB0F661F0D
S1131570771F881FD2F790480C94870AEF93E0FFF7
S113158007C0A2EA2AED3FE049EC5FEB0E9468073E
S11315900E945B090F90039401FC9058ECE5F0E085
S11315A00C94D20A9F938F937F936F93FF93EF933F
S11315B09B01AC010E94100AEF91FF910E94260941
S11315C02F913F914F915F910C94100AA1E21A2E32
S11315D0AA1BBB1BFD010DC0AA1FBB1FEE1FFF1FD3
S11315E0A217B307E407F50720F0A21BB30BE40B23
S11315F0F50B661F771F881F991F1A9469F760956A
S11316007095809590959B01AC01BD01CF01089523
S1071610F894FFCF78
S113161474696D650041786F6E0050756C73657301
S1131624004431004432004433004434004435005F
S10F163444656E64500041786F6E5000F5
S11316400000000200000000890100000000F40115
S10916500705090B0A0066
S9030000FC
