S01A00004275696C64696E675F427261696E735F56342E7372656335
S113000096C0B0C0AFC0AEC0ADC0ACC037C6AAC009
S1130010A9C0A8C0A7C0A6C0A5C0A4C0A3C0A2C0B0
S1130020A1C0A0C09FC09EC09DC09CC09BC09AC0E0
S113003099C098C000407A10F35A00A0724E180973
S11300400010A5D4E80000E87648170000E40B543B
S1130050020000CA9A3B000000E1F505000080960A
S11300609800000040420F000000A086010000003C
S1130070102700000000E8030000000064000000F6
S113008000000A00000000000100000000002C76BF
S1130090D888DC674F0823DFC1DFAE59E1B1B796DA
S11300A0E5E3E453C63AE651997696E8E6C2842637
S11300B0EB898C9B62ED407C6FFCEFBC9C9F40F213
S11300C0BAA56FA5F490055A2AF75C936B6CF9678F
S11300D06DC11BFCE0E40D47FEF520E6B500D0ED54
S11300E0902E0300943577050080841E08000020BC
S11300F04E0A000000C80C333333330F986E12835A
S11301001141EF8D2114893BE65516CFFEE6DB182D
S1130110D1844B381BF77C1D901DA4BBE4242032F2
S113012084725E228100C9F124ECA1E53D271124EB
S11301301FBECFEFCDBFDFE3DEBF1EE3A0E0BEE313
S1130140E3EDFFE102C005900D92AC31B107D9F7A0
S11301502EE3ACE1BEE301C01D92A137B207E1F783
S11301606AD2FFCE4DCFC2D0089585E080930006B9
S113017080E0089580910B0681700895E0E0F6E038
S1130180868381E08087F6DF8823E9F3E0E0F6E008
S113019020893189938591609387C901089580E00E
S11301A00895E0ECF1E088EA848788E083878BEBAC
S11301B0828789E0818781E4808380E0089547E035
S11301C068ED8CE790E0ADD041E068ED81E690E029
S11301D0A8D080E00895789480E0089581E4809325
S11301E0800680E00895809381060895E0E1F4E0BC
S11301F0808188608193E83184E0F807C9F7E0E3FF
S1130200F4E0808188608193E83384E0F807C9F7DB
S1130210E0E5F4E0808188608193E83584E0F807C4
S1130220C9F70895E5E1F4E08081887F84608083E4
S11302308081877F8083E7E1F4E08081887F846028
S113024080838081877F8083E4E3F4E08081887FFA
S1130250846080838081877F8083E1E3F4E0808110
S1130260887F846080838081877F8083E0E3F4E0FB
S11302708081887F846080838081877F808375DF2D
S113028008952398E3E3F4E08081877F8083229AB2
S11302902A9807D10895259A2D98E0E0F2E082810A
S11302A084608283EED00895419A4998E0E0F2E0B8
S11302B080818062808375DF08950298E2E1F4E032
S11302C08081877F8083019A0998039A0B98049A06
S11302D00C98CFD00895E6E1F4E08081887F8460B3
S11302E080838081877F808379DF08957FDF2798EB
S11302F0E7E3F4E08081877F80834298E2E5F4E0DD
S1130300808188608083459A4D9A59DF94D08ADF32
S1130310B8DFC1DFC9DFD1DFDEDF5DDFA8D03FDFBB
S11303200895FC0164BF40830895CF92DF92EF9259
S1130330FF92CF93DF93EC016A017B0186E090E0AA
S1130340CAD7009759F0FC01C082D182E282F382BD
S1130350288139812483358388839983DF91CF91E0
S1130360FF90EF90DF90CF900895CF92DF92EF92BD
S1130370FF920F931F93CF93DF93DC01ED91FC91D8
S1130380309711F1C0E0D0E002C0EF01F9012481FF
S1130390358121153105C9F78C01C080D180E280F7
S11303A0F380CF0130D8209739F01C821D826C2D48
S11303B07D2D8E2D9F2D0CC0F801108211826C2D85
S11303C07D2D8E2D9F2D04C060E070E080E090E0D4
S11303D0DF91CF911F910F91FF90EF90DF90CF901D
S11303E00895CF92DF92EF92FF920F931F93CF93D2
S11303F0DF93DC01ED91FC91309781F0EC01C48036
S1130400D580E080F18002811381CF01FCD7C882BE
S1130410D9826E2D7F2D802F912F04C060E070E073
S113042080E090E0DF91CF911F910F91FF90EF90CA
S1130430DF90CF900895E0E4F1E081818111FDCF58
S1130440E0E4F1E080E290E08087918781E88083B6
S113045080E89CE08287938781E085838283818919
S11304608111FDCF81E08093500180E0089580E008
S11304700895E0E2F8E083E2808384E0818380E011
S11304800895E0E0FAE084E090E084A795A783E48F
S1130490818384E0828387E090E086A397A380E051
S11304A00895E0E0F8E087E490E18087918780ECAC
S11304B0868386E09EE380936D3E90936E3E80E05B
S11304C00895E0E0F8E0948195FFFDCF8093020861
S11304D00895F7DF80E090E0089580E00895809328
S11304E0623E08958091623E882311F04D980895EC
S11304F04D9A08957F936F939F938F9386E69FE918
S11305009F938F9309D80F900F900F900F900F9097
S11305100F900895CF92DF92EF92FF920F931F9363
S1130520CF93DF93CDB7DEB76497CDBFDEBFD82EB0
S1130530C92ECB01BA019E012F5F3F4F790189017A
S113054021E041E0A9D6FF92EF92CF92DF928DE6AF
S11305509FE99F938F93E0D70F900F900F900F9088
S11305600F900F906496CDBFDEBFDF91CF911F91A6
S11305700F91FF90EF90DF90CF90089584E79FE96B
S1130580DED708959091223E81E089278093223E10
S11305900895CF92DF92EF92FF926B017C018091DC
S11305A0223E882321F13ED020911E3E30911F3EF1
S11305B0621B730B60931C3E70931D3E8091143E2E
S11305C09091153E6817790790F020E030E040EDF7
S11305D051E4C701B601D6D36B017C0123D06093EB
S11305E01E3E70931F3E8093203E9093213EC70190
S11305F0B601FF90EF90DF90CF9008958091233E55
S11306009091243EA091253EB091263E0196A11DD5
S1130610B11D8093233E9093243EA093253EB09336
S1130620263E08956091233E7091243E8091253E9C
S11306309091263E089597DD80E38093A0004BD3EC
S11306408823E9F34ADF882311F025D202C0AAD017
S113065045D348DF80E03CD3E5DF86E79FE94ADF06
S11306608DDFEDCFCF93DEDF6093273E7093283E7E
S11306708093293E90932A3EC0E020E340E360E368
S11306808C2FFCD0CF5FC630C1F7CF9108958F92E5
S11306909F92AF92BF92CF92DF92EF92FF920F930D
S11306A01F93CF936B017C01BDDF0091273E109116
S11306B0283E2091293E30912A3EDC01CB01801B4B
S11306C0910BA20BB30B84369105A105B10550F42F
S11306D0C0E020E340E360E38C2FD0D0CF5FC6308E
S11306E0C1F753C0C0E020E040E060E08C2FC6D0EA
S11306F0CF5FC630C1F7C701B60127D49B0177236A
S113070024F422273327261B370BB901330F880B18
S1130710990B53D44B015C0120E030E040E85FE3E7
S11307209DD3882334F420E140E160E182E0A6D047
S11307302CC020E030E048EC51E4C501B40193D36F
S113074020E030E040E452E4EDD459D505D4C62F7E
S113075020E030E0A901C701B60180D388235CF40E
S113076020E040E06C2F80E089D020E040E06C2F56
S113077081E084D00AC020E04C2F60E083E07ED08A
S113078020E04C2F60E084E079D085D0CF911F9198
S11307900F91FF90EF90DF90CF90BF90AF909F901C
S11307A08F9008950F931F93CF93DF9310922F3E52
S11307B08AB1D1E0C82FC47082FDD0E0C11130C02D
S11307C08091303E81110DC02DDF60932B3E7093DC
S11307D02C3E80932D3E90932E3E8091303E882374
S11307E041F120DF00912B3E10912C3E20912D3EB3
S11307F030912E3E601B710B820B930BDCD320E0F7
S113080030E040EA51E489D4181654F4BBDE0ADF20
S113081060932B3E70932C3E80932D3E90932E3EFE
S1130820CC2339F08091303E882319F081E0809305
S11308302F3ED093303EDF91CF911F910F910895B9
S113084020912F3E222329F020E030E040ED51E4B6
S113085099D208959091230890932308E0E0FAE058
S113086010A211A291E0908380932408E0E2F8E0C2
S113087083818823ECF71092000A089590E0FC012C
S1130880EE0FFF1F8E0F9F1FFC01EF5CF14C608386
S11308904183228308950F931F93CF93DF93C1E382
S11308A0DEE303E41EE38981D5DF8881D3DF8A8117
S11308B0D1DF2396C017D107B1F7DF91CF911F91F4
S11308C00F910895CF92DF92EF92FF92ABDE6B010E
S11308D07C0184E49EE385DD611571058105910544
S11308E0C1F02CE3C20ED11CE11CF11CC616D706C4
S11308F0E806F90638F48091463E81508093463EDE
S113090081E008C0AB01BC0184E49EE30EDD80E01D
S113091001C080E0FF90EF90DF90CF9008954F9258
S11309205F926F927F928F929F92AF92BF92CF927B
S1130930DF92EF92FF92CF93DF936B017C0172DE23
S11309402B013C0120E030E048EC51E4C701B60142
S1130950E4D318165CF5C0E0D0E05301420184E60C
S1130960880E911CA11CB11CAE010D2E000C660B4F
S1130970770B480D591D6A1D7B1D84E49EE3D5DC6D
S11309808091463E8F5F8093463E20E030E040EF0A
S113099051E4C701B601F5D16B017C01E29620E078
S11309A030E048EC51E4B9D31816F4F220E030E01A
S11309B048EC51ECC701B60151D2882384F48091EC
S11309C0463E882379F17EDF882349F020E030E039
S11309D048EC51E4C701B601D5D16B017C0180918B
S11309E0463E8823F9F04091633E5091643E609105
S11309F0653E7091663E441655066606770690F08D
S1130A0091E09093473E81508093463E84E49EE378
S1130A10ACDC6093633E7093643E8093653E909338
S1130A20663E20DE8091473E882361F01092473E67
S1130A3081E08093483E87ED90E0D5DB87ED80939D
S1130A40433E0CC08091483E882319F01092483EE2
S1130A5005C080E090E0C7DB1092433E6091433EC6
S1130A6070E08BE79FE946DD6091463E70E087E8E1
S1130A709FE940DDC701B601DF91CF91FF90EF9070
S1130A80DF90CF90BF90AF909F908F907F906F90AA
S1130A905F904F9008952F923F924F925F926F9282
S1130AA07F928F929F92AF92BF92CF92DF92EF92FA
S1130AB0FF920F931F93CF93DF9306E11EE30F2E54
S1130AC0F3E5CF2EFEE3DF2EF02D0F2EFDE5EF2E06
S1130AD0FEE3FF2EF02DE601F80181918F014EDB3C
S1130AE089939993CE15DF05B9F7C3E5DEE36881F1
S1130AF0798187E99FE9FEDC6A817B8181EA9FE94C
S1130B00F9DC6C817D818BEA9FE9F4DC6E817F8165
S1130B1085EB9FE9EFDC688579858FEB9FE9EADC5B
S1130B2080E0DDDCCEE4DEE309E41EE30F2EF3E532
S1130B308F2EFEE39F2EF02D662463946894222466
S1130B4021F86894332432F80F2EF6E04F2EF02D5E
S1130B500F2EF5E07F2EF02D0F2EF7E05F2EF02DF7
S1130B607E0158018881F8018083F6018191919179
S1130B706F01893E910520F05882862DB0DC1FC09C
S1130B80883C910510F078821AC0873A910510F0DC
S1130B90488215C08538910510F0388210C084361B
S1130BA0910510F028820BC08334910518F083E07E
S1130BB0888305C0829710F0688201C018820F5F95
S1130BC01F4FF7019081F5018081981302C0F7014E
S1130BD010822196C815D90519F6DF91CF911F917E
S1130BE00F91FF90EF90DF90CF90BF90AF909F90C8
S1130BF08F907F906F905F904F903F902F900895CB
S1130C004ADFEEE4FEE343E55EE320E030E0919169
S1130C109330A1F028F49130B9F0923091F016C0DD
S1130C20953031F040F0963089F42C5C3F4F0EC083
S1130C30265E3F4F0BC02C5E3F4F08C02253310944
S1130C4005C02A51310902C024513109E417F507BE
S1130C50F1F6C9010895CF92DF92EF92FF926B01F2
S1130C607C01CEDFBC0180E090E0A5D1A701960114
S1130C7089D0FF90EF90DF90CF9008951F920F924C
S1130C800FB60F9211242F933F934F935F936F935B
S1130C907F938F939F93AF93BF93CF93EF93FF93E0
S1130CA0C1E0C0935D3EAADCC0934301FF91EF9184
S1130CB0CF91BF91AF919F918F917F916F915F91F0
S1130CC04F913F912F910F900FBE0F901F90189549
S1130CD080935D3E089580915D3E089540915E3E0F
S1130CE050915F3E6091603E7091613E89EC9FE956
S1130CF011DC80915E3E90915F3EA091603EB09188
S1130D00613EBC01CD019F772AE037ED43E25CE30D
S1130D10A5D0882344F410925E3E10925F3E109258
S1130D20603E1092613E60915E3E70915F3E8091A4
S1130D30603E9091613E8FDF60935E3E70935F3EB4
S1130D408093603E9093613E7BDD60935E3E709342
S1130D505F3E8093603E9093613E1BDC60935E3EF9
S1130D6070935F3E8093603E9093613ED8DD6093C4
S1130D705E3E70935F3E8093603E9093613E87DC5D
S1130D8008955058BB27AA270E94D9060C945308EB
S1130D900E94450838F00E944C0820F039F49F3F27
S1130DA019F426F40C9442080EF4E095E7FB0C9435
S1130DB03C08E92F0E94640858F3BA1762077307C6
S1130DC08407950720F079F4A6F50C9486080EF4B0
S1130DD0E0950B2EBA2FA02D0B01B90190010C0147
S1130DE0CA01A0011124FF27591B99F0593F50F45F
S1130DF0503E68F11A16F040A22F232F342F4427B7
S1130E00585FF3CF469537952795A795F0405395AE
S1130E10C9F77EF41F16BA0B620B730B840BBAF07E
S1130E209150A1F0FF0FBB1F661F771F881FC2F7E9
S1130E300EC0BA0F621F731F841F48F487957795FD
S1130E406795B795F7959E3F08F0B0CF9395880FB7
S1130E5008F09927EE0F9795879508950E94180832
S1130E6008F481E008950E9447070C9453080E94F7
S1130E704C0858F00E94450840F029F45F3F29F0DF
S1130E800C943C0851110C9487080C9442080E945D
S1130E90640868F39923B1F3552391F3951B550B1B
S1130EA0BB27AA2762177307840738F09F5F5F4F39
S1130EB0220F331F441FAA1FA9F335D00E2E3AF078
S1130EC0E0E832D091505040E695001CCAF72BD090
S1130ED0FE2F29D0660F771F881FBB1F26173707E1
S1130EE04807AB07B0E809F0BB0B802DBF01FF2713
S1130EF093585F4F3AF09E3F510578F00C943C08AC
S1130F000C9487085F3FE4F3983ED4F38695779575
S1130F106795B795F7959F5FC9F7880F911D9695CB
S1130F20879597F90895E1E0660F771F881FBB1F27
S1130F30621773078407BA0720F0621B730B840BD4
S1130F40BA0BEE1F88F7E09508950E94AC076894E9
S1130F50B1110C94870808950E946C0888F09F577B
S1130F6098F0B92F9927B751B0F0E1F0660F771FC9
S1130F70881F991F1AF0BA95C9F714C0B13091F0BF
S1130F800E948608B1E008950C948608672F782F94
S1130F908827B85F39F0B93FCCF386957795679584
S1130FA0B395D9F73EF490958095709561957F4FF0
S1130FB08F4F9F4F0895E89409C097FB3EF4909596
S1130FC08095709561957F4F8F4F9F4F9923A9F01E
S1130FD0F92F96E9BB279395F695879577956795AD
S1130FE0B795F111F8CFFAF4BB0F11F460FF1BC0F1
S1130FF06F5F7F4F8F4F9F4F16C0882311F096E984
S113100011C0772321F09EE8872F762F05C0662331
S113101071F096E8862F70E060E02AF09A95660FEA
S1131020771F881FDAF7880F9695879597F90895A3
S1131030990F0008550FAA0BE0E8FEEF16161706E5
S1131040E807F907C0F012161306E407F50798F04D
S1131050621B730B840B950B39F40A2661F0232B66
S1131060242B252B21F408950A2609F4A140A695E2
S11310708FEF811D811D089597F99F6780E870E0C7
S113108060E008959FEF80EC089500240A941616FA
S1131090170618060906089500240A941216130662
S11310A0140605060895092E0394000C11F48823F0
S11310B052F0BB0F40F4BF2B11F460FF04C06F5F0C
S11310C07F4F8F4F9F4F089557FD9058440F551FE2
S11310D059F05F3F71F04795880F97FB991F61F0B6
S11310E09F3F79F087950895121613061406551F2D
S11310F0F2CF4695F1DF08C0161617061806991F99
S1131100F1CF86957105610508940895E894BB278D
S113111066277727CB0197F908950E94180808F4E9
S11311208FEF08950E94A5080C9453080E94450867
S113113038F00E944C0820F0952311F00C943C08E0
S11311400C94420811240C9487080E94640870F3DC
S1131150959FC1F3950F50E0551F629FF001729F58
S1131160BB27F00DB11D639FAA27F00DB11DAA1F67
S1131170649F6627B00DA11D661F829F2227B00DB4
S1131180A11D621F739FB00DA11D621F839FA00D3F
S1131190611D221F749F3327A00D611D231F849F8F
S11311A0600D211D822F762F6A2F11249F575040E6
S11311B09AF0F1F088234AF0EE0FFF1FBB1F661F61
S11311C0771F881F91505040A9F79E3F510580F02A
S11311D00C943C080C9487085F3FE4F3983ED4F3E6
S11311E0869577956795B795F795E7959F5FC1F7CE
S11311F0FE2B880F911D9695879597F908950E9467
S11312006C08E8F09E37E8F09639B8F49E3848F454
S1131210672F782F8827985FF9CF869577956795FC
S113122093959539D0F3B62FB1706B0F711D811D55
S113123020F487957795679593950C9423090C94DE
S11312403E090C948708882371F4772321F0985081
S1131250872B762F07C0662311F499270DC0905170
S1131260862B70E060E02AF09A95660F771F881F3E
S1131270DAF7880F9695879597F908959F3F31F08F
S1131280915020F4879577956795B795880F911DB0
S11312909695879597F90895EF920F931F93CF939F
S11312A0DF93E80147FD02C034E001C034E1042EBD
S11312B0000C550B57FF03C0519541955109E32E7E
S11312C0022F242FAE013DD3CE01DF91CF911F9188
S11312D00F91EF9008950F931F93CF93DF93823074
S11312E0910510F482E090E0E091693EF0916A3E4D
S11312F020E030E0A0E0B0E0309719F14081518166
S11313000281138148175907C8F08417950769F4B7
S1131310109731F012960C93129713961C9327C0D2
S11313200093693E10936A3E22C02115310519F0DD
S11313304217530718F49A01BD01EF01DF01F801C8
S1131340DBCF21153105F9F0281B390B2430310589
S113135080F48A819B816115710521F0FB018283F0
S1131360938304C08093693E90936A3EFE01329653
S113137044C0FE01E20FF31F81939193225031097F
S1131380288339833AC02091673E3091683E232BED
S113139041F42091023E3091033E2093673E309306
S11313A0683E2091003E3091013E2115310541F403
S11313B02DB73EB74091043E5091053E241B350B9A
S11313C0E091673EF091683EE217F307A0F42E1B0C
S11313D03F0B2817390778F0AC014E5F5F4F241795
S11313E0350748F04E0F5F1F4093673E5093683EA9
S11313F08193919302C0E0E0F0E0CF01DF91CF91BF
S11314001F910F910895CF93DF93009709F481C042
S1131410FC01329712821382A091693EB0916A3E18
S1131420109781F420813181820F931F2091673EB0
S11314303091683E2817390751F5E093673EF093E1
S1131440683E67C0ED0120E030E0CE17DF0740F4CE
S11314504A815B819E0141155105F1F0EA01F5CF06
S1131460C283D38340815181840F951FC817D90744
S113147059F488819981840F951F02968083918302
S11314808A819B81828393832115310529F4E0931A
S1131490693EF0936A3E3DC0E901EA83FB834991CA
S11314A05991C40FD51FEC17FD0761F48081918118
S11314B0840F951F0296E901888399838281938121
S11314C08A839B83E0E0F0E012968D919C911397C0
S11314D0009719F0FD01DC01F7CF8D919C911197D4
S11314E09D012E5F3F4F820F931F2091673E3091E5
S11314F0683E2817390769F4309729F41092693E39
S113150010926A3E02C012821382A093673EB09387
S1131510683EDF91CF910895A0E0B0E0E1E9FAE000
S1131520FFC4AE014B5F5F4FFA0161917191AF014E
S113153080916D3E90916E3E32D0E2E00AC50F93E9
S11315401F93CF93DF93E0916D3EF0916E3E238124
S113155021FF1BC08C01D0E0C0E0F80181918F0114
S113156060916D3E70916E3EDB011896ED91FC9199
S11315701997882331F00995892B79F3DFEFCFEFA1
S1131580ECCF8AE00995892B19F08FEF9FEF02C009
S11315908D2F9C2FDF91CF911F910F910895ABE078
S11315A0B0E0E4EDFAE0ACC46C017B018A01FC011B
S11315B016821782838181FFBFC1CE0101963C014F
S11315C0F6019381F70193FD859193FF81917F014A
S11315D0882309F4ADC1853239F493FD859193FFD5
S11315E081917F01853221F4B60190E0EFD3E8CFF9
S11315F0912C212C312CFFE1F315D8F08B3279F0AA
S113160038F4803279F08332A1F4232D20611DC097
S11316108D3261F0803369F4232D216016C0832D4F
S11316208260382EE32DE4603E2E2AC0F32DF8604C
S11316301DC037FC2DC020ED280F2A3040F08E321B
S1131640B9F436FC75C1232D2064322E19C036FE40
S113165006C08AE0989E200D1124922E11C0EAE063
S11316602E9E200D1124222EF32DF0623F2E08C051
S11316708C3621F4832D8068382E02C0883641F4DC
S1131680F70193FD859193FF81917F018111B3CF80
S1131690982F9F7D9554933028F40C5F1F4F9FE340
S11316A099830DC0833631F0833771F0833509F0A7
S11316B055C020C0F801808189830E5F1F4F8824A4
S11316C08394912C530112C02801F2E04F0E511C57
S11316D0F801A080B18036FE03C0692D70E002C01D
S11316E06FEF7FEFC50167D34C018201F32DFF77C4
S11316F03F2E15C0280122E0420E511CF801A080A3
S1131700B18036FE03C0692D70E002C06FEF7FEF39
S1131710C50146D34C01F32DF0683F2E820133FC02
S113172019C0822D90E088169906A0F4B60180E2D3
S113173090E04CD32A94F5CFF50137FC859137FE20
S113174081915F01B60190E041D321102A9421E0F8
S1131750821A91088114910479F7E1C0843611F05A
S1131760893639F5F80137FE07C0608171818281BD
S113177093810C5F1F4F08C060817181072E000C9C
S1131780880B990B0E5F1F4FF32DFF763F2E97FFAB
S113179009C090958095709561957F4F8F4F9F4FAD
S11317A0F0683F2E2AE030E0A3014CD3882E86183F
S11317B044C0853731F4232D2F7EB22E2AE030E049
S11317C025C0932D997FB92E8F36C1F018F4883532
S11317D079F0AEC0803719F0883721F0A9C0E92F1D
S11317E0E061BE2EB4FE0DC0FB2DF460BF2E09C017
S11317F034FE0AC0292F2660B22E06C028E030E04D
S113180005C020E130E002C020E132E0F801B7FE7B
S113181007C060817181828193810C5F1F4F06C074
S11318206081718180E090E00E5F1F4FA3010AD3B5
S1131830882E8618FB2DFF773F2E36FE0DC0232DF4
S11318402E7FA22E891458F434FE0BC032FC09C03A
S1131850832D8E7EA82E05C0B82CA32C03C0B82CD3
S113186001C0B92CA4FE0FC0FE01E80DF11D80815A
S1131870803321F49A2D997EA92E09C0A2FE06C0B8
S1131880B394B39404C08A2D867809F0B394A3FC6E
S113189010C0A0FE06C0B21480F4280C922C9B1831
S11318A00DC0B21458F4B60180E290E08FD2B39424
S11318B0F8CFB21418F42B1802C0982C212CA4FED3
S11318C00FC0B60180E390E081D2A2FE16C0A1FC55
S11318D003C088E790E002C088E590E0B6010CC040
S11318E08A2D867851F0A1FE02C08BE201C080E20D
S11318F0A7FC8DE2B60190E069D2891430F4B601F8
S113190080E390E063D29A94F8CF8A94F301E80DCF
S1131910F11D8081B60190E059D28110F6CF2220CA
S113192009F44ECEB60180E290E050D22A94F7CF6B
S1131930F6018681978102C08FEF9FEF2B96E2E13B
S1131940F8C2A9E0B0E0E6EAFCE0E0C26A01122FC6
S1131950B02E2BE3201720F0FF24F394F00E02C0E6
S11319602CE3F22E0F2D27E0AE014F5F5F4F40D1E5
S1131970BC014981842F8970813031F0E1FC06C0BB
S1131980E0FE06C090E205C09DE203C09BE201C0F8
S113199090E05E2D507143FF3CC0911102C083E082
S11319A001C084E0811718F4212F281B01C020E016
S11319B051110BC0F601822F30E2882319F03193C4
S11319C08150FBCFC20ED11C20E0992329F0D6010F
S11319D09C93F60131966F01C6010396E2FE0AC09C
S11319E03EE4D6013C9341E411964C931197129630
S11319F03C9306C03EE6F601308341E641833283E0
S1131A00FC01322F40E2332309F442C041933150A8
S1131A10FACF42FF44C0911102C083E001C084E0C8
S1131A20811718F4212F281B01C020E051110BC08D
S1131A30F601822F30E2882319F031938150FBCFD5
S1131A40C20ED11C20E0992329F0D6019C93F60103
S1131A5031966F01C6010396E2FE0BC039E4D6014C
S1131A603C933EE411963C93119736E412963C93D2
S1131A7007C039E6F60130833EE6318336E6328329
S1131A80FC01322F40E2332319F041933150FBCF54
S1131A90FC01E20FF11D10828EEF9FEFA6C021E042
S1131AA030E0911102C020E030E0161617061CF455
S1131AB0FB01319602C0E1E0F0E02E0F3F1FBB2096
S1131AC021F0EB2DF0E0319602C0E0E0F0E02E0FC3
S1131AD03F1FE12FF0E02E173F071CF4121B212FAC
S1131AE001C020E08E2D887159F4F601822F30E276
S1131AF0882319F031938150FBCFC20ED11C20E012
S1131B00992329F0D6019C93F60131966F01511166
S1131B100BC0F601822F90E3882319F09193815032
S1131B20FBCFC20ED11C20E00F2D060F9A81342F5B
S1131B30307144FF03C0913309F40150101624F4AA
S1131B40093018F008E001C001E0AB0177FF02C0E2
S1131B5040E050E0FB01E41BF50BA1E0B0E0AC0F6A
S1131B60BD1FEA0FFB1F8EE2A82E4B01801A9108BD
S1131B700B2D10E01195019511094F3FBFEF5B0745
S1131B8021F4D601AC9211966D01641775072CF0FF
S1131B908416950614F4818101C080E341505109F3
S1131BA03196D60111967D014017510724F0D601D4
S1131BB08C936701E2CF6417750739F4963320F4E8
S1131BC0953319F4311101C081E3F6018083F701E3
S1131BD0822F90E2882319F091938150FBCFF70173
S1131BE0E20FF11D108280E090E02996ECE0A7C19D
S1131BF0283008F027E03327DA01990F311D87FDDB
S1131C00916000966105710539F432602E5F3D9351
S1131C1030E32A95E1F708959F3F30F0803871054D
S1131C20610509F03C5F3C5F3D93913008F08068AA
S1131C30911DDF93CF931F930F93FF92EF92192F70
S1131C40987F9695E92F96959695E90FFF27E25789
S1131C50FF4F99273327EE24FF24A701E7010590BE
S1131C600894079428F4360FE71EF81E491F511DE7
S1131C70660F771F881F991F0694A1F70590079494
S1131C8028F4E70EF81E491F561FC11D770F881F41
S1131C90991F661F0694A1F70590079428F4F80E7F
S1131CA0491F561FC71FD11D880F991F661F771F15
S1131CB00694A1F70590079420F4490F561FC71FF7
S1131CC0D81F990F661F771F881F0694A9F7849160
S1131CD01095177041F0D695C79557954795F79489
S1131CE0E7941A95C1F7E4E3F0E068941590159130
S1131CF035916591959105907FE27395E118F10A0C
S1131D00430B560BC90BD009C0F7E10CF11E431F5E
S1131D10561FC91FD01D7EF4703311F48A95E6CF87
S1131D20E894015030F0080F0AF40027021708F471
S1131D30202F2395022F7A3328F079E37D932A9577
S1131D40E9F710C07D932A9589F6069497956795CF
S1131D50379517951794E118F10A430B560BC90BE5
S1131D60D00998F023957E9173957A3308F070E347
S1131D707C932013B8F77E9170617D9330F0839546
S1131D8071E37D9370E32A95E1F71124EF90FF90BE
S1131D900F911F91CF91DF91992787FD9095089519
S1131DA0FC010590615070400110D8F78095909522
S1131DB08E0F9F1F0895FC01615070400190011027
S1131DC0D8F7809590958E0F9F1F08950F931F93BA
S1131DD0CF93DF93FB01238121FD03C08FEF9FEF9E
S1131DE02CC022FF16C046815781248135814217B9
S1131DF0530744F4A081B1819D012F5F3F4F20839D
S1131E0031838C93268137812F5F3F4F268337831D
S1131E1014C08B01EC01FB010084F185E02D0995D0
S1131E20892BE1F6D80116968D919C91179701960E
S1131E3016968D939C931797CE01DF91CF911F91A6
S1131E400F910895FA01AA27283051F1203181F128
S1131E50E8946F936E7F6E5F7F4F8F4F9F4FAF4FAE
S1131E60B1E03ED0B4E03CD0670F781F891F9A1FC1
S1131E70A11D680F791F8A1F911DA11D6A0F711D75
S1131E80811D911DA11D20D009F468943F912AE081
S1131E90269F11243019305D3193DEF6CF01089569
S1131EA0462F4770405D4193B3E00FD0C9F7F6CF9A
S1131EB0462F4F70405D4A3318F0495D31FD405262
S1131EC0419302D0A9F7EACFB4E0A69597958795F8
S1131ED077956795BA95C9F70097610571050895D7
S1131EE09B01AC010A2E0694579547953795279583
S1131EF0BA95C9F7620F731F841F951FA01D08951B
S1131F002F923F924F925F926F927F928F929F9205
S1131F10AF92BF92CF92DF92EF92FF920F931F93F3
S1131F20CF93DF93CDB7DEB7CA1BDB0BCDBFDEBFCC
S1131F3009942A88398848885F846E847D848C84D7
S1131F409B84AA84B984C884DF80EE80FD800C81E0
S1131F501B81AA81B981CE0FD11DCDBFDEBFED019A
S1091F600895F894FFCF80
S1131F6625733A25643B0025733A25733B000D001F
S1131F7674696D650041786F6E206F757470757441
S1131F860050756C73657320696E2071756575658F
S1131F960044656E6472697465310044656E6472EA
S1131FA6697465320044656E64726974653300440D
S1131FB6656E6472697465340044656E647269742E
S1101FC6653500506F74656E7469616C00C0
S1131FD30000713E200000000002000000006902BE
S10F1FE300000000F4010705090B0A00CF
S9030000FC
