:100000002DC047C046C045C044C043C058C541C0CC
:1000100040C03FC03EC03DC03CC03BC03AC039C0FC
:1000200038C037C036C035C034C033C032C031C02C
:1000300030C02FC007634236B79BD8A71A3968561D
:1000400018AEBAAB558C1D3CB7CC5763BD6DEDFDFA
:10005000753EF6177231BF000000803F11241FBEAD
:10006000CFEFCDBFDFE3DEBF1EE3A0E0BEE3E4EAF7
:10007000F4E102C005900D92AE30B107D9F72EE33E
:10008000AEE0BEE301C01D92AD35B207E1F7FAD193
:1000900007CAB6CFB8D0089585E08093000680E007
:1000A000089580910B0681700895E0E0F6E0868364
:1000B00081E08087F6DF8823E9F3E0E0F6E020893D
:1000C0003189938591609387C901089580E00895EF
:1000D000E0ECF1E088EA848788E083878BEB828715
:1000E00089E0818781E4808380E0089547E068EDBE
:1000F0008CE790E0A2D041E068ED81E690E09DD0F1
:1001000080E00895789480E0089581E480938006EB
:1001100080E00895809381060895E0E1F4E0808115
:1001200088608193E83184E0F807C9F7E0E3F4E000
:10013000808188608193E83384E0F807C9F7E0E5BF
:10014000F4E0808188608193E83584E0F807C9F79E
:100150000895E5E1F4E08081887F84608083808178
:10016000877F8083E7E1F4E08081887F84608083FB
:100170008081877F8083E4E3F4E08081887F8460EE
:1001800080838081877F8083E1E3F4E08081887FC2
:10019000846080838081877F8083E0E3F4E08081D6
:1001A000887F846080838081877F808375DF089566
:1001B000259A2D98E0E0F2E0828184608283EBD082
:1001C0000895419A4998E0E0F2E08081806280835E
:1001D0007FDF08950298E2E1F4E08081877F8083E9
:1001E000019A0998039A0B98049A0C98CCD0089518
:1001F000E6E1F4E08081887F846080838081877F6E
:10020000808383DF089589DF2798E7E3F4E0808126
:10021000877F80834298E2E5F4E080818860808374
:10022000459A4D9A63DF93D094DFC2DFCADFD2DFF5
:10023000DFDF68DFA6D04ADF0895FC0164BF40839A
:100240000895CF92DF92EF92FF92CF93DF93EC016C
:100250006A017B0186E090E002D8009759F0FC012A
:10026000C082D182E282F38228813981248335835E
:1002700088839983DF91CF91FF90EF90DF90CF90AB
:100280000895CF92DF92EF92FF920F931F93CF9337
:10029000DF93DC01ED91FC91309711F1C0E0D0E0EB
:1002A00002C0EF01F9012481358121153105C9F71B
:1002B0008C01C080D180E280F380CF0168D8209784
:1002C00039F01C821D826C2D7D2D8E2D9F2D0CC032
:1002D000F801108211826C2D7D2D8E2D9F2D04C072
:1002E00060E070E080E090E0DF91CF911F910F918E
:1002F000FF90EF90DF90CF900895CF92DF92EF9232
:10030000FF920F931F93CF93DF93DC01ED91FC914C
:10031000309781F0EC01C480D580E080F1800281CB
:100320001381CF0134D8C882D9826E2D7F2D802FC2
:10033000912F04C060E070E080E090E0DF91CF9109
:100340001F910F91FF90EF90DF90CF900895E0E420
:10035000F1E081818111FDCFE0E4F1E080E290E005
:100360008087918721E820838287938781E0858336
:10037000828381898111FDCF81E08093500180E0EB
:10038000089580E00895E0E2F8E083E2808384E06D
:10039000818380E00895E0E0FAE084E090E084A7C3
:1003A00095A783E4818384E0828387E090E086A33D
:1003B00097A380E008958091543E08958093543E21
:1003C00008958091543E882311F04D9808954D9AD8
:1003D00008959091143E81E089278093143E0895FA
:1003E000CF92DF92EF92FF926B017C018091143EDD
:1003F000882321F13ED02091103E3091113E621BA6
:10040000730B60930E3E70930F3E8091063E909169
:10041000073E6817790790F020E030E040ED51E4A6
:10042000C701B601BBD36B017C0123D06093103EA2
:100430007093113E8093123E9093133EC701B60114
:10044000FF90EF90DF90CF9008958091153E9091AE
:10045000163EA091173EB091183E0196A11DB11D08
:100460008093153E9093163EA093173EB093183E8E
:1004700008956091153E7091163E8091173E9091BF
:10048000183E0895CF93DF9300D0CDB7DEB702DEDC
:1004900080E38093A10019821A82812C912C54014F
:1004A0003BD38823E9F3E5DF6B017C0184DF8823FC
:1004B00011F020D208C0B2D0B6016819790980E0E5
:1004C00090E0BFD42CD37DDF89819A810196898306
:1004D0009A8380E01ED346015701E2CFCF93C9DF54
:1004E0006093193E70931A3E80931B3E90931C3E7E
:1004F000C0E020E340E360E38C2FFBD0CF5FC63049
:10050000C1F7CF9108958F929F92AF92BF92CF92F1
:10051000DF92EF92FF920F931F93CF936B017C01B9
:10052000A8DF0091193E10911A3E20911B3E309198
:100530001C3EDC01CB01801B910BA20BB30B84365C
:100540009105A105B10550F4C0E020E340E360E36C
:100550008C2FCFD0CF5FC630C1F753C0C0E020E0B2
:1005600040E060E08C2FC5D0CF5FC630C1F7C70137
:10057000B60131D49B01772324F422273327261B8D
:10058000370BB901330F880B990B5DD44B015C011C
:1005900020E030E040E85FE36DD3882334F420E1CD
:1005A00040E160E182E0A5D02CC020E030E048ECE2
:1005B00051E4C501B40163D320E030E040E452E4EB
:1005C00094D500D60FD4C62F20E030E0A901C70192
:1005D000B60150D388235CF420E040E06C2F80E02B
:1005E00088D020E040E06C2F81E083D00AC020E07A
:1005F0004C2F60E083E07DD020E04C2F60E084E071
:1006000078D084D0CF911F910F91FF90EF90DF9021
:10061000CF90BF90AF909F908F9008950F931F93AE
:10062000CF93DF931092213E8AB1D1E0C82FC470DE
:1006300082FDD0E0C1112FC08091223E81110DC0FA
:1006400018DF60931D3E70931E3E80931F3E909373
:10065000203E8091223E882339F10BDF00911D3E20
:1006600010911E3E20911F3E3091203EDC01CB01B7
:10067000801B910BA20BB30B813D9740A105B105E7
:1006800050F0A7DEF6DE60931D3E70931E3E809311
:100690001F3E9093203ECC2339F08091223E882348
:1006A00019F081E08093213ED093223EDF91CF91DB
:1006B0001F910F9108952091213E222329F020E0DF
:1006C00030E040ED51E46AD2089590912308909370
:1006D0002308E0E0FAE010A211A291E09083809359
:1006E0002408E0E2F8E083818823ECF71092000A06
:1006F000089590E0FC01EE0FFF1F8E0F9F1FFC017D
:10070000ED5DF14C60834183228308950F931F9325
:10071000CF93DF93C3E2DEE305E31EE38981D5DFF8
:100720008881D3DF8A81D1DF2396C017D107B1F743
:10073000DF91CF911F910F910895CF92DF92EF92A9
:10074000FF9297DE6B017C0186E39EE3D6DD6115A7
:10075000710581059105C1F02CE3C20ED11CE11C8D
:10076000F11CC616D706E806F90638F48091383E23
:1007700081508093383E81E008C0AB01BC0186E324
:100780009EE35FDD80E001C080E0FF90EF90DF90AE
:10079000CF9008954F925F926F927F928F929F9227
:1007A000AF92BF92CF92DF92EF92FF92CF93DF93FF
:1007B0006B017C015EDE2B013C0120E030E048EC67
:1007C00051E4C701B60116D418165CF5C0E0D0E0BC
:1007D0005301420184E6880E911CA11CB11CAE019C
:1007E0000D2E000C660B770B480D591D6A1D7B1DE5
:1007F00086E39EE326DD8091383E8F5F8093383E0E
:1008000020E030E040EF51E4C701B601C6D16B01F2
:100810007C01E29620E030E048EC51E4EBD318167E
:10082000F4F220E030E048EC51ECC701B60122D2EE
:10083000882384F48091383E882379F17EDF8823F1
:1008400049F020E030E048EC51E4C701B601A6D100
:100850006B017C018091383E8823F9F04091553E30
:100860005091563E6091573E7091583E4416550641
:100870006606770690F091E09093393E8150809320
:10088000383E86E39EE3FDDC6093553E7093563E12
:100890008093573E9093583E21DE8091393E8823C5
:1008A00061F01092393E81E080933A3E87ED90E00E
:1008B00031DC87ED8093353E0CC080913A3E882331
:1008C00019F010923A3E05C080E090E023DC1092CF
:1008D000353EC701B601DF91CF91FF90EF90DF90D9
:1008E000CF90BF90AF909F908F907F906F905F90D0
:1008F0004F9008952F923F924F925F926F927F9206
:100900008F929F92AF92BF92CF92DF92EF92FF921F
:100910000F931F93CF93DF9380E050DDC0E4DEE3BD
:100920000F2EF5E4CF2EFEE3DF2EF02D0BE31EE3BA
:100930000F2EF5E48F2EFEE39F2EF02D6624639498
:100940006894222421F86894332432F80F2EF6E0BC
:100950004F2EF02D0F2EF5E07F2EF02D0F2EF7E00D
:100960005F2EF02D7E0158018881F8018083F60109
:10097000819191916F01893E910520F05882862DD9
:100980001DDD1FC0883C910510F078821AC0873A9F
:10099000910510F0488215C08538910510F0388215
:1009A00010C08436910510F028820BC08334910565
:1009B00018F083E0888305C0829710F0688201C038
:1009C00018820F5F1F4FF7019081F5018081981306
:1009D00002C0F70110822196C815D90519F6DF91DA
:1009E000CF911F910F91FF90EF90DF90CF90BF902C
:1009F000AF909F908F907F906F905F904F903F90BF
:100A00002F900895EF92FF920F931F93CF93DF9350
:100A100008E01EE3C5E4DEE30F2EFFE4EF2EFEE365
:100A2000FF2EF02DF80181918F013FDB899399937F
:100A3000CE15DF05B9F75EDFE0E4FEE345E45EE3F3
:100A400020E030E091919330A1F028F49130B9F09A
:100A5000923091F016C0953031F040F0963089F424
:100A60002C5C3F4F0EC0265E3F4F0BC02C5E3F4FAD
:100A700008C02253310905C02A51310902C024514E
:100A80003109E417F507F1F6C901DF91CF911F9104
:100A90000F91FF90EF900895CF92DF92EF92FF9227
:100AA0006B017C01AFDFBC0180E090E0CAD1A701FF
:100AB000960174D0FF90EF90DF90CF9008951F9231
:100AC0000F920FB60F9211242F933F934F935F9382
:100AD0006F937F938F939F93AF93BF93CF93EF9336
:100AE000FF93C1E0C0934F3EB0DCC0934301FF9140
:100AF000EF91CF91BF91AF919F918F917F916F9126
:100B00005F914F913F912F910F900FBE0F901F90CB
:100B1000189580934F3E089580914F3E089520E0B0
:100B200030E048EC52E4ABD0905823D12091503EB5
:100B30003091513E4091523E5091533ED6D26093F7
:100B4000503E7093513E8093523E9093533EA4DFAB
:100B50006093503E7093513E8093523E9093533E2B
:100B6000AADD6093503E7093513E8093523E909325
:100B7000533E36DC6093503E7093513E8093523E1C
:100B80009093533E07DE6093503E7093513E8093A6
:100B9000523E9093533EB7DC08955058BB27AA2786
:100BA0000E94E5050C94C0070E94B20738F00E942D
:100BB000B90720F039F49F3F19F426F40C94880704
:100BC0000EF4E095E7FB0C948207E92F0E94D10711
:100BD00058F3BA17620773078407950720F079F472
:100BE000A6F50C94F3070EF4E0950B2EBA2FA02D6A
:100BF0000B01B90190010C01CA01A0011124FF27CA
:100C0000591B99F0593F50F4503E68F11A16F040C4
:100C1000A22F232F342F4427585FF3CF46953795C3
:100C20002795A795F0405395C9F77EF41F16BA0B88
:100C3000620B730B840BBAF09150A1F0FF0FBB1F36
:100C4000661F771F881FC2F70EC0BA0F621F731F7F
:100C5000841F48F4879577956795B795F7959E3FDC
:100C600008F0B0CF9395880F08F09927EE0F97956D
:100C7000879508950E945E0708F481E008950E9418
:100C800053060C94C0070E94B90758F00E94B2079F
:100C900040F029F45F3F29F00C94820751110C9425
:100CA000F4070C9488070E94D10768F39923B1F3E5
:100CB000552391F3951B550BBB27AA276217730782
:100CC000840738F09F5F5F4F220F331F441FAA1F16
:100CD000A9F335D00E2E3AF0E0E832D091505040D2
:100CE000E695001CCAF72BD0FE2F29D0660F771F80
:100CF000881FBB1F261737074807AB07B0E809F066
:100D0000BB0B802DBF01FF2793585F4F3AF09E3FEA
:100D1000510578F00C9482070C94F4075F3FE4F3DC
:100D2000983ED4F3869577956795B795F7959F5F2D
:100D3000C9F7880F911D9695879597F90895E1E079
:100D4000660F771F881FBB1F621773078407BA07D8
:100D500020F0621B730B840BBA0BEE1F88F7E09533
:100D6000089529F416F00C9482070C94F3070C9460
:100D700088070E94D907A8F39638A0F707F80F92C2
:100D8000E8942BE33AEA48EB5FE70E948B080F9266
:100D90000F920F924DB75EB70F920E944108E4E3A5
:100DA000F0E00E948B074F915F91EF91FF91E595E5
:100DB000EE1FFF1F49F0FE57E0684427EE0F441F67
:100DC000FA95E1F74195550B0E940B080F9007FE2D
:100DD0000C94FF0708950E94F2066894B1110C94D8
:100DE000F40708950E94D90788F09F5798F0B92F0B
:100DF0009927B751B0F0E1F0660F771F881F991F50
:100E00001AF0BA95C9F714C0B13091F00E94F307F7
:100E1000B1E008950C94F307672F782F8827B85F07
:100E200039F0B93FCCF3869577956795B395D9F7A7
:100E30003EF490958095709561957F4F8F4F9F4FB1
:100E40000895E89409C097FB3EF4909580957095BD
:100E500061957F4F8F4F9F4F9923A9F0F92F96E906
:100E6000BB279395F695879577956795B795F1117B
:100E7000F8CFFAF4BB0F11F460FF1BC06F5F7F4F18
:100E80008F4F9F4F16C0882311F096E911C077232A
:100E900021F09EE8872F762F05C0662371F096E833
:100EA000862F70E060E02AF09A95660F771F881F02
:100EB000DAF7880F9695879597F90895990F0008A6
:100EC000550FAA0BE0E8FEEF16161706E807F9071C
:100ED000C0F012161306E407F50798F0621B730BB7
:100EE000840B950B39F40A2661F0232B242B252B38
:100EF00021F408950A2609F4A140A6958FEF811DDB
:100F0000811D089597F99F6780E870E060E008957B
:100F10009FEF80EC0895DF93CF931F930F93FF9281
:100F2000EF92DF927B018C01689406C0DA2EEF010C
:100F30000E948808FE01E894A5912591359145917C
:100F40005591A6F3EF010E94E505FE019701A80166
:100F5000DA9469F7DF90EF90FF900F911F91CF9196
:100F6000DF91089500240A9416161706180609063C
:100F7000089500240A94121613061406050608950F
:100F8000092E0394000C11F4882352F0BB0F40F497
:100F9000BF2B11F460FF04C06F5F7F4F8F4F9F4FD7
:100FA000089557FD9058440F551F59F05F3F71F059
:100FB0004795880F97FB991F61F09F3F79F08795C0
:100FC0000895121613061406551FF2CF4695F1DF49
:100FD00008C0161617061806991FF1CF86957105D9
:100FE000610508940895E894BB2766277727CB010D
:100FF00097F908950E945E0708F48FEF08959B010A
:10100000AC0160E070E080E89FE30C943F060C9434
:1010100082070C9421090E94D907D8F39923C9F3B8
:10102000940F511DA3F39150504094F059F0882330
:1010300032F0660F771F881F91505040C1F79E3FD6
:1010400051052CF7880F911D9695879597F908956E
:101050005F3FACF0983E9CF0BB27869577956795EF
:10106000B79508F4B1609395C1F7BB0F58F711F429
:1010700060FFE8CF6F5F7F4F8F4F9F4FE3CF0C94A0
:10108000F407FA01DC01AA0FBB1F9B01AC01BF579B
:1010900028F4222733274427507820C0B75190F4F2
:1010A000AB2F0024469537952795011CA395D2F3C5
:1010B000002071F0220F331F441FB395DAF30ED0D6
:1010C0000C94CD0561307105A0E88A07B94630F46B
:1010D0009B01AC016627772788279078309621F00E
:1010E000208331834283538308950E9488080C949F
:1010F000C0070E94B20738F00E94B90720F095237C
:1011000011F00C9482070C94880711240C94F407B6
:101110000E94D10770F3959FC1F3950F50E0551FC2
:10112000629FF001729FBB27F00DB11D639FAA273C
:10113000F00DB11DAA1F649F6627B00DA11D661F8B
:10114000829F2227B00DA11D621F739FB00DA11DAC
:10115000621F839FA00D611D221F749F3327A00D66
:10116000611D231F849F600D211D822F762F6A2F02
:1011700011249F5750409AF0F1F088234AF0EE0F67
:10118000FF1FBB1F661F771F881F91505040A9F794
:101190009E3F510580F00C9482070C94F4075F3F4A
:1011A000E4F3983ED4F3869577956795B795F795D0
:1011B000E7959F5FC1F7FE2B880F911D9695879548
:1011C00097F908950E94D907E8F09E37E8F096391C
:1011D000B8F49E3848F4672F782F8827985FF9CFA6
:1011E00086957795679593959539D0F3B62FB1701D
:1011F0006B0F711D811D20F48795779567959395E9
:101200000C9406090C9421090C94F407882371F4BA
:10121000772321F09850872B762F07C0662311F48F
:1012200099270DC09051862B70E060E02AF09A95C6
:10123000660F771F881FDAF7880F9695879597F9BD
:1012400008959F3F31F0915020F4879577956795E9
:10125000B795880F911D9695879597F908950F93E7
:101260001F93CF93DF938230910510F482E090E0DA
:10127000E0915B3EF0915C3E20E030E0A0E0B0E029
:10128000309719F140815181028113814817590724
:10129000C8F08417950769F4109731F012960C93F3
:1012A000129713961C9327C000935B3E10935C3EED
:1012B00022C02115310519F04217530718F49A017D
:1012C000BD01EF01DF01F801DBCF21153105F9F098
:1012D000281B390B2430310580F48A819B816115EC
:1012E000710521F0FB018283938304C080935B3EF0
:1012F00090935C3EFE01329644C0FE01E20FF31F64
:101300008193919322503109288339833AC02091E7
:10131000593E30915A3E232B41F42091023E3091A8
:10132000033E2093593E30935A3E2091003E309127
:10133000013E2115310541F42DB73EB74091043EE1
:101340005091053E241B350BE091593EF0915A3ED9
:10135000E217F307A0F42E1B3F0B2817390778F08C
:10136000AC014E5F5F4F2417350748F04E0F5F1FEB
:101370004093593E50935A3E8193919302C0E0E0CE
:10138000F0E0CF01DF91CF911F910F910895CF939E
:10139000DF93009709F481C0FC0132971282138217
:1013A000A0915B3EB0915C3E109781F42081318129
:1013B000820F931F2091593E30915A3E28173907CA
:1013C00051F5E093593EF0935A3E67C0ED0120E09D
:1013D00030E0CE17DF0740F44A815B819E01411562
:1013E0005105F1F0EA01F5CFC283D38340815181E9
:1013F000840F951FC817D90759F488819981840FE4
:10140000951F0296808391838A819B818283938337
:101410002115310529F4E0935B3EF0935C3E3DC01D
:10142000E901EA83FB8349915991C40FD51FEC1759
:10143000FD0761F480819181840F951F0296E90177
:1014400088839983828193818A839B83E0E0F0E0A3
:1014500012968D919C911397009719F0FD01DC0174
:10146000F7CF8D919C9111979D012E5F3F4F820F79
:10147000931F2091593E30915A3E2817390769F43D
:10148000309729F410925B3E10925C3E02C01282AB
:101490001382A093593EB0935A3EDF91CF910895A5
:0414A000F894FFCFEE
:0E14A40000005D3E2000F4010705090B0A0060
:00000001FF
