S01A0000486A65726E656279676765736574745F56342E73726563F7
S11300000C9461000C947E000C947E000C947E0091
S11300100C947E000C947E000C94E5040C947E00F9
S11300200C947E000C947E000C947E000C947E0054
S11300300C947E000C947E000C947E000C947E0044
S11300400C947E000C947E000C947E000C947E0034
S11300500C947E000C947E000C947E000C947E0024
S11300600C947E000C947E000C947E000C947E0014
S11300700C947E000C947E000C947E000763423640
S1130080B79BD8A71A39685618AEBAAB558C1D3C25
S1130090B7CC5763BD6DEDFD753EF6177231BF00E9
S11300A00000803F05A84CCDB2D44EB93836A90221
S11300B00C50B9918688083CA6AAAA2ABE00000062
S11300C0803F11241FBECFEFCDBFDFE3DEBF18E3B7
S11300D0A0E0B8E3EAE3F8E102C005900D92A6318E
S11300E0B107D9F728E3A6E1B8E301C01D92AA3607
S11300F0B207E1F70E9483000C94FB0B0C94000000
S11301000E949B0108950E948000E0EAF0E0808153
S1130110836080830E9413058823E1F30E949C037B
S1130120882379F00E949F03882341F063E080E0F4
S11301300E942A0560E081E00E942A050E94E003F3
S113014007C081E00E9433050E943D030E945D07C1
S11301500E947B050E94D40380E00E9410050E9447
S11301603A08AB01BC018AEF97E90E94DC030E94C4
S1130170DF03D0CFE0E4F6E080E1828385E0808392
S113018080E0089580914B0681700895E0E4F6E0E4
S1130190868381E080870E94C2008823E1F3E0E443
S11301A0F6E020893189938591609387C901089588
S11301B080E00895E0ECF1E028EA208798E0978356
S11301C08BEB868339E0358324879387828781E4A8
S11301D0808380E0089547E068ED8CE790E00E941A
S11301E0C80141E068ED81E690E00E94C80180E02A
S11301F00895789480E0089581E48093A00680E0D7
S1130200089581E08093A00680E00895E0EAF6E096
S11302108081816080830895E0EAF6E080818E7FAA
S1130220808308958093A1060895E0E1F4E080813D
S113023088608193E83184E0F807C9F7E0E3F4E0EB
S1130240808188608193E83384E0F807C9F7E0E5AA
S1130250F4E0808188608193E83584E0F807C9F789
S11302600895E5E1F4E08081887F84608083808163
S1130270877F8083E7E1F4E08081887F84608083E6
S11302808081877F8083E0E5F4E08081887F8460DB
S113029080838081877F8083E1E5F4E08081887FAB
S11302A0846080838081877F8083E3E5F4E08081BC
S11302B0887F846080838081877F80830E94BA00E6
S11302C008952398E3E3F4E08081877F8083229A72
S11302D02A980E9402020895259A2D98E0E0F2E0FF
S11302E08281846082830E94F2010895249A2C986A
S11302F0E0E0F2E08081806180830E94DA0008956A
S11303000298E2E1F4E08081877F8083019A099872
S1130310039A0B98049A0C980E94EA010895E6E166
S1130320F4E08081887F846080838081877F8083FC
S11303300E94FC0008950E9415012698E6E3F4E06B
S11303408081877F80832798E7E3F4E08081877F3B
S113035080834298E2E5F4E0808188608083459A56
S11303604D9A0E94EB000E94CC010E9431010E9430
S113037061010E946C010E9476010E9480010E942A
S11303808F010E94F9000E94E8010E94D80008959C
S1130390FC0164BF40830895E0E4F1E081818111B0
S11303A0FDCFE0E4F1E080E290E08087918781E88E
S11303B0808380E490E08287938781E085838283D1
S11303C081898111FDCF81E08093500180E00895FF
S11303D080E00895E0E2F8E083E2808384E08183B2
S11303E080E00895E0E0FAE084E090E084A795A737
S11303F083E4818384E0828387E090E086A397A3EB
S113040080E00895E0E0F8E08BE591E08087918753
S113041080EC868380E098E3809366389093673815
S113042080E00895E0E0F8E0948195FFFDCF8093AB
S1130430020808950E94120280E090E0089520913D
S1130440163830911738232B51F0E8E1F8E321E016
S113045030E0B90141915191452B81F402C060E033
S113046070E0660F771FFB01EA5EF74C808391838F
S113047080912A388F5F80932A3808952F5F3F4FE9
S11304802A30310531F7089581E090912B3891118C
S113049001C080E008954091163850911738E8E182
S11304A0F8E380E091E0219131914217530710F471
S11304B0892FA9019F5F9A30B1F7089580E090E0F9
S11304C00E94120110922B380895CF93C0912A38BC
S11304D0CC23C9F00E944B0290E0FC01EE0FFF1FF9
S11304E0EA5EF74C208131812D33310570F0880F9D
S11304F0991FFC01EA5EF74C10821182C150C0932F
S11305002A3881E003C080E001C080E0CF910895E3
S1130510CF92DF92EF92FF926B017C0120E030E0FA
S113052048EC51E40E94880A8823BCF180912A385F
S11305308823B1F00E944B02E82FF0E0EE0FFF1F7A
S1130540EA5EF74C808191810A968536910518F010
S11305500E941F0209C084E690E00E941F0204C0AA
S113056084E690E00E941F0220E030E048EC51E471
S1130570C701B6010E9443086B017C0144E063E0BB
S113058080E00E943B0520E030E048EC51E4C701E4
S1130590B6010E94880A88234CF620E030E048EC3B
S11305A051ECC701B6010E94B00888230CF046C084
S11305B080912A38882311F10E9465028823F1F181
S11305C020E030E048EC51E4C701B6010E94440841
S11305D06B017C0133C080819181009739F00197D0
S11305E080839183892B11F4415051E03296E217B4
S11305F0F30789F750932C3840932A3880912C388C
S1130600882391F010922C3886EE90E00E9412011B
S113061086EE80932B3844E065E081E00E943B0540
S113062081E080932D3815C080912D38882319F0EE
S113063010922D380EC00E945E020BC040912A38E1
S11306404423E1F250912C38E6E1F8E32AE238E35E
S1130650C2CF86B160912B388FEF97E90E94DD03FA
S113066060912A3884E098E90E94DD03C701B6014D
S1130670FF90EF90DF90CF9008950F931F93CF9347
S1130680DF93109232388AB1D1E0C82FC47082FD52
S1130690D0E0C11136C08091333881110EC00E9460
S11306A03A0860932E3870932F38809330389093A3
S11306B0313880913338882369F10E943A080091D7
S11306C02E3810912F382091303830913138601BFA
S11306D0710B820B930B0E94900920E030E04AE7F3
S11306E054E40E94880A181664F40E94E7070E94E2
S11306F03A0860932E3870932F3880933038909353
S11307003138CC2339F080913338882319F081E0D3
S113071080933238D0933338DF91CF911F910F916A
S1130720089520913238222331F020E030E040ED6A
S113073051E40E944408089580915738089586B181
S113074086FB882780F908950E9401010E940C010C
S113075008950E94FC000E94060108958091573874
S1130760882371F042E061E081E00E943B0560E093
S113077080E00E942A050E945E020E94A40308955C
S113078060E081E00E942A0560E080E00E942A0582
S11307900E94A903089590915738981721F08093E7
S11307A057380E94AE03089580915738882311F07A
S11307B04D9808954D9A08950895089508950895BB
S11307C0AF92BF92CF92DF92EF92FF920F931F935B
S11307D0CF93DF93CEE0D8E30EE318E30F2EF3E1DB
S11307E0CF2EF8E3DF2EF02D780189910E94C60008
S11307F0D7018D937D01CC15DD05B9F7CEE3D8E3A0
S113080068818BE098E90E94DD0369818EE098E9B4
S11308100E94DD036A8181E198E90E94DD036B8116
S113082084E198E90E94DD036C8187E198E90E94E4
S1130830DD03E9E3F8E3C4E3D8E34EE358E380E0FF
S113084031E00F2EF3E0CF2EF02D6894DD24D1F8A3
S11308506894EE24E2F80F2EF6E0FF2EF02D75E0FA
S113086067E05F0190819993D8012D918D01293E14
S113087018F06083832F19C0283C10F0708315C0D2
S1130880273A10F0F08211C0253810F0E0820DC034
S1130890243610F0D08209C0233410F0C08205C081
S11308A0223210F0308301C01082D5012C919213B2
S11308B001C01C923196E417F50799F60E94CB0308
S11308C0DF91CF911F910F91FF90EF90DF90CF9028
S11308D0BF90AF900895EF92FF920F931F93CF9321
S11308E0DF930E944402811150C00E94E003C9E3D7
S11308F0D8E30F2EFEE3EF2EF8E3FF2EF02D00E0F9
S113090010E08991833019F128F4813081F182302B
S113091031F134C0853059F090F0863079F50C5CB3
S11309201F4F44E063E080E00E943B0527C0075E60
S11309301F4F44E063E080E00E943B051FC00C5E53
S11309401F4F44E063E080E00E943B0517C0025360
S1130950110944E061E080E00E943B050FC00951A9
S1130960110944E061E080E00E943B0507C00451A6
S1130970110944E061E080E00E943B05CE15DF05EB
S113098009F0BFCF802F912F02C080E090E0DF916B
S1130990CF911F910F91FF90EF900895CF92DF9226
S11309A0EF92FF926B017C010E946B04BC01990FD2
S11309B0880B990B0E949209A70196010E94440892
S11309C0FF90EF90DF90CF9008951F920F920FB693
S11309D00F9211242F933F934F935F936F937F93C1
S11309E08F939F93AF93BF93CF93EF93FF93C1E004
S11309F0C09343380E942608C0934301FF91EF91AE
S1130A00CF91BF91AF919F918F917F916F915F91A2
S1130A104F913F912F910F900FBE0F901F901895FB
S1130A208093433808958091433808959091230822
S1130A3090932308E0E0FAE010A211A291E09083E1
S1130A4080932408E0E2F8E083818823ECF7109295
S1130A50000A0895E82FF0E0EE0FFF1FE05AF74C6C
S1130A60608311820895E82FF0E0EE0FFF1FE05A33
S1130A70F74C8081089590E0FC01EE0FFF1FE05ACF
S1130A80F74C60834183443029F4FC01E85AF74C65
S1130A9024E620830895DC01FB019C918081981356
S1130AA020C011969C911197818198131CC01296B5
S1130AB09C9112978281981318C013969C91139756
S1130AC08381981314C014969C911497848198136D
S1130AD010C081E015962C919581291759F080E07A
S1130AE0089580E0089580E0089580E0089580E00E
S1130AF0089580E008952F923F924F925F926F92F3
S1130B007F928F929F92AF92BF92CF92DF92EF9299
S1130B10FF920F931F93CF93DF93CDB7DEB76E97FA
S1130B20CDBFDEBF0E943A086B017C010E94900990
S1130B3023E634E14DE953E40E94B5080E94700BAA
S1130B4020E030E040E05FE30E94030B20E030E06F
S1130B5040E05FE30E94440869877A878B879C871B
S1130B60C701B60124EF31E040E050E00E94D90B08
S1130B700E94900920E030E04AE753E40E94B00864
S1130B80881F8827881F8F83C701B60128E833E1AF
S1130B9040E050E00E94D90B0E94900920E030E030
S1130BA048EC52E40E94B008881F8827881F00E69A
S1130BB018E39E012F5F3F4F0F2EF8E54F2EF8E309
S1130BC05F2EF02D0F2EF4E66F2EF8E37F2EF02D1E
S1130BD01901882E912CA12CB12C2D873E87DF8002
S1130BE0F8018081833079F028F4813041F082303B
S1130BF089F028C08430A9F08530D1F023C0F12CCD
S1130C00E12C69E122C0F12C0F2EF9E1EF2EF02D39
S1130C1060E01BC00F2EF9E1FF2EF02DE12C60E007
S1130C2014C0F12C0F2EF9E1EF2EF02D69E10DC067
S1130C300F2EF9E1FF2EF02D0F2EF9E1EF2EF02DFE
S1130C4069E103C0F12CE12C60E02F823886D101E8
S1130C506C931196EC9211971296FC9281818230DA
S1130C60D1F018F4813041F0CDC0833009F444C090
S1130C70843009F4BFC0C6C0D69E602D1124EF8114
S1130C80F8856083DE9CE02C1124E182DF9CF02C4B
S1130C901124F282B7C070E080E090E00E949209D3
S1130CA029853A854B855C850E94030B0E94610966
S1130CB0D1016C936E2D70E080E090E00E94920967
S1130CC029853A854B855C850E94030B0E94610946
S1130CD0F10161836F2D70E080E090E00E94920941
S1130CE029853A854B855C850E94030B0E94610926
S1130CF0D10112966C9386C070E080E090E00E946F
S1130D0090099B01AC0160E070E080E89FE30E94E1
S1130D10CD096B8B7C8B8D8B9E8BC501B4010E949E
S1130D2092096F87788B898B9A8B6E2D70E080E0A7
S1130D3090E00E9490099B01AC0160E070E080E8C3
S1130D409FE30E94CD096F8B788F898F9A8F6F2DC7
S1130D5070E080E090E00E9490099B01AC0160E0AB
S1130D6070E080E89FE30E94CD096B8F7C8F8D8FAC
S1130D709E8F23E333E343EA50E46B897C898D89B6
S1130D809E890E94030B2F85388949895A890E94BC
S1130D90030B0E946109EF81F885608323E333E349
S1130DA043EA50E46F89788D898D9A8D0E94030BF4
S1130DB02F85388949895A890E94030B0E94610949
S1130DC0AF81B88511966C9323E333E343EA50E48F
S1130DD06B8D7C8D8D8D9E8D0E94030B2F853889A4
S1130DE049895A890E94030B0E946109EF81F885A1
S1130DF0628308C0D2018C91882319F081508C93AE
S1130E0001C010820E5F1F4FB3E02B0E311CEFEFB9
S1130E104E1A5E0A0615170509F0E2CECD84DE846B
S1130E206AE578E3CE0101960E944B0581112FC03B
S1130E300AE518E37E01F7E0EF0EF11CD6011196E6
S1130E408C910E941605F60180810E941605D60138
S1130E5012968C910E941605F60181919191A191AF
S1130E606F01F80181939193A1938F01CE14DF0454
S1130E7029F700E618E3D8016C918AE198E90E9409
S1130E80DD03F801628185E298E90E94DD036E9634
S1130E90CDBFDEBFDF91CF911F910F91FF90EF90F7
S1130EA0DF90CF90BF90AF909F908F907F906F9086
S1130EB05F904F903F902F900895CF92DF92EF92E2
S1130EC0FF920E943A0880914438681B70E080E0E9
S1130ED090E00E94900920E030E048EC52E40E9447
S1130EE0B50890580E942F0920914838309149380C
S1130EF040914A3850914B380E94030B6B017C019E
S1130F009F772DEC3CEC4CEC5DE30E94B008882309
S1130F104CF0C0924838D0924938E0924A38F09266
S1130F204B3808C0109248381092493810924A3809
S1130F3010924B380E943A086093443870934538B5
S1130F408093463890934738609148387091493877
S1130F5080914A3890914B380E94CE04609348386F
S1130F607093493880934A3890934B380E94910388
S1130F70609348387093493880934A3890934B383B
S1130F800E94EE07AB01BC014093483850934938A6
S1130F9060934A3870934B3880E398E90E94DE03EB
S1130FA0609148387091493880914A3890914B3813
S1130FB00E948802609348387093493880934A3875
S1130FC090934B38FF90EF90DF90CF9008959091DD
S1130FD0523881E08927809352380895CF92DF9266
S1130FE0EF92FF926B017C0180915238882339F192
S1130FF00E943A0820914E3830914F38621B730B8F
S113100060934C3870934D38809113389091143814
S113101068177907A0F020E030E040ED51E4C70103
S1131020B6010E9444086B017C010E943A08609357
S11310304E3870934F388093503890935138C7018D
S1131040B601FF90EF90DF90CF90089580915338D0
S113105090915438A0915538B09156380196A11DFD
S1131060B11D8093533890935438A0935538B0935E
S1131070563808956091533870915438809155389A
S11310809091563808955058BB27AA270E945B08B0
S11310900C944E0A0E94400A38F00E94470A20F03D
S11310A039F49F3F19F426F40C94160A0EF4E095D3
S11310B0E7FB0C94100AE92F0E945F0A58F3BA1751
S11310C0620773078407950720F079F4A6F50C945A
S11310D0810A0EF4E0950B2EBA2FA02D0B01B90155
S11310E090010C01CA01A0011124FF27591B99F09A
S11310F0593F50F4503E68F11A16F040A22F232FA6
S1131100342F4427585FF3CF469537952795A795F5
S1131110F0405395C9F77EF41F16BA0B620B730B9C
S1131120840BBAF09150A1F0FF0FBB1F661F771F0D
S1131130881FC2F70EC0BA0F621F731F841F48F4C2
S1131140879577956795B795F7959E3F08F0B0CF4B
S11311509395880F08F09927EE0F97958795089532
S11311600E94EC0908F481E008950E94C9080C94D7
S11311704E0A0E94470A58F00E94400A40F029F49F
S11311805F3F29F00C94100A51110C94820A0C94BC
S1131190160A0E945F0A68F39923B1F3552391F369
S11311A0951B550BBB27AA2762177307840738F0D2
S11311B09F5F5F4F220F331F441FAA1FA9F335D02F
S11311C00E2E3AF0E0E832D091505040E695001CE3
S11311D0CAF72BD0FE2F29D0660F771F881FBB1F9D
S11311E0261737074807AB07B0E809F0BB0B802D7B
S11311F0BF01FF2793585F4F3AF09E3F510578F0A7
S11312000C94100A0C94820A5F3FE4F3983ED4F3E2
S1131210869577956795B795F7959F5FC9F7880F7A
S1131220911D9695879597F90895E1E0660F771FCC
S1131230881FBB1F621773078407BA0720F0621B5D
S1131240730B840BBA0BEE1F88F7E095089529F40D
S113125016F00C94100A0C94810A0C94160A0E943D
S1131260670AA8F39638A0F707F80F92E8942BE3DF
S11312703AEA48EB5FE70E94190B0F920F920F9224
S11312804DB75EB70F920E94CF0AECE7F0E00E94E0
S1131290190A4F915F91EF91FF91E595EE1FFF1FA2
S11312A049F0FE57E0684427EE0F441FFA95E1F732
S11312B04195550B0E94990A0F9007FE0C948D0AD4
S11312C008950E94670A88F09F5798F0B92F9927CC
S11312D0B751B0F0E1F0660F771F881F991F1AF01D
S11312E0BA95C9F714C0B13091F00E94810AB1E0F7
S11312F008950C94810A672F782F8827B85F39F0F6
S1131300B93FCCF3869577956795B395D9F73EF4B5
S113131090958095709561957F4F8F4F9F4F08955D
S1131320E89409C097FB3EF490958095709561957B
S11313307F4F8F4F9F4F9923A9F0F92F96E9BB2731
S11313409395F695879577956795B795F111F8CFAD
S1131350FAF4BB0F11F460FF1BC06F5F7F4F8F4F18
S11313609F4F16C0882311F096E911C0772321F00E
S11313709EE8872F762F05C0662371F096E8862FA6
S113138070E060E02AF09A95660F771F881FDAF7FD
S1131390880F9695879597F90895990FBB0B550F6C
S11313A0AA0BE0E8FEEF16161706E807F90770F037
S11313B012161306E407F50760F0BA1754F031F477
S11313C02617370748075907A7951BF4B901CA011F
S11313D0BA2FB69597950895990F0008550FAA0B43
S11313E0E0E8FEEF16161706E807F907C0F0121634
S11313F01306E407F50798F0621B730B840B950B37
S113140039F40A2661F0232B242B252B21F408958B
S11314100A2609F4A140A6958FEF811D811D089528
S113142097F99F6780E870E060E008959FEF80EC93
S11314300895DF93CF931F930F93FF92EF92DF9260
S11314407B018C01689406C0DA2EEF010E94160B12
S1131450FE01E894A5912591359145915591A6F306
S1131460EF010E945B08FE019701A801DA9469F775
S1131470DF90EF90FF900F911F91CF91DF9108952E
S113148000240A941616170618060906089500245F
S11314900A9412161306140605060895092E0394D9
S11314A0000C11F4882352F0BB0F40F4BF2B11F44D
S11314B060FF04C06F5F7F4F8F4F9F4F089557FDAC
S11314C09058440F551F59F05F3F71F04795880FAE
S11314D097FB991F61F09F3F79F087950895121645
S11314E013061406551FF2CF4695F1DF08C01616F1
S11314F017061806991FF1CF8695710561050894A2
S11315000895E894BB2766277727CB0197F90895B8
S11315100E94EC0908F48FEF08959B01AC0160E090
S113152070E080E89FE30C94B5080C94100A0C94C6
S1131530780B0E94670AD8F39923C9F3940F511DBD
S1131540A3F39150504094F059F0882332F0660F81
S1131550771F881F91505040C1F79E3F51052CF7CB
S1131560880F911D9695879597F908955F3FACF084
S1131570983E9CF0BB27869577956795B79508F4B8
S1131580B1609395C1F7BB0F58F711F460FFE8CF32
S11315906F5F7F4F8F4F9F4FE3CF0C94820AFA0106
S11315A0DC01AA0FBB1F9B01AC01BF5728F4222703
S11315B033274427507820C0B75190F4AB2F002430
S11315C0469537952795011CA395D2F3002071F019
S11315D0220F331F441FB395DAF30ED00C94430843
S11315E061307105A0E88A07B94630F49B01AC016B
S11315F06627772788279078309621F020833183D7
S11316004283538308950E94160B0C944E0A0E9441
S1131610400A38F00E94470A20F0952311F00C94F8
S1131620100A0C94160A11240C94820A0E945F0A70
S113163070F3959FC1F3950F50E0551F629FF00121
S1131640729FBB27F00DB11D639FAA27F00DB11D3A
S1131650AA1F649F6627B00DA11D661F829F2227C3
S1131660B00DA11D621F739FB00DA11D621F839F4A
S1131670A00D611D221F749F3327A00D611D231F20
S1131680849F600D211D822F762F6A2F11249F576E
S113169050409AF0F1F088234AF0EE0FFF1FBB1F71
S11316A0661F771F881F91505040A9F79E3F510530
S11316B080F00C94100A0C94820A5F3FE4F3983E85
S11316C0D4F3869577956795B795F795E7959F5FDA
S11316D0C1F7FE2B880F911D9695879597F908956C
S11316E09F930E94880B0F9007FCEE5F0C94B10B44
S11316F09F3F31F0915020F4879577956795B79582
S1131700880F911D9695879597F908950C94160A5C
S11317100E94670AD8F3E894E0E0BB279F57F0F0F3
S11317202AED3FE049EC06C0EE0FBB0F661F771FA2
S1131730881F28F0B23A62077307840728F0B25A68
S1131740620B730B840BE3959A9572F7803830F42F
S11317509A95BB0F661F771F881FD2F790480C9489
S11317607A0BEF93E0FF07C0A2EA2AED3FE049ECD1
S11317705FEB0E945B080E944E0A0F90039401FCE9
S11317809058E4EAF0E00C94C50B9F938F937F93F9
S11317906F93FF93EF939B01AC010E94030BEF91B6
S11317A0FF910E94190A2F913F914F915F910C94E0
S11317B0030BA1E21A2EAA1BBB1BFD010DC0AA1F1D
S11317C0BB1FEE1FFF1FA217B307E407F50720F0A6
S11317D0A21BB30BE40BF50B661F771F881F991F21
S11317E01A9469F760957095809590959B01AC016A
S10D17F0BD01CF010895F894FFCF66
S11317FA74696D650041786F6E0050756C7365731A
S113180A0044310044320044330044340044350077
S113181A4C45443120636F6C6F72004C454432204E
S113182A636F6C6F7200506F74656E7469616C00DB
S113183A00000002000000001A0200000000030178
S109184A060907F4010089
S9030000FC
