:100000000C9461000C947E000C947E000C947E0095
:100010000C947E000C947E000C947C050C947E0065
:100020000C947E000C947E000C947E000C947E0058
:100030000C947E000C947E000C947E000C947E0048
:100040000C947E000C947E000C947E000C947E0038
:100050000C947E000C947E000C947E000C947E0028
:100060000C947E000C947E000C947E000C947E0018
:100070000C947E000C947E000C947E000763423644
:10008000B79BD8A71A39685618AEBAAB558C1D3C29
:10009000B7CC5763BD6DEDFD753EF6177231BF00ED
:1000A0000000803F05A84CCDB2D44EB93836A90225
:1000B0000C50B9918688083CA6AAAA2ABE00000066
:1000C000803F11241FBECFEFCDBFDFE3DEBF18E3BB
:1000D000A0E0B8E3EEE9FBE102C005900D92A63185
:1000E000B107D9F728E3A6E1B8E301C01D92A23712
:1000F000B207E1F70E9483000C94B40D0C94000049
:100100000E94B20108950E948000E0EAF0E0808140
:10011000836080830E94C6090E94CF090E94AA05BD
:100120008823E1F30E941A040E94DF038823B9F0B8
:100130000E94E203882349F064E080E00E940E06FA
:1001400060E081E00E940E061AC043E062E081E0B8
:100150000E94C90560E080E00E940E0610C081E0A8
:100160000E94C10580E00E94C105811104C046E0E3
:1001700061E00E94C9050E9479030E94EB080E9479
:1001800042060E94540480E00E94A7050E94EC09E8
:10019000AB01BC018CE69BE90E945F040E946204F3
:1001A000BDCFE0E4F6E080E1828385E0808380E0FB
:1001B000089580914B0681700895E0E4F6E086830F
:1001C00081E080870E94D9008823E1F3E0E4F6E033
:1001D00020893189938591609387C901089580E0D2
:1001E0000895E0ECF1E028EA208798E097838BEB14
:1001F000868339E0358324879387828781E48083EF
:1002000080E0089547E068ED8CE790E00E94E1010E
:1002100041E068ED81E690E00E94E10180E0089510
:10022000789480E0089581E48093A00680E00895AA
:1002300081E08093A00680E00895E0EAF6E0808106
:10024000816080830895E0EAF6E080818E7F80837C
:1002500008958093A1060895E0E1F4E0808188602C
:100260008193E83184E0F807C9F7E0E3F4E08081A6
:1002700088608193E83384E0F807C9F7E0E5F4E0AB
:10028000808188608193E83584E0F807C9F7089594
:10029000E5E1F4E08081887F846080838081877FCE
:1002A0008083E7E1F4E08081887F846080838081BF
:1002B000877F8083E0E5F4E08081887F84608083AD
:1002C0008081877F8083E1E5F4E08081887F84609E
:1002D00080838081877F8083E3E5F4E08081887F6D
:1002E000846080838081877F80830E94D10008950D
:1002F0002398E3E3F4E08081877F8083229A2A9821
:100300000E9419020895259A2D98E0E0F2E082817A
:10031000846082830E9409020895249A2C98E0E068
:10032000F2E08081806180830E94F100089502984C
:10033000E2E1F4E08081877F8083019A0998039A43
:100340000B98049A0C980E9401020895E6E1F4E0EB
:100350008081887F846080838081877F80830E9402
:10036000130108950E942C01219A29982698E6E30A
:10037000F4E08081877F80832798E7E3F4E0808141
:10038000877F80834298E2E5F4E080818860808303
:10039000459A4D9A0E9402010E94E5010E9448017F
:1003A0000E9478010E9483010E948D010E949701A2
:1003B0000E94A6010E9410010E94FF010E94EF000E
:1003C0000895FC0164BF40830895E0E4F1E0818179
:1003D0008111FDCFE0E4F1E080E290E08087918739
:1003E00021E820838287938781E0858382838189C6
:1003F0008111FDCF81E08093500180E0089580E07D
:100400000895E0E2F8E083E2808384E0818380E085
:100410000895E0E0FAE084E090E084A795A783E403
:10042000818384E0828387E090E086A397A380E0C5
:100430000895E0E0F8E08BE591E08087918780EC1B
:10044000868380E098E380936E3890936F3880E0E5
:100450000895E0E0F8E0948195FFFDCF80930208D5
:1004600008950E94290280E090E0089520911638B6
:1004700030911738232B51F0E8E1F8E321E030E028
:10048000B90141915191452B81F402C060E070E0C7
:10049000660F771FFB01EA5EF74C808391838091A2
:1004A0002A388F5F80932A3808952F5F3F4F2A3074
:1004B000310531F7089581E090912B38911101C0F9
:1004C00080E0089580912A3808954091163850911F
:1004D0001738E8E1F8E380E091E02191319142178B
:1004E000530710F4892FA9019F5F9A30B1F708953F
:1004F0004091163850911738E8E1F8E380E091E038
:10050000219131912417350728F42115310511F077
:10051000892FA9019F5F9A3099F708950E94780268
:10052000E82FF0E0EE0FFF1FEA5EF74C80810895A0
:1005300080E090E00E94290110922B380895CF931B
:10054000C0912A38CC23C1F00E94650290E0FC01E2
:10055000EE0FFF1FEA5EF74C20813181232B71F0F3
:10056000880F991FFC01EA5EF74C10821182C1507E
:10057000C0932A3881E003C080E001C080E0CF91C1
:100580000895CF92DF92EF92FF926B017C0120E001
:1005900030E048EC51E40E94410C882384F18091C2
:1005A0002A388823B1F00E946502E82FF0E0EE0FB0
:1005B000FF1FEA5EF74C808191810A96853691058E
:1005C00018F00E94360209C084E690E00E943602CC
:1005D00004C084E690E00E94360220E030E048EC5F
:1005E00051E4C701B6010E94F5096B017C0120E0CE
:1005F00030E048EC51E40E94410C882384F620E06E
:1006000030E040EA51ECC701B6010E94620A88233B
:100610000CF046C080912A38882311F10E949F0275
:100620008823F1F120E030E048EC51E4C701B60145
:100630000E94F6096B017C0133C080819181009793
:1006400039F0019780839183892B11F4415051E057
:100650003296E217F30789F750932C3840932A38E3
:1006600080912C38882391F010922C388CEE90E0F9
:100670000E9429018CEE80932B3845E066E081E0F2
:100680000E94C90581E080932D3815C080912D38D6
:10069000882319F010922D380EC00E9498020BC0CA
:1006A00040912A384423E1F250912C38E6E1F8E3F6
:1006B0002AE238E3C2CF60912B3881E79BE90E94A0
:1006C000600460912A3886E79BE90E946004C701B4
:1006D000B601FF90EF90DF90CF900895379B05C053
:1006E00090912D3881E0892702C080E090E08170F0
:1006F00008950F931F93CF93DF93109233388AB1ED
:10070000D1E0C82FC47082FDD0E0C11136C0809105
:10071000343881110EC00E94EC0960932E3870931A
:100720002F38809330389093313880913438882333
:10073000A1F10E94EC0900912E3810912F382091E0
:10074000303830913138DC01CB01801B910BA20B8A
:10075000B30B813D9740A105B10578F00E94750962
:100760000E94EC0960932E3870932F3880933038B4
:100770009093313881E080933238CC2371F08091AE
:100780003438882351F080913238811104C081E0DF
:100790008093333802C010923238D0933438DF91CE
:1007A000CF911F910F91089520913338222331F07A
:1007B00020E030E040ED51E40E94F6090895809178
:1007C0005938089586B186FB882780F908950E94DC
:1007D00018010E94230108950E9413010E941D0127
:1007E000089580915938882389F043E062E081E0E0
:1007F0000E94C90560E080E00E940E060E949802F7
:100800000E94E70380E00E948809089560E081E08B
:100810000E940E0660E080E00E940E060E94EC033B
:10082000089590915938981721F0809359380E9473
:10083000F1030895CF9380915938882321F00E94C5
:100840008304C82F0BC00E948304811103C00E943F
:100850006E0302C081E090E0C82FC17080915938CA
:1008600081110DC0CC23D1F0809135388F5F8B3052
:1008700090F01092353881E00E94110413C08C2F43
:100880000E941104C1110EC080913538882351F0A7
:100890001092353807C08093353804C08C2F0E94E1
:1008A0001104F2CFCF91089580915938882319F01F
:1008B0004D98299A08954D9A299808950895089574
:1008C000089508950895EF92FF920F931F93CF9389
:1008D000DF93CEE0D8E300E418E30F2EF3E1EF2E30
:1008E000F8E3FF2EF02D89910E94DD00F80181933D
:1008F0008F01CE15DF05B9F7DF91CF911F910F91D1
:10090000FF90EF900895CF93DF930E946304EBE391
:10091000F8E3C6E3D8E3A0E4B8E320E438E380E0FA
:1009200047E0908199939D919F3F11F4408381E02E
:100930003196E217F307A9F7DF91CF910895AF92AF
:10094000BF92DF92EF92FF920F931F93CF93DF93AB
:10095000C0E4D8E368818DE79BE90E946004698167
:1009600080E89BE90E9460046A8183E89BE90E9419
:1009700060046B8186E89BE90E9460046C8189E8D1
:100980009BE90E946004EBE3F8E326E338E35E01B1
:1009900040E458E3DD24D3940F2EF3E0EF2EF02D46
:1009A0006894FF24F1F804E016E065E077E0DF01E9
:1009B0009081E90199939E01E50189915E018F3F44
:1009C00011F4708319C08B3D10F0608315C0863B15
:1009D00010F0108311C0823910F000830DC08536ED
:1009E00010F0F08209C08A3410F0E08205C0853230
:1009F00010F0D08201C010828C91981301C01C921B
:100A00003196E417F50799F6DF91CF911F910F9179
:100A1000FF90EF90DF90BF90AF900895EF92FF921C
:100A20000F931F93CF93DF930E945B020E949F045A
:100A3000CBE3D8E30F2EF0E4EF2EF8E3FF2EF02DFA
:100A400000E010E089918330F1F028F4813031F139
:100A5000823009F12AC0853059F068F0863029F5D6
:100A60000C5C1F4F45E063E081E00E94C9051DC09A
:100A7000075E1F4F1AC00C5E1F4F45E065E081E026
:100A80000E94C90512C00253110945E063E081E0EC
:100A90000E94C9050AC00951110907C00451110972
:100AA00045E065E081E00E94C905CE15DF0551F6FD
:100AB000B8018CE89BE90E945E04C801DF91CF91E8
:100AC0001F910F91FF90EF900895CF92DF92EF92D8
:100AD000FF926B017C010E940E05BC01990F880BEF
:100AE000990B0E944B0BA70196010E94F609FF90FB
:100AF000EF90DF90CF9008951F920F920FB60F9254
:100B000011242F933F934F935F936F937F938F9312
:100B10009F93AF93BF93CF93EF93FF93C1E0C093A5
:100B200045380E94D809C0934301FF91EF91CF91BE
:100B3000BF91AF919F918F917F916F915F914F91F5
:100B40003F912F910F900FBE0F901F90189580939B
:100B500045380895809145380895909123089093E1
:100B60002308E0E0FAE010A211A291E090838093C4
:100B70002408E0E2F8E083818823ECF71092000A71
:100B80000895E82FF0E0EE0FFF1FEC59F74C80813D
:100B90000895CF93DF93C82FD0E0FE01EE0FFF1F23
:100BA000EC59F74C2181253061F0CE01880F991F57
:100BB000FC01E859F74CDC01AC59B74C8C918083AF
:100BC0002183FE01EE0FFF1FEC59F74C6083418338
:100BD000453009F50E948E02682F70E080E090E0B9
:100BE0000E944B0B20E030E040E251E40E94620A98
:100BF00088234CF4CC0FDD1FC65AD74C8EEB90E007
:100C00008883998308C0CC0FDD1FC65AD74C88EC67
:100C100090E088839983DF91CF91089540E00E940E
:100C2000C9050895DC01FB019C918081981320C0C7
:100C300011969C911197818198131CC012969C91DA
:100C400012978281981318C013969C9113978381F1
:100C5000981314C014969C9114978481981310C013
:100C600081E015962C919581291759F080E008951F
:100C700080E0089580E0089580E0089580E0089580
:100C800080E008952F923F924F925F926F927F92F1
:100C90008F929F92AF92BF92CF92DF92EF92FF928C
:100CA0000F931F93CF93DF93CDB7DEB7AB97CDBF35
:100CB000DEBF0E94EC096B017C010E94490B23E618
:100CC00034E14DE154E40E94670A0E94290D20E0BE
:100CD00030E040E05FE30E94BC0C20E030E040E008
:100CE0005FE30E94F609688779878A879B87C70137
:100CF000B60128EE33E040E050E00E94920D21E082
:100D00002F83643F71408105910508F01F82C70160
:100D1000B60120E137E240E050E00E94920D0E94CF
:100D2000490B20E030E048E453E40E94620A182FA7
:100D3000111F1127111F0E94E2086C877D878E8783
:100D40009F870E946202482F50E04E8F5F8F59E1CB
:100D5000859FC00111240F2EF4E62F2EF8E33F2EBD
:100D6000F02DDE0111965D010F2EF8E64F2EF8E30F
:100D70005F2EF02D0F2EFAE56F2EF8E37F2EF02D6B
:100D80000F2EF8E68F2EF8E39F2EF02D6D011C8AB2
:100D90001D8A212F30E040E050E02E8B3F8B488FA2
:100DA000598F9C0140E050E02A8F3B8F4C8F5D8F24
:100DB000F1018081843079F028F4823041F0833071
:100DC00071F019C0853079F0863089F014C010E0D8
:100DD00000E069E113C010E009E160E00FC019E133
:100DE00000E060E00BC010E009E169E107C019E133
:100DF00009E169E103C010E000E060E07601D6019E
:100E00006C9311960C93119712961C9381818330E9
:100E100009F452C028F4813061F08230D9F183C1E5
:100E2000853009F4F7C008F478C0863009F419C198
:100E30007AC170E080E090E00E944B0B2DEC3CEC1E
:100E40004CEC5DE30E94BC0C0E941A0BF60160831F
:100E5000602F70E080E090E00E944B0B2DEC3CECAA
:100E60004CEC5DE30E94BC0C0E941A0BD60111965B
:100E70006C93612F70E080E090E00E944B0B2DECB2
:100E80003CEC4CEC5DE30E94BC0C0E941A0BF6019A
:100E9000628349C1FF81F69F602D1124D6016C93B6
:100EA000F09F002D112411960C931197F19F102D96
:100EB000112412961C9337C170E080E090E00E94EC
:100EC0004B0B288539854A855B850E94BC0C0E94A6
:100ED0001A0BF6016083602F70E080E090E00E94C2
:100EE0004B0B288539854A855B850E94BC0C0E9486
:100EF0001A0BD60111966C93612F70E080E090E0A0
:100F00000E944B0B288539854A855B850E94BC0C65
:100F10000E941A0BF601628306C170E080E090E047
:100F20000E94490B9B01AC0160E070E080E89FE308
:100F30000E94860B68A379A38AA39BA36E897F89ED
:100F4000888D998D0E944B0B688B798B8A8B9B8B3C
:100F5000602F70E080E090E00E94490B9B01AC01A3
:100F600060E070E080E89FE30E94860B6CA37DA3A5
:100F70008EA39FA3612F70E080E090E00E94490B58
:100F80009B01AC0160E070E080E89FE30E94860B6B
:100F900068A779A78AA79BA723E333E343EA50E432
:100FA00068A179A18AA19BA10E94BC0C28893989DA
:100FB0004A895B890E94BC0C0E941A0BD6016C9373
:100FC00023E333E343EA50E46CA17DA18EA19FA10A
:100FD0000E94BC0C288939894A895B890E94BC0C13
:100FE0000E941A0BF601618323E333E343EA50E4E2
:100FF00068A579A58AA59BA50E94BC0C288939897A
:101000004A895B890E94BC0C0E941A0BD601129679
:101010006C9389C0688A798AD3010D911C9101155E
:101020001105C1F0B80180E090E00E94490B20E07A
:1010300030E04EE353E40E94410C181624F4F6010C
:1010400010821182128201501109A889B9890D9369
:101050001C9369C0D2018C91808311968C918183FD
:1010600062C020E030E0A9016C857D858E859F857A
:101070000E94410C181624F0EE8DFF8DEF2B11F11C
:101080006A8D7B8D8C8D9D8D0E94490B2C853D85B5
:101090004E855F850E94F60920E030E04CEC51E47B
:1010A0000E94BC0C20E030E048EC51E40E94670A4A
:1010B00020E030E04FE753E40E94860B0E941A0BB9
:1010C0006C8B28C06C857D858E859F850E94130B57
:1010D0009B01772324F422273327261B370BB901E2
:1010E000330F880B990B0E944B0B20E030E04CEC47
:1010F00051E40E94BC0C20E030E048EC51E40E9436
:10110000670A20E030E04FE753E40E94860B0E941C
:101110001A0B6D8BED89D701EC93FC891196FC932A
:10112000119712961C9222E0220E311C33E0C30E5E
:10113000D11C42E0440E511C52E0650E711C281473
:10114000390409F035CE6EE578E3CE0101960E94B0
:101150001206811121C00EE518E37E0187E0E80E3A
:10116000F11CD50111968C910E94AD05F50180818D
:101170000E94AD05D50112968C910E94AD05F50136
:1011800081919191A1915F01F80181939193A19334
:101190008F01AE14BF0429F7AB96CDBFDEBFDF9140
:1011A000CF911F910F91FF90EF90DF90CF90BF9064
:1011B000AF909F908F907F906F905F904F903F90F7
:1011C0002F90089560914A3870914B3880914C3837
:1011D00090914D380895CF92DF92EF92FF920E9446
:1011E000EC0980914638681B70E080E090E00E9436
:1011F000490B20E030E048EC52E40E94670A905826
:101200000E94E10A20914A3830914B3840914C3885
:1012100050914D380E94BC0C6B017C019F772DECE6
:101220003CEC4CEC5DE30E94620A88234CF0C092D7
:101230004A38D0924B38E0924C38F0924D3808C082
:1012400010924A3810924B3810924C3810924D3808
:101250000E94EC0960934638709347388093483871
:101260009093493860914A3870914B3880914C384E
:1012700090914D380E94650560934A3870934B38C1
:1012800080934C3890934D380E94D40360934A3831
:1012900070934B3880934C3890934D380E948E0950
:1012A000AB01BC0140934A3850934B3860934C38A3
:1012B00070934D3884E99BE90E94610460914A383B
:1012C00070914B3880914C3890914D380E94C102FA
:1012D00060934A3870934B3880934C3890934D38D4
:1012E000FF90EF90DF90CF9008959091543881E077
:1012F000892780935438882331F041E063E081E00E
:101300000E94C905089560E081E00E940E060895DC
:101310009091543898130E9475090895CF92DF92E6
:10132000EF92FF926B017C0180915438882339F150
:101330000E94EC092091503830915138621B730B98
:1013400060934E3870934F388091133890911438D1
:1013500068177907A0F020E030E040ED51E4C701C4
:10136000B6010E94F6096B017C010E94EC096093B2
:101370005038709351388093523890935338C70146
:10138000B601FF90EF90DF90CF900895E0E5F0E098
:101390008081897F80838081816080830895F89433
:1013A00078948895E0E5F0E080818E7F80830895D1
:1013B0008091553890915638A0915738B09158384F
:1013C0000196A11DB11D8093553890935638A09376
:1013D0005738B09358380895609155387091563801
:1013E000809157389091583808955058BB27AA27B4
:1013F0000E940D0A0C94070C0E94F90B38F00E9411
:10140000000C20F039F49F3F19F426F40C94CF0B14
:101410000EF4E095E7FB0C94C90BE92F0E94180C21
:1014200058F3BA17620773078407950720F079F419
:10143000A6F50C943A0C0EF4E0950B2EBA2FA02DC5
:101440000B01B90190010C01CA01A0011124FF2771
:10145000591B99F0593F50F4503E68F11A16F0406C
:10146000A22F232F342F4427585FF3CF469537956B
:101470002795A795F0405395C9F77EF41F16BA0B30
:10148000620B730B840BBAF09150A1F0FF0FBB1FDE
:10149000661F771F881FC2F70EC0BA0F621F731F27
:1014A000841F48F4879577956795B795F7959E3F84
:1014B00008F0B0CF9395880F08F09927EE0F979515
:1014C000879508950E94A50B08F481E008950E9475
:1014D0007B0A0C94070C0E94000C58F00E94F90B38
:1014E00040F029F45F3F29F00C94C90B51110C9482
:1014F0003B0C0C94CF0B0E94180C68F39923B1F3AA
:10150000552391F3951B550BBB27AA276217730729
:10151000840738F09F5F5F4F220F331F441FAA1FBD
:10152000A9F335D00E2E3AF0E0E832D09150504079
:10153000E695001CCAF72BD0FE2F29D0660F771F27
:10154000881FBB1F261737074807AB07B0E809F00D
:10155000BB0B802DBF01FF2793585F4F3AF09E3F92
:10156000510578F00C94C90B0C943B0C5F3FE4F3ED
:10157000983ED4F3869577956795B795F7959F5FD5
:10158000C9F7880F911D9695879597F90895E1E021
:10159000660F771F881FBB1F621773078407BA0780
:1015A00020F0621B730B840BBA0BEE1F88F7E095DB
:1015B000089529F416F00C94C90B0C943A0C0C9471
:1015C000CF0B0E94200CA8F39638A0F707F80F92D3
:1015D000E8942BE33AEA48EB5FE70E94D20C0F92C3
:1015E0000F920F924DB75EB70F920E94880CECE7F6
:1015F000F0E00E94D20B4F915F91EF91FF91E59542
:10160000EE1FFF1F49F0FE57E0684427EE0F441F0E
:10161000FA95E1F74195550B0E94520C0F9007FE89
:101620000C94460C08950E941A0B6894B1110C9406
:101630003B0C08950E94200C88F09F5798F0B92F1A
:101640009927B751B0F0E1F0660F771F881F991FF7
:101650001AF0BA95C9F714C0B13091F00E943A0C53
:10166000B1E008950C943A0C672F782F8827B85F63
:1016700039F0B93FCCF3869577956795B395D9F74F
:101680003EF490958095709561957F4F8F4F9F4F59
:101690000895E89409C097FB3EF490958095709565
:1016A00061957F4F8F4F9F4F9923A9F0F92F96E9AE
:1016B000BB279395F695879577956795B795F11123
:1016C000F8CFFAF4BB0F11F460FF1BC06F5F7F4FC0
:1016D0008F4F9F4F16C0882311F096E911C07723D2
:1016E00021F09EE8872F762F05C0662371F096E8DB
:1016F000862F70E060E02AF09A95660F771F881FAA
:10170000DAF7880F9695879597F90895990FBB0B8F
:10171000550FAA0BE0E8FEEF16161706E807F907C3
:1017200070F012161306E407F50760F0BA1754F0CC
:1017300031F42617370748075907A7951BF4B90155
:10174000CA01BA2FB69597950895990F0008550FBD
:10175000AA0BE0E8FEEF16161706E807F907C0F037
:1017600012161306E407F50798F0621B730B840B3F
:10177000950B39F40A2661F0232B242B252B21F419
:1017800008950A2609F4A140A6958FEF811D811DB9
:10179000089597F99F6780E870E060E008959FEFF3
:1017A00080EC0895DF93CF931F930F93FF92EF92F6
:1017B000DF927B018C01689406C0DA2EEF010E9453
:1017C000CF0CFE01E894A591259135914591559155
:1017D000A6F3EF010E940D0AFE019701A801DA9419
:1017E00069F7DF90EF90FF900F911F91CF91DF91FC
:1017F000089500240A941616170618060906089577
:1018000000240A9412161306140605060895092EDC
:101810000394000C11F4882352F0BB0F40F4BF2B4B
:1018200011F460FF04C06F5F7F4F8F4F9F4F08958B
:1018300057FD9058440F551F59F05F3F71F0479581
:10184000880F97FB991F61F09F3F79F08795089566
:10185000121613061406551FF2CF4695F1DF08C085
:10186000161617061806991FF1CF869571056105A2
:1018700008940895E894BB2766277727CB0197F94A
:1018800008950E94A50B08F48FEF08959B01AC0109
:1018900060E070E080E89FE30C94670A0C94C90B49
:1018A0000C94310D0E94200CD8F39923C9F3940FA6
:1018B000511DA3F39150504094F059F0882332F019
:1018C000660F771F881F91505040C1F79E3F51050A
:1018D0002CF7880F911D9695879597F908955F3F8E
:1018E000ACF0983E9CF0BB27869577956795B795A9
:1018F00008F4B1609395C1F7BB0F58F711F460FF7E
:10190000E8CF6F5F7F4F8F4F9F4FE3CF0C943B0C1F
:10191000FA01DC01AA0FBB1F9B01AC01BF5728F4E1
:10192000222733274427507820C0B75190F4AB2F9B
:101930000024469537952795011CA395D2F30020E6
:1019400071F0220F331F441FB395DAF30ED00C94BD
:10195000F50961307105A0E88A07B94630F49B01AA
:10196000AC016627772788279078309621F020836E
:1019700031834283538308950E94CF0C0C94070C4B
:101980000E94F90B38F00E94000C20F0952311F012
:101990000C94C90B0C94CF0B11240C943B0C0E949B
:1019A000180C70F3959FC1F3950F50E0551F629F7F
:1019B000F001729FBB27F00DB11D639FAA27F00DA8
:1019C000B11DAA1F649F6627B00DA11D661F829FCF
:1019D0002227B00DA11D621F739FB00DA11D621FB4
:1019E000839FA00D611D221F749F3327A00D611DD1
:1019F000231F849F600D211D822F762F6A2F1124B3
:101A00009F5750409AF0F1F088234AF0EE0FFF1FE5
:101A1000BB1F661F771F881F91505040A9F79E3F3C
:101A2000510580F00C94C90B0C943B0C5F3FE4F320
:101A3000983ED4F3869577956795B795F795E79592
:101A40009F5FC1F7FE2B880F911D9695879597F99B
:101A500008959F930E94410D0F9007FCEE5F0C9438
:101A60006A0D9F3F31F0915020F4879577956795E7
:101A7000B795880F911D9695879597F908950C94C1
:101A8000CF0B0E94200CD8F3E894E0E0BB279F57CF
:101A9000F0F02AED3FE049EC06C0EE0FBB0F661FE9
:101AA000771F881F28F0B23A62077307840728F06F
:101AB000B25A620B730B840BE3959A9572F78038D8
:101AC00030F49A95BB0F661F771F881FD2F7904896
:101AD0000C94330DEF93E0FF07C0A2EA2AED3FE03C
:101AE00049EC5FEB0E940D0A0E94070C0F900394D3
:101AF00001FC9058E4EAF0E00C947E0D9F938F93E4
:101B00007F936F93FF93EF939B01AC010E94BC0CFA
:101B1000EF91FF910E94D20B2F913F914F915F91D6
:101B20000C94BC0CA1E21A2EAA1BBB1BFD010DC01C
:101B3000AA1FBB1FEE1FFF1FA217B307E407F5077D
:101B400020F0A21BB30BE40BF50B661F771F881F59
:101B5000991F1A9469F760957095809590959B01EF
:0C1B6000AC01BD01CF010895F894FFCF47
:101B6C0074696D650041786F6E0050756C736573A8
:101B7C000044310044320044330044340044350006
:101B8C0052657475726E5000506F74656E74696135
:021B9C006C00DB
:101B9E0000000002000000003102000000000301FE
:061BAE00060907F4010026
:00000001FF
