S01A0000486A65726E656279676765736574745F56342E73726563F7
S11300000C94DE000C94FB000C94FB000C94FB009D
S11300100C94FB000C94FB000C941C060C94FB0049
S11300200C94FB000C94FB000C94FB000C94FB0060
S11300300C94FB000C94FB000C94FB000C94FB0050
S11300400C94FB000C94FB000C94FB000C94FB0040
S11300500C94FB000C94FB000C94FB000C94FB0030
S11300600C94FB000C94FB000C94FB000C94FB0020
S11300700C94FB000C94FB000C94FB0007634236C9
S1130080B79BD8A71A39685618AEBAAB558C1D3C25
S1130090B7CC5763BD6DEDFD753EF6177231BF00E9
S11300A00000803F05A84CCDB2D44EB93836A90221
S11300B00C50B9918688083CA6AAAA2ABE00000062
S11300C0803F00407A10F35A00A0724E18090010C5
S11300D0A5D4E80000E87648170000E40B540200B9
S11300E000CA9A3B000000E1F505000080969800E4
S11300F0000040420F000000A0860100000010270D
S113010000000000E803000000006400000000009C
S11301100A00000000000100000000002C76D888CE
S1130120DC674F0823DFC1DFAE59E1B1B796E5E3E1
S1130130E453C63AE651997696E8E6C28426EB89FA
S11301408C9B62ED407C6FFCEFBC9C9F40F2BAA597
S11301506FA5F490055A2AF75C936B6CF9676DC12F
S11301601BFCE0E40D47FEF520E6B500D0ED902E33
S11301700300943577050080841E080000204E0A91
S1130180000000C80C333333330F986E12831141CF
S1130190EF8D2114893BE65516CFFEE6DB18D1849A
S11301A04B381BF77C1D901DA4BBE42420328472C1
S11301B05E228100C9F124ECA1E53D2711241FBE74
S11301C0CFEFCDBFDFE3DEBF18E3A0E0B8E3E6E89E
S11301D0F5E202C005900D92A631B107D9F728E3E4
S11301E0A6E1B8E301C01D92AB36B207E1F70E9465
S11301F000010C948C120C9400000E9422020895B9
S11302000E94FD00E0EAF0E08081836080830E9428
S11302104A068823E1F30E946F040E94370488236E
S1130220B9F00E943A04882349F063E080E00E9418
S1130230610660E081E00E94610611C042E061E075
S113024081E00E94720660E080E00E94610607C0BF
S113025081E00E946A060E94D8030E9494080E94CA
S1130260B2060E94950480E00E9447060E9471092C
S1130270AB01BC018CE195EA0E949D040E94F60446
S1130280C6CFE0E4F6E080E1828385E0808380E00D
S1130290089580914B0681700895E0E4F6E086832A
S11302A081E080870E9449018823E1F3E0E4F6E0DD
S11302B020893189938591609387C901089580E0ED
S11302C00895E0ECF1E028EA208798E097838BEB2F
S11302D0868339E0358324879387828781E480830A
S11302E080E0089547E068ED8CE790E00E944F02BB
S11302F041E068ED81E690E00E944F0280E00895BD
S1130300789480E0089581E48093A00680E00895C5
S113031081E08093A00680E00895E0EAF6E0808121
S1130320816080830895E0EAF6E080818E7F808397
S113033008958093A1060895E0E1F4E08081886047
S11303408193E83184E0F807C9F7E0E3F4E08081C1
S113035088608193E83384E0F807C9F7E0E5F4E0C6
S1130360808188608193E83584E0F807C9F70895AF
S1130370E5E1F4E08081887F846080838081877FE9
S11303808083E7E1F4E08081887F846080838081DA
S1130390877F8083E0E5F4E08081887F84608083C8
S11303A08081877F8083E1E5F4E08081887F8460B9
S11303B080838081877F8083E3E5F4E08081887F88
S11303C0846080838081877F80830E9441010895B7
S11303D02398E3E3F4E08081877F8083229A2A983C
S11303E00E9489020895259A2D98E0E0F2E0828126
S11303F0846082830E9479020895249A2C98E0E014
S1130400F2E08081806180830E94610108950298F6
S1130410E2E1F4E08081877F8083019A0998039A5E
S11304200B98049A0C980E9471020895E6E1F4E096
S11304308081887F846080838081877F80830E941D
S1130440830108950E949C012698E6E3F4E08081EC
S1130450877F80832798E7E3F4E08081877F808328
S11304604298E2E5F4E0808188608083459A4D9A61
S11304700E9472010E9453020E94B8010E94E80186
S11304800E94F3010E94FD010E9407020E941602CD
S11304900E9480010E946F020E945F010895FC0186
S11304A064BF40830895E0E4F1E081818111FDCFD0
S11304B0E0E4F1E080E290E08087918781E8808346
S11304C080E892E08287938781E0858382838189B3
S11304D08111FDCF81E08093500180E0089580E098
S11304E00895E0E2F8E083E2808384E0818380E0A1
S11304F00895E0E0FAE084E090E084A795A783E41F
S1130500818384E0828387E090E086A397A380E0E0
S11305100895E0E0F8E08BE591E08087918780EC36
S1130520868380E098E3809367389093683880E00E
S11305300895E0E0F8E0948195FFFDCF80930208F0
S113054008950E94990280E090E008952091163861
S113055030911738232B51F0E8E1F8E321E030E043
S1130560B90141915191452B81F402C060E070E0E2
S1130570660F771FFB01EA5EF74C808391838091BD
S11305802A388F5F80932A3808952F5F3F4F2A308F
S1130590310531F7089581E090912B38911101C014
S11305A080E008954091163850911738E8E1F8E357
S11305B080E091E0219131914217530710F4892F83
S11305C0A9019F5F9A30B1F7089580E090E00E94FE
S11305D0990110922B380895CF93C0912A38CC23D7
S11305E0C9F00E94D20290E0FC01EE0FFF1FEA5E08
S11305F0F74C208131812D33310570F0880F991F1C
S1130600FC01EA5EF74C10821182C150C0932A3873
S113061081E003C080E001C080E0CF910895CF92D3
S1130620DF92EF92FF926B017C0120E030E048EC16
S113063051E40E94BF0B8823BCF180912A3888239F
S1130640B1F00E94D202E82FF0E0EE0FFF1FEA5E45
S1130650F74C808191810A968536910518F00E94A5
S1130660A60209C084E690E00E94A60204C084E6C3
S113067090E00E94A60220E030E048EC51E4C7017B
S1130680B6010E947A096B017C0144E063E080E0DA
S11306900E94720620E030E048EC51E4C701B60144
S11306A00E94BF0B88234CF620E030E048EC51EC6C
S11306B0C701B6010E94E70988230CF046C0809167
S11306C02A38882311F10E94EC028823F1F120E0FA
S11306D030E048EC51E4C701B6010E947B096B018C
S11306E07C0133C080819181009739F00197808328
S11306F09183892B11F4415051E03296E217F307AC
S113070089F750932C3840932A3880912C388823C9
S113071091F010922C3886EE90E00E94990186EEBA
S113072080932B3844E065E081E00E94720681E00A
S113073080932D3815C080912D38882319F010929C
S11307402D380EC00E94E5020BC040912A38442384
S1130750E1F250912C38E6E1F8E32AE238E3C2CF23
S113076060912B3881E295EA0E94AF0466B1661F5E
S11307706627661F86E295EA0E94AF04C701B601A8
S1130780FF90EF90DF90CF90089566B1661F6627C3
S1130790661F86E295EA0E94AF04379B05C09091DC
S11307A02D3881E0892702C080E090E081700895AF
S11307B00F931F93CF93DF93109232388AB1D1E015
S11307C0C82FC47082FDD0E0C11136C08091333887
S11307D081110EC00E94710960932E3870932F38D6
S11307E0809330389093313880913338882369F17D
S11307F00E94710900912E3810912F3820913038C1
S113080030913138601B710B820B930B0E94C70A25
S113081020E030E048EC52E40E94BF0B181664F468
S11308200E941E090E94710960932E3870932F381C
S11308308093303890933138CC2339F08091333819
S1130840882319F081E080933238D0933338DF91D4
S1130850CF911F910F91089520913238222331F0C6
S113086020E030E040ED51E40E947B09089580913E
S11308705838089586B186FB882780F908950E9428
S113088088010E94930108950E9483010E948D01B2
S1130890089580915838882371F042E061E081E046
S11308A00E94720660E080E00E9461060E94E502F8
S11308B00E943F04089560E081E00E94610660E0C8
S11308C080E00E9461060E94440408959091583883
S11308D0981721F0809358380E9449040895809114
S11308E05838882319F00E9436050AC00E9436053C
S11308F0811103C00E94C50302C081E090E08170B1
S113090090915838911110C0882371F08091343837
S11309108F5F8B3018F480933438089510923438F4
S113092081E090E00E9466040895809158388823FD
S113093011F04D9808954D9A08957F936F935F93A6
S11309404F939F938F9385E395EA9F938F930E9490
S1130950520D8DB79EB708968DBF9EBF08951F9206
S11309606F939F938F938EE395EA9F938F930E9447
S1130970520D0F900F900F900F900F900F900895BD
S1130980CF92DF92EF92FF920F931F93CF93DF9357
S1130990CDB7DEB76497CDBFDEBFD82EC92ECB014D
S11309A0BA019E012F5F3F4F7901890121E041E0A7
S11309B00E94320DFF92EF92CF92DF9286E495EA85
S11309C09F938F930E94520D0F900F900F900F9052
S11309D00F900F906496CDBFDEBFDF91CF911F9132
S11309E00F91FF90EF90DF90CF90089585E595EA01
S11309F00E94680D0895EF92FF920F931F93CF9377
S1130A00DF93CEE0D8E30FE318E30F2EF3E1EF2EEC
S1130A10F8E3FF2EF02D89910E944D01F801819396
S1130A208F01CE15DF05B9F7CFE3D8E3688187E5F9
S1130A3095EA0E94AF0469818AE595EA0E94AF04B1
S1130A406A818DE595EA0E94AF046B8180E695EAA0
S1130A500E94AF046C8183E695EA0E94AF04DF91A3
S1130A60CF911F910F91FF90EF900895CF93DF9353
S1130A700E94FB04EAE3F8E3C5E3D8E3AFE3B8E399
S1130A802FE338E380E047E0908199939D91993E6C
S1130A9010F0408381E03196E217F307A9F7DF9164
S1130AA0CF910895AF92BF92DF92EF92FF920F938E
S1130AB01F93CF93DF930E94FB04EAE3F8E325E35B
S1130AC038E3CFE3D8E34FE358E3DD24D3940F2E88
S1130AD0F3E0EF2EF02D6894FF24F1F804E016E023
S1130AE075E067E05F018081D9018D939D01999143
S1130AF0993E10F0608319C0983C10F0708315C0C3
S1130B00973A10F0108311C0953810F000830DC08F
S1130B10943610F0F08209C0933410F0E08205C0DE
S1130B20923210F0D08201C01082D5019C918913B9
S1130B3001C01C923196E417F507A1F6DF91CF911D
S1130B401F910F91FF90EF90DF90BF90AF900895A9
S1130B50EF92FF920F931F93CF93DF930E94CB02E8
S1130B600E945205CAE3D8E30F2EFFE3EF2EF8E309
S1130B70FF2EF02D00E010E08991833019F128F464
S1130B80813081F1823031F134C0853059F090F0F8
S1130B90863079F50C5C1F4F44E063E080E00E94EE
S1130BA0720627C0075E1F4F44E063E080E00E94A6
S1130BB072061FC00C5E1F4F44E063E080E00E9499
S1130BC0720617C00253110944E061E080E00E94FC
S1130BD072060FC00951110944E061E080E00E94EF
S1130BE0720607C00451110944E061E080E00E94EC
S1130BF07206CE15DF0509F0BFCFC801DF91CF9192
S1130C001F910F91FF90EF900895CF92DF92EF9292
S1130C10FF926B017C010E94A805BC01990F880B0F
S1130C20990B0E94C90AA70196010E947B09FF90B3
S1130C30EF90DF90CF9008951F920F920FB60F920E
S1130C4011242F933F934F935F936F937F938F93CD
S1130C509F93AF93BF93CF93EF93FF93C1E0C09360
S1130C6044380E945D09C0934301FF91EF91CF91F5
S1130C70BF91AF919F918F917F916F915F914F91B0
S1130C803F912F910F900FBE0F901F901895809356
S1130C90443808958091443808959091230890939E
S1130CA02308E0E0FAE010A211A291E0908380937F
S1130CB02408E0E2F8E083818823ECF71092000A2C
S1130CC00895E82FF0E0EE0FFF1FEF59F74C608313
S1130CD011820895E82FF0E0EE0FFF1FEF59F74C53
S1130CE08081089590E0FC01EE0FFF1FEF59F74C4F
S1130CF060834183443029F4FC01E75AF74C2AE02D
S1130D0020830895DC01FB019C918081981320C00D
S1130D1011969C911197818198131CC012969C91F5
S1130D2012978281981318C013969C91139783810C
S1130D30981314C014969C9114978481981310C02E
S1130D4081E015962C919581291759F080E008953A
S1130D5080E0089580E0089580E0089580E008959B
S1130D6080E008952F923F924F925F926F927F920C
S1130D708F929F92AF92BF92CF92DF92EF92FF92A7
S1130D800F931F93CF93DF93CDB7DEB76E97CDBF8D
S1130D90DEBF0E9471096B017C010E94C70A22ED2B
S1130DA033E54BEF51E40E94EC090E94A70C20E0CC
S1130DB030E040E05FE30E943A0C20E030E040E0A5
S1130DC05FE30E947B0969877A878B879C87C701C9
S1130DD0B60122E330E040E050E00E94100D0E9492
S1130DE0C70A20E030E048EC51E40E94E709881F7C
S1130DF08827881F8F83C701B60124EF31E040E0C4
S1130E0050E00E94100D0E94C70A20E030E040E24A
S1130E1051E40E94E709881F8827881F01E618E328
S1130E209E012F5F3F4F0F2EF9E54F2EF8E35F2E03
S1130E30F02D0F2EF5E66F2EF8E37F2EF02D19011D
S1130E40882E912CA12CB12C2D873E87DF80F801B0
S1130E508081833079F028F4813041F0823089F048
S1130E6028C08430A9F08530D1F023C0F12CE12CC6
S1130E7069E122C0F12C0F2EF9E1EF2EF02D60E094
S1130E801BC00F2EF9E1FF2EF02DE12C60E014C001
S1130E90F12C0F2EF9E1EF2EF02D69E10DC00F2E8C
S1130EA0F9E1FF2EF02D0F2EF9E1EF2EF02D69E17F
S1130EB003C0F12CE12C60E02F823886D1016C93C1
S1130EC01196EC9211971296FC9281818230D1F0A6
S1130ED018F4813041F0CDC0833009F444C084302B
S1130EE009F4BFC0C6C0D69E602D1124EF81F885D9
S1130EF06083DE9CE02C1124E182DF9CF02C112421
S1130F00F282B7C070E080E090E00E94C90A2985AF
S1130F103A854B855C850E943A0C0E94980AD1015F
S1130F206C936E2D70E080E090E00E94C90A2985E0
S1130F303A854B855C850E943A0C0E94980AF1011F
S1130F4061836F2D70E080E090E00E94C90A2985DA
S1130F503A854B855C850E943A0C0E94980AD1011F
S1130F6012966C9386C070E080E090E00E94C70AFD
S1130F709B01AC0160E070E080E89FE30E94040BF9
S1130F806B8B7C8B8D8B9E8BC501B4010E94C90A2F
S1130F906F87788B898B9A8B6E2D70E080E090E060
S1130FA00E94C70A9B01AC0160E070E080E89FE307
S1130FB00E94040B6F8B788F898F9A8F6F2D70E04E
S1130FC080E090E00E94C70A9B01AC0160E070E001
S1130FD080E89FE30E94040B6B8F7C8F8D8F9E8F24
S1130FE023E333E343EA50E46B897C898D899E894A
S1130FF00E943A0C2F85388949895A890E943A0CF3
S11310000E94980AEF81F885608323E333E343EA7F
S113101050E46F89788D898D9A8D0E943A0C2F85C2
S1131020388949895A890E943A0C0E94980AAF81EA
S1131030B88511966C9323E333E343EA50E46B8D54
S11310407C8D8D8D9E8D0E943A0C2F85388949891F
S11310505A890E943A0C0E94980AEF81F8856283AB
S113106008C0D2018C91882319F081508C9301C05F
S113107010820E5F1F4FB3E02B0E311CEFEF4E1AA0
S11310805E0A0615170509F0E2CECD84DE846BE511
S113109078E3CE0101960E94820681112FC00BE5F0
S11310A018E37E01F7E0EF0EF11CD60111968C9146
S11310B00E944D06F60180810E944D06D6011296CB
S11310C08C910E944D06F60181919191A1916F013D
S11310D0F80181939193A1938F01CE14DF0429F732
S11310E001E618E3D8016C9186E695EA0E94AF0404
S11310F0F801628181E795EA0E94AF046E96CDBF44
S1131100DEBFDF91CF911F910F91FF90EF90DF90A1
S1131110CF90BF90AF909F908F907F906F905F9093
S11311204F903F902F900895CF92DF92EF92FF92CD
S11311300E94710980914538681B70E080E090E05E
S11311400E94C70A20E030E048EC52E40E94EC0917
S113115090580E94660A2091493830914A3840914B
S11311604B3850914C380E943A0C6B017C019F77AC
S11311702DEC3CEC4CEC5DE30E94E70988234CF039
S1131180C0924938D0924A38E0924B38F0924C38A9
S113119008C01092493810924A3810924B38109275
S11311A04C380E9471096093453870934638809397
S11311B04738909348386091493870914A38809103
S11311C04B3890914C380E940506609349387093CF
S11311D04A3880934B3890934C380E942C04609387
S11311E0493870934A3880934B3890934C380E9416
S11311F02509AB01BC014093493850934A386093A8
S11312004B3870934C388CE795EA0E94C004609187
S1131210493870914A3880914B3890914C380E94EB
S11312200F036093493870934A3880934B389093F6
S11312304C38FF90EF90DF90CF9008959091533801
S113124081E08927809353380895CF92DF92EF92FB
S1131250FF926B017C0180915338882339F10E94FD
S1131260710920914F3830915038621B730B609391
S11312704D3870934E388091133890911438681714
S11312807907A0F020E030E040ED51E4C701B60159
S11312900E947B096B017C010E94710960934F38A5
S11312A0709350388093513890935238C701B601E7
S11312B0FF90EF90DF90CF900895809154389091F3
S11312C05538A0915638B09157380196A11DB11DDB
S11312D08093543890935538A0935638B093573828
S11312E00895609154387091553880915638909192
S11312F0573808955058BB27AA270E9492090C9486
S1131300850B0E94770B38F00E947E0B20F039F495
S11313109F3F19F426F40C944D0B0EF4E095E7FB73
S11313200C94470BE92F0E94960B58F3BA176207E7
S113133073078407950720F079F4A6F50C94B80B8D
S11313400EF4E0950B2EBA2FA02D0B01B9019001DC
S11313500C01CA01A0011124FF27591B99F0593F20
S113136050F4503E68F11A16F040A22F232F342F68
S11313704427585FF3CF469537952795A795F040B6
S11313805395C9F77EF41F16BA0B620B730B840BCB
S1131390BAF09150A1F0FF0FBB1F661F771F881F83
S11313A0C2F70EC0BA0F621F731F841F48F48795DB
S11313B077956795B795F7959E3F08F0B0CF9395CD
S11313C0880F08F09927EE0F9795879508950E9446
S11313D0230B08F481E008950E94000A0C94850B05
S11313E00E947E0B58F00E94770B40F029F45F3F77
S11313F029F00C94470B51110C94B90B0C944D0B20
S11314000E94960B68F39923B1F3552391F3951B2E
S1131410550BBB27AA2762177307840738F09F5F11
S11314205F4F220F331F441FAA1FA9F335D00E2E7E
S11314303AF0E0E832D091505040E695001CCAF7EB
S11314402BD0FE2F29D0660F771F881FBB1F2617AE
S113145037074807AB07B0E809F0BB0B802DBF0185
S1131460FF2793585F4F3AF09E3F510578F00C9454
S1131470470B0C94B90B5F3FE4F3983ED4F3869585
S113148077956795B795F7959F5FC9F7880F911D75
S11314909695879597F90895E1E0660F771F881F61
S11314A0BB1F621773078407BA0720F0621B730B14
S11314B0840BBA0BEE1F88F7E095089529F416F013
S11314C00C94470B0C94B80B0C944D0B0E949E0B80
S11314D0A8F39638A0F707F80F92E8942BE33AEABA
S11314E048EB5FE70E94500C0F920F920F924DB79A
S11314F05EB70F920E94060CECE7F0E00E94500BDE
S11315004F915F91EF91FF91E595EE1FFF1F49F019
S1131510FE57E0684427EE0F441FFA95E1F7419522
S1131520550B0E94D00B0F9007FE0C94C40B08952A
S11315300E949E0B88F09F5798F0B92F9927B751B6
S1131540B0F0E1F0660F771F881F991F1AF0BA9563
S1131550C9F714C0B13091F00E94B80BB1E00895FE
S11315600C94B80B672F782F8827B85F39F0B93FF0
S1131570CCF3869577956795B395D9F73EF4909516
S11315808095709561957F4F8F4F9F4F0895E89494
S113159009C097FB3EF490958095709561957F4FB7
S11315A08F4F9F4F9923A9F0F92F96E9BB27939565
S11315B0F695879577956795B795F111F8CFFAF475
S11315C0BB0F11F460FF1BC06F5F7F4F8F4F9F4FA6
S11315D016C0882311F096E911C0772321F09EE804
S11315E0872F762F05C0662371F096E8862F70E06A
S11315F060E02AF09A95660F771F881FDAF7880F44
S11316009695879597F90895990FBB0B550FAA0BDB
S1131610E0E8FEEF16161706E807F90770F0121651
S11316201306E407F50760F0BA1754F031F42617EF
S1131630370748075907A7951BF4B901CA01BA2F00
S1131640B69597950895990F0008550FAA0BE0E8F1
S1131650FEEF16161706E807F907C0F01216130670
S1131660E407F50798F0621B730B840B950B39F4B0
S11316700A2661F0232B242B252B21F408950A2616
S113168009F4A140A6958FEF811D811D089597F956
S11316909F6780E870E060E008959FEF80EC089514
S11316A0DF93CF931F930F93FF92EF92DF927B010F
S11316B08C01689406C0DA2EEF010E944D0CFE01E5
S11316C0E894A5912591359145915591A6F3EF01A3
S11316D00E949209FE019701A801DA9469F7DF904C
S11316E0EF90FF900F911F91CF91DF910895002407
S11316F00A941616170618060906089500240A9473
S113170012161306140605060895092E0394000CF8
S113171011F4882352F0BB0F40F4BF2B11F460FF87
S113172004C06F5F7F4F8F4F9F4F089557FD9058B0
S1131730440F551F59F05F3F71F04795880F97FB91
S1131740991F61F09F3F79F087950895121613064B
S11317501406551FF2CF4695F1DF08C0161617067A
S11317601806991FF1CF86957105610508940895AF
S1131770E894BB2766277727CB0197F908950E9441
S1131780230B08F48FEF08959B01AC0160E070E037
S113179080E89FE30C94EC090C94470B0C94AF0C79
S11317A00E949E0BD8F39923C9F3940F511DA3F300
S11317B09150504094F059F0882332F0660F771F0F
S11317C0881F91505040C1F79E3F51052CF7880F58
S11317D0911D9695879597F908955F3FACF0983ED3
S11317E09CF0BB27869577956795B79508F4B1600B
S11317F09395C1F7BB0F58F711F460FFE8CF6F5F03
S11318007F4F8F4F9F4FE3CF0C94B90BFA01DC014C
S1131810AA0FBB1F9B01AC01BF5728F42227332713
S11318204427507820C0B75190F4AB2F002446953C
S113183037952795011CA395D2F3002071F0220F50
S1131840331F441FB395DAF30ED00C947A09613038
S11318507105A0E88A07B94630F49B01AC016627FC
S1131860772788279078309621F02083318342832C
S1131870538308950E944D0C0C94850B0E94770BA2
S113188038F00E947E0B20F0952311F00C94470B46
S11318900C944D0B11240C94B90B0E94960B70F30D
S11318A0959FC1F3950F50E0551F629FF001729F01
S11318B0BB27F00DB11D639FAA27F00DB11DAA1F10
S11318C0649F6627B00DA11D661F829F2227B00D5D
S11318D0A11D621F739FB00DA11D621F839FA00DE8
S11318E0611D221F749F3327A00D611D231F849F38
S11318F0600D211D822F762F6A2F11249F5750408F
S11319009AF0F1F088234AF0EE0FFF1FBB1F661F09
S1131910771F881F91505040A9F79E3F510580F0D2
S11319200C94470B0C94B90B5F3FE4F3983ED4F34B
S1131930869577956795B795F795E7959F5FC1F776
S1131940FE2B880F911D9695879597F908959F937F
S11319500E94BF0C0F9007FCEE5F0C94E80C9F3FB5
S113196031F0915020F4879577956795B795880F56
S1131970911D9695879597F908950C944D0B0E94A7
S11319809E0BD8F3E894E0E0BB279F57F0F02AEDD4
S11319903FE049EC06C0EE0FBB0F661F771F881FA0
S11319A028F0B23A62077307840728F0B25A620B30
S11319B0730B840BE3959A9572F7803830F49A95FB
S11319C0BB0F661F771F881FD2F790480C94B10C89
S11319D0EF93E0FF07C0A2EA2AED3FE049EC5FEB9A
S11319E00E9492090E94850B0F90039401FC905869
S11319F0E4EAF0E00C94FC0C9F938F937F936F9335
S1131A00FF93EF939B01AC010E943A0CEF91FF917D
S1131A100E94500B2F913F914F915F910C943A0C7F
S1131A20A1E21A2EAA1BBB1BFD010DC0AA1FBB1FDE
S1131A30EE1FFF1FA217B307E407F50720F0A21B50
S1131A40B30BE40BF50B661F771F881F991F1A94BD
S1131A5069F760957095809590959B01AC01BD01E7
S1131A60CF010895EF920F931F93CF93DF93E80173
S1131A7047FD02C034E001C034E1042E000C550BD4
S1131A8057FF03C0519541955109E32E022F242F8E
S1131A90AE010E94790FCE01DF91CF911F910F917A
S1131AA0EF900895A0E0B0E0E8E5FDE00C946B123F
S1131AB0AE014B5F5F4FFA0161917191AF0180916B
S1131AC06738909168380E94980DE2E00C94841273
S1131AD00F931F93CF93DF93E0916738F0916838A9
S1131AE0238121FF1BC08C01D0E0C0E0F80181916B
S1131AF08F016091673870916838DB011896ED9119
S1131B00FC911997882331F00995892B79F3DFEF3C
S1131B10CFEFECCF8AE00995892B19F08FEF9FEF77
S1131B2002C08D2F9C2FDF91CF911F910F910895AB
S1131B30ABE0B0E0EEE9FDE00C945B126C017B01DC
S1131B408A01FC0116821782838181FFCCC1CE01F8
S1131B5001963C01F6019381F70193FD859193FF72
S1131B6081917F01882309F4BAC1853239F493FD48
S1131B70859193FF81917F01853229F4B60190E02C
S1131B800E94C111E7CF912C212C312CFFE1F315D8
S1131B90D8F08B3279F038F4803279F08332A1F4C2
S1131BA0232D20611DC08D3261F0803369F4232D13
S1131BB0216016C0832D8260382EE32DE4603E2E12
S1131BC02AC0F32DF8601DC037FC2DC020ED280F6E
S1131BD02A3040F08E32B9F436FC81C1232D2064C2
S1131BE0322E19C036FE06C08AE0989E200D1124BC
S1131BF0922E11C0EAE02E9E200D1124222EF32DE8
S1131C00F0623F2E08C08C3621F4832D8068382E74
S1131C1002C0883641F4F70193FD859193FF8191C9
S1131C207F018111B3CF982F9F7D9554933028F471
S1131C300C5F1F4F9FE399830DC0833631F08337C8
S1131C4071F0833509F059C021C0F801808189837E
S1131C500E5F1F4F88248394912C530113C02801D5
S1131C60F2E04F0E511CF801A080B18036FE03C093
S1131C70692D70E002C06FEF7FEFC5010E94B611BD
S1131C804C018201F32DFF773F2E16C0280122E07C
S1131C90420E511CF801A080B18036FE03C0692DAC
S1131CA070E002C06FEF7FEFC5010E94AB114C01E1
S1131CB0F32DF0683F2E820133FC1BC0822D90E08F
S1131CC088169906B0F4B60180E290E00E94C11132
S1131CD02A94F4CFF50137FC859137FE81915F0199
S1131CE0B60190E00E94C11121102A9421E0821AC9
S1131CF091088114910471F7E8C0843611F0893693
S1131D0041F5F80137FE07C06081718182819381BA
S1131D100C5F1F4F08C060817181072E000C880B77
S1131D20990B0E5F1F4FF32DFF763F2E97FF09C0CF
S1131D3090958095709561957F4F8F4F9F4FF06878
S1131D403F2E2AE030E0A3010E94FD11882E861860
S1131D5045C0853731F4232D2F7EB22E2AE030E0A2
S1131D6025C0932D997FB92E8F36C1F018F488358C
S1131D7079F0B5C0803719F0883721F0B0C0E92F69
S1131D80E061BE2EB4FE0DC0FB2DF460BF2E09C071
S1131D9034FE0AC0292F2660B22E06C028E030E0A7
S1131DA005C020E130E002C020E132E0F801B7FED6
S1131DB007C060817181828193810C5F1F4F06C0CF
S1131DC06081718180E090E00E5F1F4FA3010E944B
S1131DD0FD11882E8618FB2DFF773F2E36FE0DC091
S1131DE0232D2E7FA22E891458F434FE0BC032FC0E
S1131DF009C0832D8E7EA82E05C0B82CA32C03C049
S1131E00B82C01C0B92CA4FE0FC0FE01E80DF11DD1
S1131E108081803321F49A2D997EA92E09C0A2FED7
S1131E2006C0B394B39404C08A2D867809F0B394A1
S1131E30A3FC11C0A0FE06C0B21488F4280C922C96
S1131E409B180EC0B21460F4B60180E290E00E94C8
S1131E50C111B394F7CFB21418F42B1802C0982C04
S1131E60212CA4FE10C0B60180E390E00E94C111B1
S1131E70A2FE17C0A1FC03C088E790E002C088E579
S1131E8090E0B6010CC08A2D867859F0A1FE02C0FC
S1131E908BE201C080E2A7FC8DE2B60190E00E94D3
S1131EA0C111891438F4B60180E390E00E94C11195
S1131EB09A94F7CF8A94F301E80DF11D8081B6015D
S1131EC090E00E94C1118110F5CF222009F442CE86
S1131ED0B60180E290E00E94C1112A94F6CFF60187
S1131EE08681978102C08FEF9FEF2B96E2E10C94DD
S1131EF07412A9E0B0E0EFE7FFE00C9461126A010C
S1131F00122FB02E2BE3201720F0FF24F394F00EB1
S1131F1002C02CE3F22E0F2D27E0AE014F5F5F4F7E
S1131F200E94D310BC014981842F8970813031F023
S1131F30E1FC06C0E0FE06C090E205C09DE203C0DD
S1131F409BE201C090E05E2D507143FF3CC09111B3
S1131F5002C083E001C084E0811718F4212F281BFC
S1131F6001C020E051110BC0F601822F30E288231A
S1131F7019F031938150FBCFC20ED11C20E099237C
S1131F8029F0D6019C93F60131966F01C6010396A0
S1131F90E2FE0AC03EE4D6013C9341E411964C9320
S1131FA0119712963C9306C03EE6F601308341E653
S1131FB041833283FC01322F40E2332309F442C0CF
S1131FC041933150FACF42FF44C0911102C083E0E3
S1131FD001C084E0811718F4212F281B01C020E0E0
S1131FE051110BC0F601822F30E2882319F031938E
S1131FF08150FBCFC20ED11C20E0992329F0D601D9
S11320009C93F60131966F01C6010396E2FE0BC064
S113201039E4D6013C933EE411963C93119736E49F
S113202012963C9307C039E6F60130833EE63183CD
S113203036E63283FC01322F40E2332319F0419318
S11320403150FBCFFC01E20FF11D10828EEF9FEFA8
S1132050A6C021E030E0911102C020E030E0161665
S113206017061CF4FB01319602C0E1E0F0E02E0FEC
S11320703F1FBB2021F0EB2DF0E0319602C0E0E0E1
S1132080F0E02E0F3F1FE12FF0E02E173F071CF466
S1132090121B212F01C020E08E2D887159F4F60106
S11320A0822F30E2882319F031938150FBCFC20E86
S11320B0D11C20E0992329F0D6019C93F601319696
S11320C06F0151110BC0F601822F90E3882319F0A0
S11320D091938150FBCFC20ED11C20E00F2D060F2F
S11320E09A81342F307144FF03C0913309F40150B5
S11320F0101624F4093018F008E001C001E0AB0127
S113210077FF02C040E050E0FB01E41BF50BA1E0C7
S1132110B0E0AC0FBD1FEA0FFB1F8EE2A82E4B01EF
S1132120801A91080B2D10E01195019511094F3F6C
S1132130BFEF5B0721F4D601AC9211966D016417D1
S113214075072CF08416950614F4818101C080E390
S1132150415051093196D60111967D01401751071E
S113216024F0D6018C936701E2CF6417750739F424
S1132170963320F4953319F4311101C081E3F6014B
S11321808083F701822F90E2882319F09193815084
S1132190FBCFF701E20FF11D108280E090E0299659
S11321A0ECE00C947A12283008F027E03327DA01A7
S11321B0990F311D87FD916000966105710539F411
S11321C032602E5F3D9330E32A95E1F708959F3FF7
S11321D030F080387105610509F03C5F3C5F3D9348
S11321E0913008F08068911DDF93CF931F930F9374
S11321F0FF92EF92192F987F9695E92F96959695D1
S1132200E90FFF27E45EFE4F99273327EE24FF24CE
S1132210A701E70105900894079428F4360FE71EF8
S1132220F81E491F511D660F771F881F991F0694BA
S1132230A1F70590079428F4E70EF81E491F561FCE
S1132240C11D770F881F991F661F0694A1F705907B
S1132250079428F4F80E491F561FC71FD11D880F75
S1132260991F661F771F0694A1F70590079420F421
S1132270490F561FC71FD81F990F661F771F881F46
S11322800694A9F784911095177041F0D695C795D7
S113229057954795F794E7941A95C1F7E2ECF0E067
S11322A068941590159135916591959105907FE20B
S11322B07395E118F10A430B560BC90BD009C0F70B
S11322C0E10CF11E431F561FC91FD01D7EF470334D
S11322D011F48A95E6CFE894015030F0080F0AF41F
S11322E00027021708F4202F2395022F7A3328F0B1
S11322F079E37D932A95E9F710C07D932A9589F6B1
S1132300069497956795379517951794E118F10AF0
S1132310430B560BC90BD00998F023957E91739506
S11323207A3308F070E37C932013B8F77E917061E0
S11323307D9330F0839571E37D9370E32A95E1F703
S11323401124EF90FF900F911F91CF91DF91992766
S113235087FD90950895FC0105906150704001102F
S1132360D8F7809590958E0F9F1F0895FC016150BA
S1132370704001900110D8F7809590958E0F9F1FA3
S113238008950F931F93CF93DF93FB01238121FDC6
S113239003C08FEF9FEF2CC022FF16C046815781E8
S11323A0248135814217530744F4A081B1819D01F2
S11323B02F5F3F4F208331838C93268137812F5F9A
S11323C03F4F2683378314C08B01EC01FB0100844B
S11323D0F185E02D0995892BE1F6D80116968D91AA
S11323E09C911797019616968D939C931797CE01FF
S11323F0DF91CF911F910F910895FA01AA272830F8
S113240051F1203181F1E8946F936E7F6E5F7F4FBD
S11324108F4F9F4FAF4FB1E03ED0B4E03CD0670F39
S1132420781F891F9A1FA11D680F791F8A1F911D8C
S1132430A11D6A0F711D811D911DA11D20D009F4DC
S113244068943F912AE0269F11243019305D31931E
S1132450DEF6CF010895462F4770405D4193B3E007
S11324600FD0C9F7F6CF462F4F70405D4A3318F0AE
S1132470495D31FD4052419302D0A9F7EACFB4E05F
S1132480A6959795879577956795BA95C9F7009717
S11324906105710508959B01AC010A2E06945795B8
S11324A0479537952795BA95C9F7620F731F841F0F
S11324B0951FA01D08952F923F924F925F926F92A5
S11324C07F928F929F92AF92BF92CF92DF92EF92C0
S11324D0FF920F931F93CF93DF93CDB7DEB7CA1B41
S11324E0DB0BCDBFDEBF09942A88398848885F8416
S11324F06E847D848C849B84AA84B984C884DF80A0
S1132500EE80FD800C811B81AA81B981CE0FD11D83
S10F2510CDBFDEBFED010895F894FFCFAD
S113251C74696D650041786F6E0050756C736573EA
S113252C0025733A253364090025733A25386C75F4
S113253C090025733A253375090025733A2535733B
S113254C090025733A257309000D00443100443207
S113255C004433004434004435004C45443120637A
S113256C6F6C6F72004C45443220636F6C6F720059
S10D257C506F74656E7469616C00A1
S11325860000000200000000A10200000000030198
S1092596060907F4010030
S9030000FC
