:100000000C9461000C947E000C947E000C947E0095
:100010000C947E000C947E000C9436050C947E00AB
:100020000C947E000C947E000C947E000C947E0058
:100030000C947E000C947E000C947E000C947E0048
:100040000C947E000C947E000C947E000C947E0038
:100050000C947E000C947E000C947E000C947E0028
:100060000C947E000C947E000C947E000C947E0018
:100070000C947E000C947E000C947E000763423644
:10008000B79BD8A71A39685618AEBAAB558C1D3C29
:10009000B7CC5763BD6DEDFD753EF6177231BF00ED
:1000A0000000803F05A84CCDB2D44EB93836A90225
:1000B0000C50B9918688083CA6AAAA2ABE00000066
:1000C000803F11241FBECFEFCDBFDFE3DEBF18E3BB
:1000D000A0E0B8E3E8EDFAE102C005900D92A63188
:1000E000B107D9F728E3A6E1B8E301C01D92A23712
:1000F000B207E1F70E9483000C94510D0C940000AC
:100100000E94B20108950E948000E0EAF0E0808140
:10011000836080830E9463090E946C090E946405C9
:100120008823E1F30E94FA030E94BF038823B9F0F9
:100130000E94C203882349F064E080E00E94AB057E
:1001400060E081E00E94AB051AC043E062E081E01C
:100150000E94830560E080E00E94AB0510C081E052
:100160000E947B0580E00E947B05811104C046E06F
:1001700061E00E9483050E9459030E9488080E9442
:10018000DF050E94340480E00E9461050E94890915
:10019000AB01BC0186EA9AE90E943F040E94420436
:1001A000BDCFE0E4F6E080E1828385E0808380E0FB
:1001B000089580914B0681700895E0E4F6E086830F
:1001C00081E080870E94D9008823E1F3E0E4F6E033
:1001D00020893189938591609387C901089580E0D2
:1001E0000895E0ECF1E028EA208798E097838BEB14
:1001F000868339E0358324879387828781E48083EF
:1002000080E0089547E068ED8CE790E00E94E1010E
:1002100041E068ED81E690E00E94E10180E0089510
:10022000789480E0089581E48093A00680E00895AA
:1002300081E08093A00680E00895E0EAF6E0808106
:10024000816080830895E0EAF6E080818E7F80837C
:1002500008958093A1060895E0E1F4E0808188602C
:100260008193E83184E0F807C9F7E0E3F4E08081A6
:1002700088608193E83384E0F807C9F7E0E5F4E0AB
:10028000808188608193E83584E0F807C9F7089594
:10029000E5E1F4E08081887F846080838081877FCE
:1002A0008083E7E1F4E08081887F846080838081BF
:1002B000877F8083E0E5F4E08081887F84608083AD
:1002C0008081877F8083E1E5F4E08081887F84609E
:1002D00080838081877F8083E3E5F4E08081887F6D
:1002E000846080838081877F80830E94D10008950D
:1002F0002398E3E3F4E08081877F8083229A2A9821
:100300000E9419020895259A2D98E0E0F2E082817A
:10031000846082830E9409020895249A2C98E0E068
:10032000F2E08081806180830E94F100089502984C
:10033000E2E1F4E08081877F8083019A0998039A43
:100340000B98049A0C980E9401020895E6E1F4E0EB
:100350008081887F846080838081877F80830E9402
:10036000130108950E942C01219A29982698E6E30A
:10037000F4E08081877F80832798E7E3F4E0808141
:10038000877F80834298E2E5F4E080818860808303
:10039000459A4D9A0E9402010E94E5010E9448017F
:1003A0000E9478010E9483010E948D010E949701A2
:1003B0000E94A6010E9410010E94FF010E94EF000E
:1003C0000895FC0164BF40830895E0E4F1E0818179
:1003D0008111FDCFE0E4F1E080E290E08087918739
:1003E00021E820838287938781E0858382838189C6
:1003F0008111FDCF81E08093500180E0089580E07D
:100400000895E0E2F8E083E2808384E0818380E085
:100410000895E0E0FAE084E090E084A795A783E403
:10042000818384E0828387E090E086A397A380E0C5
:100430000895E0E0F8E08BE591E08087918780EC1B
:10044000868380E098E380936E3890936F3880E0E5
:100450000895E0E0F8E0948195FFFDCF80930208D5
:1004600008950E94290280E090E0089520911638B6
:1004700030911738232B51F0E8E1F8E321E030E028
:10048000B90141915191452B81F402C060E070E0C7
:10049000660F771FFB01EA5EF74C808391838091A2
:1004A0002A388F5F80932A3808952F5F3F4F2A3074
:1004B000310531F7089581E090912B38911101C0F9
:1004C00080E0089580912A3808954091163850911F
:1004D0001738E8E1F8E380E091E02191319142178B
:1004E000530710F4892FA9019F5F9A30B1F708953F
:1004F00080E090E00E94290110922B380895CF935C
:10050000C0912A38CC23C1F00E94650290E0FC0122
:10051000EE0FFF1FEA5EF74C20813181232B71F033
:10052000880F991FFC01EA5EF74C10821182C150BE
:10053000C0932A3881E003C080E001C080E0CF9101
:100540000895CF92DF92EF92FF926B017C0120E041
:1005500030E048EC51E40E94DE0B882384F1809166
:100560002A388823B1F00E946502E82FF0E0EE0FF0
:10057000FF1FEA5EF74C808191810A9685369105CE
:1005800018F00E94360209C084E690E00E9436020C
:1005900004C084E690E00E94360220E030E048EC9F
:1005A00051E4C701B6010E9492096B017C0120E071
:1005B00030E048EC51E40E94DE0B882384F620E012
:1005C00030E040EA51ECC701B6010E94FF098823E0
:1005D0000CF046C080912A38882311F10E947F02D6
:1005E0008823F1F120E030E048EC51E4C701B60186
:1005F0000E9493096B017C0133C080819181009737
:1006000039F0019780839183892B11F4415051E097
:100610003296E217F30789F750932C3840932A3823
:1006200080912C38882391F010922C388CEE90E039
:100630000E9429018CEE80932B3845E066E081E032
:100640000E94830581E080932D3815C080912D385C
:10065000882319F010922D380EC00E9478020BC02A
:1006600040912A384423E1F250912C38E6E1F8E336
:100670002AE238E3C2CF60912B388BEA9AE90E94D4
:10068000400460912A3880EB9AE90E944004C70137
:10069000B601FF90EF90DF90CF900895379B05C093
:1006A00090912D3881E0892702C080E090E0817030
:1006B00008950F931F93CF93DF93109233388AB12D
:1006C000D1E0C82FC47082FDD0E0C11136C0809146
:1006D000343881110EC00E94890960932E387093BE
:1006E0002F38809330389093313880913438882374
:1006F000A1F10E94890900912E3810912F38209184
:10070000303830913138DC01CB01801B910BA20BCA
:10071000B30B813D9740A105B10578F00E94120905
:100720000E94890960932E3870932F388093303857
:100730009093313881E080933238CC2371F08091EE
:100740003438882351F080913238811104C081E01F
:100750008093333802C010923238D0933438DF910E
:10076000CF911F910F91089520913338222331F0BA
:1007700020E030E040ED51E40E949309089580911B
:100780005938089586B186FB882780F908950E941C
:1007900018010E94230108950E9413010E941D0167
:1007A000089580915938882389F043E062E081E020
:1007B0000E94830560E080E00E94AB050E94780201
:1007C0000E94C70380E00E942509089560E081E04F
:1007D0000E94AB0560E080E00E94AB050E94CC0364
:1007E000089590915938981721F0809359380E94B4
:1007F000D1030895CF9380915938882321F00E9426
:100800006304C82F0BC00E946304811103C00E94BF
:100810004E0302C081E090E0C82FC170809159382A
:1008200081110DC0CC23D1F0809135388F5F8B3092
:1008300090F01092353881E00E94F10313C08C2FA4
:100840000E94F103C1110EC080913538882351F008
:100850001092353807C08093353804C08C2F0E9421
:10086000F103F2CFCF91089580915938882319F080
:100870004D98299A08954D9A2998089508950895B4
:10088000089508950895EF92FF920F931F93CF93C9
:10089000DF93CEE0D8E300E418E30F2EF3E1EF2E70
:1008A000F8E3FF2EF02D89910E94DD00F80181937D
:1008B0008F01CE15DF05B9F7DF91CF911F910F9111
:1008C000FF90EF900895CF93DF930E944304EBE3F2
:1008D000F8E3C6E3D8E3A0E4B8E320E438E380E03B
:1008E00047E0908199939D919F3F11F4408381E06F
:1008F0003196E217F307A9F7DF91CF910895AF92F0
:10090000BF92DF92EF92FF920F931F93CF93DF93EB
:10091000C0E4D8E3688187EB9AE90E9440046981CA
:100920008AEB9AE90E9440046A818DEB9AE90E9461
:1009300040046B8180EC9AE90E9440046C8183EC56
:100940009AE90E944004EBE3F8E326E338E35E0112
:1009500040E458E3DD24D3940F2EF3E0EF2EF02D86
:100960006894FF24F1F804E016E065E077E0DF0129
:100970009081E90199939E01E50189915E018F3F84
:1009800011F4708319C08B3D10F0608315C0863B55
:1009900010F0108311C0823910F000830DC08E3624
:1009A00010F0F08209C08A3410F0E08205C0853270
:1009B00010F0D08201C010828C91981301C01C925B
:1009C0003196E417F50799F6DF91CF911F910F91BA
:1009D000FF90EF90DF90BF90AF900895CF93DF939B
:1009E0000E945B020E947F04EBE3F8E320E438E31B
:1009F000C0E0D0E08191833089F028F4813091F01B
:100A0000823071F010C0853029F030F0863059F412
:100A1000E49609C0699607C0649605C0E29703C0D2
:100A2000699701C06497E217F30721F7BE0186ECCE
:100A30009AE90E943E04CE01DF91CF910895CF92B2
:100A4000DF92EF92FF926B017C010E94EE04BC01E9
:100A5000990F880B990B0E94E80AA70196010E9442
:100A60009309FF90EF90DF90CF9008951F920F921F
:100A70000FB60F9211242F933F934F935F936F9371
:100A80007F938F939F93AF93BF93CF93EF93FF93F6
:100A9000C1E0C09345380E947509C0934301FF919E
:100AA000EF91CF91BF91AF919F918F917F916F9176
:100AB0005F914F913F912F910F900FBE0F901F901C
:100AC0001895809345380895809145380895909100
:100AD000230890932308E0E0FAE010A211A291E02D
:100AE000908380932408E0E2F8E083818823ECF788
:100AF0001092000A0895E82FF0E0EE0FFF1FEC5966
:100B0000F74C8081089590E0FC01EE0FFF1FEC5937
:100B1000F74C5181553061F09C01220F331FF901D0
:100B2000E859F74CD901AC59B74C2C91208351832B
:100B3000FC01EE0FFF1FEC59F74C608341834530F9
:100B400049F4880F991FFC01E65AF74C88EC90E0B5
:100B500080839183089540E00E9483050895DC011D
:100B6000FB019C918081981320C011969C91119754
:100B7000818198131CC012969C91129782819813C0
:100B800018C013969C9113978381981314C01496E0
:100B90009C9114978481981310C081E015962C9134
:100BA0009581291759F080E0089580E0089580E04C
:100BB000089580E0089580E0089580E008952F92E0
:100BC0003F924F925F926F927F928F929F92AF92DD
:100BD000BF92CF92DF92EF92FF920F931F93CF932A
:100BE000DF93CDB7DEB7AB97CDBFDEBF0E948909DB
:100BF0006B017C010E94E60A23E634E14DE154E4F6
:100C00000E94040A0E94C60C20E030E040E05FE34E
:100C10000E94590C20E030E040E05FE30E9493091D
:100C2000688779878A879B87C701B60128EE33E0FA
:100C300040E050E00E942F0D21E02F83643F71407F
:100C40008105910508F01F82C701B60120E137E256
:100C500040E050E00E942F0D0E94E60A20E030E0C4
:100C600048E453E40E94FF09182F111F1127111F98
:100C70000E947F086C877D878E879F870E94620213
:100C8000482F50E04E8F5F8F59E1859FC00111249E
:100C90000F2EF4E62F2EF8E33F2EF02DDE011196F5
:100CA0005D010F2EF8E64F2EF8E35F2EF02D0F2E8C
:100CB000FAE56F2EF8E37F2EF02D0F2EF8E68F2E3B
:100CC000F8E39F2EF02D6D011C8A1D8A212F30E044
:100CD00040E050E02E8B3F8B488F598F9C0140E0C5
:100CE00050E02A8F3B8F4C8F5D8FF10180818430E3
:100CF00079F028F4823041F0833071F019C08530EA
:100D000079F0863089F014C010E000E069E113C08A
:100D100010E009E160E00FC019E100E060E00BC005
:100D200010E009E169E107C019E109E169E103C0E7
:100D300010E000E060E07601D6016C9311960C9310
:100D4000119712961C938181833009F452C028F4C4
:100D5000813061F08230D9F183C1853009F4F7C068
:100D600008F478C0863009F419C17AC170E080E0D7
:100D700090E00E94E80A2DEC3CEC4CEC5DE30E9414
:100D8000590C0E94B70AF6016083602F70E080E082
:100D900090E00E94E80A2DEC3CEC4CEC5DE30E94F4
:100DA000590C0E94B70AD60111966C93612F70E01E
:100DB00080E090E00E94E80A2DEC3CEC4CEC5DE316
:100DC0000E94590C0E94B70AF601628349C1FF8153
:100DD000F69F602D1124D6016C93F09F002D1124F5
:100DE00011960C931197F19F102D112412961C93BC
:100DF00037C170E080E090E00E94E80A28853985DC
:100E00004A855B850E94590C0E94B70AF6016083EF
:100E1000602F70E080E090E00E94E80A2885398524
:100E20004A855B850E94590C0E94B70AD60111962B
:100E30006C93612F70E080E090E00E94E80A2885C2
:100E400039854A855B850E94590C0E94B70AF601D4
:100E5000628306C170E080E090E00E94E60A9B0198
:100E6000AC0160E070E080E89FE30E94230B68A380
:100E700079A38AA39BA36E897F89888D998D0E940F
:100E8000E80A688B798B8A8B9B8B602F70E080E0FF
:100E900090E00E94E60A9B01AC0160E070E080E80F
:100EA0009FE30E94230B6CA37DA38EA39FA3612FBE
:100EB00070E080E090E00E94E60A9B01AC0160E0F7
:100EC00070E080E89FE30E94230B68A779A78AA7B8
:100ED0009BA723E333E343EA50E468A179A18AA105
:100EE0009BA10E94590C288939894A895B890E94F3
:100EF000590C0E94B70AD6016C9323E333E343EA0B
:100F000050E46CA17DA18EA19FA10E94590C28895B
:100F100039894A895B890E94590C0E94B70AF601F7
:100F2000618323E333E343EA50E468A579A58AA506
:100F30009BA50E94590C288939894A895B890E949E
:100F4000590C0E94B70AD60112966C9389C0688A20
:100F5000798AD3010D911C9101151105C1F0B801D9
:100F600080E090E00E94E60A20E030E04EE353E4A7
:100F70000E94DE0B181624F4F601108211821282F0
:100F800001501109A889B9890D931C9369C0D20138
:100F90008C91808311968C91818362C020E030E037
:100FA000A9016C857D858E859F850E94DE0B1816B4
:100FB00024F0EE8DFF8DEF2B11F16A8D7B8D8C8DE2
:100FC0009D8D0E94E60A2C853D854E855F850E9499
:100FD000930920E030E04CEC51E40E94590C20E0F1
:100FE00030E048EC51E40E94040A20E030E04FE792
:100FF00053E40E94230B0E94B70A6C8B28C06C85B7
:101000007D858E859F850E94B00A9B01772324F4FD
:1010100022273327261B370BB901330F880B990B77
:101020000E94E80A20E030E04CEC51E40E94590CA8
:1010300020E030E048EC51E40E94040A20E030E077
:101040004FE753E40E94230B0E94B70A6D8BED8992
:10105000D701EC93FC891196FC93119712961C9280
:1010600022E0220E311C33E0C30ED11C42E0440EBC
:10107000511C52E0650E711C2814390409F035CE5C
:101080006EE578E3CE0101960E94AF05811121C083
:101090000EE518E37E0187E0E80EF11CD5011196FC
:1010A0008C910E946705F50180810E946705D5013A
:1010B00012968C910E946705F50181919191A19101
:1010C0005F01F80181939193A1938F01AE14BF0446
:1010D00029F7AB96CDBFDEBFDF91CF911F910F9166
:1010E000FF90EF90DF90CF90BF90AF909F908F9048
:1010F0007F906F905F904F903F902F9008956091F8
:101100004A3870914B3880914C3890914D38089501
:10111000CF92DF92EF92FF920E9489098091463828
:10112000681B70E080E090E00E94E60A20E030E07A
:1011300048EC52E40E94040A90580E947E0A2091D2
:101140004A3830914B3840914C3850914D380E947C
:10115000590C6B017C019F772DEC3CEC4CEC5DE372
:101160000E94FF0988234CF0C0924A38D0924B3835
:10117000E0924C38F0924D3808C010924A381092E4
:101180004B3810924C3810924D380E948909609368
:101190004638709347388093483890934938609127
:1011A0004A3870914B3880914C3890914D380E945C
:1011B0001F0560934A3870934B3880934C38909356
:1011C0004D380E94B40360934A3870934B38809333
:1011D0004C3890934D380E942B09AB01BC014093D1
:1011E0004A3850934B3860934C3870934D388EEC9E
:1011F0009AE90E94410460914A3870914B3880917D
:101200004C3890914D380E94A10260934A387093F7
:101210004B3880934C3890934D38FF90EF90DF908F
:10122000CF9008959091543881E089278093543865
:10123000882331F041E063E081E00E948305089556
:1012400060E081E00E94AB050895909154389813B6
:101250000E9412090895CF92DF92EF92FF926B01E4
:101260007C0180915438882339F10E9489092091AA
:10127000503830915138621B730B60934E38709325
:101280004F38809113389091143868177907A0F07F
:1012900020E030E040ED51E4C701B6010E9493091F
:1012A0006B017C010E94890960935038709351381A
:1012B0008093523890935338C701B601FF90EF9056
:1012C000DF90CF900895E0E5F0E08081897F808312
:1012D0008081816080830895F89478948895E0E512
:1012E000F0E080818E7F80830895809155389091C1
:1012F0005638A0915738B09158380196A11DB11DAC
:101300008093553890935638A0935738B0935838F7
:101310000895609155387091563880915738909162
:10132000583808955058BB27AA270E94AA090C9440
:10133000A40B0E94960B38F00E949D0B20F039F40C
:101340009F3F19F426F40C946C0B0EF4E095E7FB28
:101350000C94660BE92F0E94B50B58F3BA1762077D
:1013600073078407950720F079F4A6F50C94D70B42
:101370000EF4E0950B2EBA2FA02D0B01B9019001B0
:101380000C01CA01A0011124FF27591B99F0593FF4
:1013900050F4503E68F11A16F040A22F232F342F3C
:1013A0004427585FF3CF469537952795A795F0408A
:1013B0005395C9F77EF41F16BA0B620B730B840B9F
:1013C000BAF09150A1F0FF0FBB1F661F771F881F57
:1013D000C2F70EC0BA0F621F731F841F48F48795AF
:1013E00077956795B795F7959E3F08F0B0CF9395A1
:1013F000880F08F09927EE0F9795879508950E941A
:10140000420B08F481E008950E94180A0C94A40B82
:101410000E949D0B58F00E94960B40F029F45F3F0C
:1014200029F00C94660B51110C94D80B0C946C0B96
:101430000E94B50B68F39923B1F3552391F3951BE3
:10144000550BBB27AA2762177307840738F09F5FE5
:101450005F4F220F331F441FAA1FA9F335D00E2E52
:101460003AF0E0E832D091505040E695001CCAF7BF
:101470002BD0FE2F29D0660F771F881FBB1F261782
:1014800037074807AB07B0E809F0BB0B802DBF0159
:10149000FF2793585F4F3AF09E3F510578F00C9428
:1014A000660B0C94D80B5F3FE4F3983ED4F386951B
:1014B00077956795B795F7959F5FC9F7880F911D49
:1014C0009695879597F90895E1E0660F771F881F35
:1014D000BB1F621773078407BA0720F0621B730BE8
:1014E000840BBA0BEE1F88F7E095089529F416F0E7
:1014F0000C94660B0C94D70B0C946C0B0E94BD0BD8
:10150000A8F39638A0F707F80F92E8942BE33AEA8D
:1015100048EB5FE70E946F0C0F920F920F924DB74E
:101520005EB70F920E94250CECE7F0E00E946F0B73
:101530004F915F91EF91FF91E595EE1FFF1F49F0ED
:10154000FE57E0684427EE0F441FFA95E1F74195F6
:10155000550B0E94EF0B0F9007FE0C94E30B0895C0
:101560000E94B70A6894B1110C94D80B08950E9498
:10157000BD0B88F09F5798F0B92F9927B751B0F05D
:10158000E1F0660F771F881F991F1AF0BA95C9F707
:1015900014C0B13091F00E94D70BB1E008950C94C3
:1015A000D70B672F782F8827B85F39F0B93FCCF376
:1015B000869577956795B395D9F73EF49095809584
:1015C000709561957F4F8F4F9F4F0895E89409C0A4
:1015D00097FB3EF490958095709561957F4F8F4F66
:1015E0009F4F9923A9F0F92F96E9BB279395F6957C
:1015F000879577956795B795F111F8CFFAF4BB0FFA
:1016000011F460FF1BC06F5F7F4F8F4F9F4F16C05D
:10161000882311F096E911C0772321F09EE8872FE7
:10162000762F05C0662371F096E8862F70E060E0A3
:101630002AF09A95660F771F881FDAF7880F96951C
:10164000879597F90895990FBB0B550FAA0BE0E802
:10165000FEEF16161706E807F90770F012161306C4
:10166000E407F50760F0BA1754F031F4261737078E
:1016700048075907A7951BF4B901CA01BA2FB695B7
:1016800097950895990F0008550FAA0BE0E8FEEF13
:1016900016161706E807F907C0F012161306E40736
:1016A000F50798F0621B730B840B950B39F40A262F
:1016B00061F0232B242B252B21F408950A2609F40D
:1016C000A140A6958FEF811D811D089597F99F6711
:1016D00080E870E060E008959FEF80EC0895DF936C
:1016E000CF931F930F93FF92EF92DF927B018C01B8
:1016F000689406C0DA2EEF010E946C0CFE01E8949B
:10170000A5912591359145915591A6F3EF010E9440
:10171000AA09FE019701A801DA9469F7DF90EF901A
:10172000FF900F911F91CF91DF91089500240A94AB
:101730001616170618060906089500240A941216AC
:101740001306140605060895092E0394000C11F4DF
:10175000882352F0BB0F40F4BF2B11F460FF04C08C
:101760006F5F7F4F8F4F9F4F089557FD9058440FE5
:10177000551F59F05F3F71F04795880F97FB991FF0
:1017800061F09F3F79F087950895121613061406AD
:10179000551FF2CF4695F1DF08C01616170618063A
:1017A000991FF1CF86957105610508940895E89415
:1017B000BB2766277727CB0197F908950E94420B34
:1017C00008F48FEF08959B01AC0160E070E080E8C1
:1017D0009FE30C94040A0C94660B0C94CE0C0E94AC
:1017E000BD0BD8F39923C9F3940F511DA3F3915066
:1017F000504094F059F0882332F0660F771F881F0D
:1018000091505040C1F79E3F51052CF7880F911D14
:101810009695879597F908955F3FACF0983E9CF0B8
:10182000BB27869577956795B79508F4B160939532
:10183000C1F7BB0F58F711F460FFE8CF6F5F7F4F20
:101840008F4F9F4FE3CF0C94D80BFA01DC01AA0F06
:10185000BB1F9B01AC01BF5728F422273327442725
:10186000507820C0B75190F4AB2F0024469537959F
:101870002795011CA395D2F3002071F0220F331F8E
:10188000441FB395DAF30ED00C94920961307105C0
:10189000A0E88A07B94630F49B01AC016627772798
:1018A00088279078309621F02083318342835383B8
:1018B00008950E946C0C0C94A40B0E94960B38F0B7
:1018C0000E949D0B20F0952311F00C94660B0C9454
:1018D0006C0B11240C94D80B0E94B50B70F3959FE0
:1018E000C1F3950F50E0551F629FF001729FBB2717
:1018F000F00DB11D639FAA27F00DB11DAA1F649FB3
:101900006627B00DA11D661F829F2227B00DA11D65
:10191000621F739FB00DA11D621F839FA00D611DEB
:10192000221F749F3327A00D611D231F849F600D0C
:10193000211D822F762F6A2F11249F5750409AF035
:10194000F1F088234AF0EE0FFF1FBB1F661F771FC1
:10195000881F91505040A9F79E3F510580F00C948C
:10196000660B0C94D80B5F3FE4F3983ED4F3869556
:1019700077956795B795F795E7959F5FC1F7FE2B2C
:10198000880F911D9695879597F908959F930E94CA
:10199000DE0C0F9007FCEE5F0C94070D9F3F31F0BB
:1019A000915020F4879577956795B795880F911D8D
:1019B0009695879597F908950C946C0B0E94BD0B32
:1019C000D8F3E894E0E0BB279F57F0F02AED3FE022
:1019D00049EC06C0EE0FBB0F661F771F881F28F06B
:1019E000B23A62077307840728F0B25A620B730B8E
:1019F000840BE3959A9572F7803830F49A95BB0F73
:101A0000661F771F881FD2F790480C94D00CEF9375
:101A1000E0FF07C0A2EA2AED3FE049EC5FEB0E943D
:101A2000AA090E94A40B0F90039401FC9058E4EAC9
:101A3000F0E00C941B0D9F938F937F936F93FF9314
:101A4000EF939B01AC010E94590CEF91FF910E9412
:101A50006F0B2F913F914F915F910C94590CA1E224
:101A60001A2EAA1BBB1BFD010DC0AA1FBB1FEE1F18
:101A7000FF1FA217B307E407F50720F0A21BB30B63
:101A8000E40BF50B661F771F881F991F1A9469F7DF
:101A900060957095809590959B01AC01BD01CF013B
:061AA0000895F894FFCF49
:101AA60074696D650041786F6E0050756C7365736F
:101AB60000443100443200443300443400443500CD
:101AC60052657475726E5000506F74656E746961FC
:021AD6006C00A2
:101AD80000000002000000003102000000000301C5
:061AE800060907F40100ED
:00000001FF
