S01A00004275696C64696E675F427261696E735F56342E7372656335
S11300000C9461000C947E000C947E000C947E0091
S11300100C947E000C947E000C9422070C947E00B9
S11300200C947E000C947E000C947E000C947E0054
S11300300C947E000C947E000C947E000C947E0044
S11300400C947E000C947E000C947E000C947E0034
S11300500C947E000C947E000C947E000C947E0024
S11300600C947E000C947E000C947E000C947E0014
S11300700C947E000C947E000C947E000763423640
S1130080B79BD8A71A39685618AEBAAB558C1D3C25
S1130090B7CC5763BD6DEDFD753EF6177231BF00E9
S11300A00000803F05A84CCDB2D44EB93836A90221
S11300B00C50B9918688083CA6AAAA2ABE00000062
S11300C0803F11241FBECFEFCDBFDFE3DEBF18E3B7
S11300D0A0E0B8E3ECE7F7E102C005900D92A63189
S11300E0B107D9F728E3A6E1B8E301C01D92AB3606
S11300F0B207E1F70E946C020C949B0B0C94000075
S11301000E945001089585E08093000680E00895E0
S113011080910B0681700895E0E0F6E0868381E02B
S113012080870E9488008823E1F3E0E0F6E02089DC
S11301303189938591609387C901089582E0809302
S1130140890080E00895E0ECF1E088EA848788E0A3
S113015083878BEB828789E0818781E4808380E0D9
S1130160089547E068ED8CE790E00E947D0141E04E
S113017068ED81E690E00E947D0180E00895789426
S113018080E0089581E48093A00680E00895809340
S1130190A1060895E0E1F4E0808188608193E8316C
S11301A084E0F807C9F7E0E3F4E080818860819394
S11301B0E83384E0F807C9F7E0E5F4E0808188607B
S11301C08193E83584E0F807C9F70895E5E1F4E0A0
S11301D08081887F846080838081877F8083E7E15A
S11301E0F4E08081887F846080838081877F80833E
S11301F0E4E3F4E08081887F846080838081877F6A
S11302008083E1E3F4E08081887F8460808380815F
S1130210877F8083E0E3F4E08081887F846080834B
S11302208081877F80830E94830008952398E3E37D
S1130230F4E08081877F8083229A2A980E94B70104
S11302400895259A2D98E0E0F2E08281846082830B
S11302500E94A7010895419A4998E0E0F2E0808164
S1130260806280830E94A30008950298E2E1F4E092
S11302708081877F8083019A0998039A0B98049A56
S11302800C980E949F010895E6E1F4E08081887F44
S1130290846080838081877F80830E94C200089568
S11302A00E94CA002698E6E3F4E08081877F808379
S11302B02798E7E3F4E08081877F80834298E2E532
S11302C0F4E0808188608083459A4D9A0E94B10051
S11302D00E9481010E94E6000E9416010E942101F1
S11302E00E942B010E9435010E9444010E94BF001C
S11302F00E949D010E949E000895FC0164BF4083FA
S11303000895E0E4F1E081818111FDCFE0E4F1E0C2
S113031080E290E08087918781E8808380E490E0A8
S11303208287938781E08583828381898111FDCFD0
S113033081E08093500180E0089580E00895E0E238
S1130340F8E083E2808384E0818380E00895E0E044
S1130350FAE084E090E084A795A783E4818384E0B5
S1130360828387E090E086A397A380E00895E0E08D
S1130370F8E087E490E18087918780EC868380E0D1
S113038098E3809367389093683880E00895E0E0BC
S1130390F8E0948195FFFDCF8093020808950E94B0
S11303A0C70180E090E0089580915838089586B19F
S11303B0881F8827881F089580915838882351F012
S11303C060E080E00E941B0342E061E081E00E9463
S11303D02C03089560E080E00E941B0360E081E04C
S11303E00E941B03089590915838981721F0809328
S11303F058380E94DC01089580915838882311F000
S11304004D9808954D9A08950895089508958091FA
S113041016388F5F8093163881E080930E380895E4
S113042090911D3881E0892780931D380895CF92DB
S1130430DF92EF92FF926B017C0180911D3888233B
S113044039F10E9463022091193830911A38621BE5
S1130450730B609317387093183880910F3890910C
S1130460103868177907A0F020E030E040ED51E43F
S1130470C701B6010E94E4076B017C010E9463027C
S11304806093193870931A3880931B3890931C38F2
S1130490C701B601FF90EF90DF90CF90089580914F
S11304A01E3890911F38A0912038B09121380196C0
S11304B0A11DB11D80931E3890931F38A09320383E
S11304C0B0932138089560911E3870911F3880913F
S11304D020389091213808950E948000E0EAF0E0ED
S11304E08081806280838081836080830E94500742
S11304F08823E1F30E94D401882359F00E94D70194
S1130500882321F063E080E00E941B030E945406CC
S11305100DC080E00E942403811104C043E062E026
S11305200E942C030E94A8020E9453070E946C039D
S11305300E94FC0180E00E944D070E946302AB010F
S1130540BC018AE397E90E9404020E940702CECF0D
S11305500F931F93CF93DF93109226388AB1D1E083
S1130560C82FC47082FDD0E0C11136C080912738F5
S113057081110EC00E946302609322387093233865
S1130580809324389093253880912738882369F103
S11305900E9463020091223810912338209124385C
S11305A030912538601B710B820B930B0E9430092C
S11305B020E030E04AE754E40E94280A181664F464
S11305C00E9410020E9463026093223870932338C1
S11305D08093243890932538CC2339F080912738A0
S11305E0882319F081E080932638D0932738DF914F
S11305F0CF911F910F91089520912638222331F035
S113060020E030E040ED51E40E94E4070895909129
S1130610230890932308E0E0FAE010A211A291E0ED
S1130620908380932408E0E2F8E083818823ECF748
S11306301092000A0895E82FF0E0EE0FFF1FEF5923
S1130640F74C608311820895E82FF0E0EE0FFF1F4E
S1130650EF59F74C8081089590E0FC01EE0FFF1FE5
S1130660EF59F74C60834183443029F4FC01E75A85
S1130670F74C24E620830895DC01FB019C918081E2
S1130680981320C011969C911197818198131CC0D6
S113069012969C9112978281981318C013969C917C
S11306A013978381981314C014969C911497848192
S11306B0981310C081E015962C919581291759F053
S11306C080E0089580E0089580E0089580E0089532
S11306D080E0089580E008952F923F924F925F92B8
S11306E06F927F928F929F92AF92BF92CF92DF923E
S11306F0EF92FF920F931F93CF93DF93CDB7DEB7A3
S11307006E97CDBFDEBF0E9463026B017C010E9425
S1130710300923E634E14DE953E40E9455080E9470
S1130720100B20E030E040E85FE30E94E4076987B3
S11307307A878B879C87C701B60124EF31E040E0BC
S113074050E00E94790B0E94300920E030E04AE733
S113075053E40E945008881F8827881F8F83C7018D
S1130760B60128E833E140E050E00E94790B0E9492
S1130770300920E030E048EC52E40E945008881F21
S11307808827881F01E618E39E012F5F3F4F0F2E35
S1130790F9E54F2EF8E35F2EF02D0F2EF5E66F2EC0
S11307A0F8E37F2EF02D1901882E912CA12CB12C69
S11307B02D873E87DF80F80180818230A1F018F414
S11307C0813031F021C0833039F0843099F01CC07D
S11307D0F12CE12C69E11BC0F12C0F2EF9E1EF2E75
S11307E0F02D60E014C00F2EF9E1FF2EF02DE12C66
S11307F060E00DC00F2EF9E1FF2EF02D0F2EF9E170
S1130800EF2EF02D69E103C0F12CE12C60E02F8282
S11308103886D1016C931196EC9211971296FC9242
S113082081818230D1F018F4813041F0CDC0833021
S113083009F444C0843009F4BFC0C6C0D69E602DFC
S11308401124EF81F8856083DE9CE02C1124E18281
S1130850DF9CF02C1124F282B7C070E080E090E0BD
S11308600E94320929853A854B855C850E94A30A3A
S11308700E940109D1016C936E2D70E080E090E03C
S11308800E94320929853A854B855C850E94A30A1A
S11308900E940109F10161836F2D70E080E090E016
S11308A00E94320929853A854B855C850E94A30AFA
S11308B00E940109D10112966C9386C070E080E019
S11308C090E00E9430099B01AC0160E070E080E898
S11308D09FE30E946D096B8B7C8B8D8B9E8BC50176
S11308E0B4010E9432096F87788B898B9A8B6E2DA5
S11308F070E080E090E00E9430099B01AC0160E070
S113090070E080E89FE30E946D096F8B788F898F78
S11309109A8F6F2D70E080E090E00E9430099B0177
S1130920AC0160E070E080E89FE30E946D096B8F8A
S11309307C8F8D8F9E8F23E333E343EA50E46B89EE
S11309407C898D899E890E94A30A2F8538894989CB
S11309505A890E94A30A0E940109EF81F8856083E5
S113096023E333E343EA50E46F89788D898D9A8DCC
S11309700E94A30A2F85388949895A890E94A30AAB
S11309800E940109AF81B88511966C9323E333E388
S113099043EA50E46B8D7C8D8D8D9E8D0E94A30A5D
S11309A02F85388949895A890E94A30A0E9401091E
S11309B0EF81F885628308C0D2018C91882319F0F5
S11309C081508C9301C010820E5F1F4FB3E02B0E39
S11309D0311CEFEF4E1A5E0A0615170509F0EBCE2F
S11309E0CD84DE846BE578E3CE0101960E943C035E
S11309F081112FC00BE518E37E01F7E0EF0EF11C27
S1130A00D60111968C910E940703F60180810E9401
S1130A100703D60112968C910E940703F601819177
S1130A209191A1916F01F80181939193A1938F0109
S1130A30CE14DF0429F701E618E3D8016C918FE3A3
S1130A4097E90E940502F80162818AE497E90E940D
S1130A5005026E96CDBFDEBFDF91CF911F910F913E
S1130A60FF90EF90DF90CF90BF90AF909F908F90CA
S1130A707F906F905F904F903F902F9008952091BA
S1130A80293830912A38232B51F0EBE2F8E321E0A6
S1130A9030E0B90141915191452B81F402C060E0ED
S1130AA070E0660F771FFB01E75DF74C808391834D
S1130AB080913D388F5F80933D3808952F5F3F4F7D
S1130AC02A30310531F708954091293850912A3858
S1130AD0EBE2F8E380E091E0219131914217530772
S1130AE010F4892FA9019F5F9A30B1F70895CF932D
S1130AF0C0913D38CC23C9F00E94640590E0FC010C
S1130B00EE0FFF1FE75DF74C208131812D33310556
S1130B1070F0880F991FFC01E75DF74C1082118279
S1130B20C150C0933D3881E003C080E001C080E043
S1130B30CF910895CF92DF92EF92FF926B017C01E7
S1130B4020E030E048EC51E40E94280A1816BCF575
S1130B5080913D388823B1F00E946405E82FF0E0CD
S1130B60EE0FFF1FE75DF74C80819181C2968536B9
S1130B70910518F00E943F0509C084E690E00E94A8
S1130B803F0504C084E690E00E943F0520E030E089
S1130B9040EF51E4C701B6010E94E3076B017C01F9
S1130BA044E063E081E00E942C0320E030E048EC64
S1130BB051E4C701B6010E94280A18164CF220E03D
S1130BC030E048EC51ECC701B6010E94500888237C
S1130BD00CF04BC080913D38882319F10E947705B1
S1130BE0882309F442C020E030E048EC51E4C70116
S1130BF0B6010E94E4076B017C0137C080819181BA
S1130C00009739F0019780839183892B11F4415027
S1130C1051E03296E217F30789F750933E38409338
S1130C203D3880913E38882391F010923E3881E01F
S1130C3080933F388FEF90E00E94C7008FEF80933E
S1130C40283844E064E080E00E942C0319C08091BD
S1130C503F38882319F010923F3812C080E090E0AA
S1130C600E94C700109228380BC040913D3844239D
S1130C70C1F250913E38E9E2F8E32DE338E3BECF08
S1130C8086B16091283885E597E90E940502609154
S1130C903D388AE597E90E940502C701B601FF9035
S1130CA0EF90DF90CF900895AF92BF92CF92DF92F2
S1130CB0EF92FF920F931F93CF93DF93C1E1D8E399
S1130CC00AE418E30F2EF6E1CF2EF8E3DF2EF02D21
S1130CD0780189910E948C00D7018D937D01CC15F8
S1130CE0DD05B9F7CAE4D8E3688181E697E90E9493
S1130CF00502698184E697E90E9405026A8187E614
S1130D0097E90E9405026B818AE697E90E94050231
S1130D106C818DE697E90E940502E5E4F8E3C0E4FE
S1130D20D8E34AE458E380E031E00F2EF3E0CF2E1D
S1130D30F02D6894DD24D1F86894EE24E2F80F2EA7
S1130D40F6E0FF2EF02D75E067E05F019081999346
S1130D50D8012D918D01293E18F06083832F19C08D
S1130D60283C10F0708315C0273A10F0F08211C0AF
S1130D70253810F0E0820DC0243610F0D08209C06E
S1130D80233410F0C08205C0223210F0308301C039
S1130D901082D5012C91921301C01C923196E41754
S1130DA0F50799F60E94F301DF91CF911F910F91FE
S1130DB0FF90EF90DF90CF90BF90AF9008950E9486
S1130DC05406E5E4F8E34AE458E320E030E0919186
S1130DD09330A1F028F49130B9F0923091F016C01C
S1130DE0953031F040F0963089F42C5C3F4F0EC0C2
S1130DF0265E3F4F0BC02C5E3F4F08C02253310983
S1130E0005C02A51310902C024513109E417F507FC
S1130E10F1F6C9010895CF92DF92EF92FF926B0130
S1130E207C010E94DF06BC01990F880B990B0E947C
S1130E303209A70196010E94E407FF90EF90DF902A
S1130E40CF9008951F920F920FB60F9211242F93F3
S1130E503F934F935F936F937F938F939F93AF933E
S1130E60BF93CF93EF93FF93C1E0C0934F380E9499
S1130E704F02C0934301FF91EF91CF91BF91AF9186
S1130E809F918F917F916F915F914F913F912F919E
S1130E900F900FBE0F901F90189580934F380895B0
S1130EA080914F380895CF92DF92EF92FF920E9483
S1130EB0630280915038681B70E080E090E00E94EB
S1130EC0300920E030E048EC52E40E945508905884
S1130ED00E94CF08209154383091553840915638AB
S1130EE0509157380E94A30A6B017C019F772DEC27
S1130EF03CEC4CEC5DE30E94500888234CF0C0921B
S1130F005438D0925538E0925638F092573808C089
S1130F10109254381092553810925638109257380F
S1130F200E94630260935038709351388093523812
S1130F309093533860915438709155388091563855
S1130F40909157380E940B07AB01BC014093543871
S1130F5050935538609356387093573880E797E923
S1130F600E94060260915438709155388091563829
S1130F70909157380E94FC0260935438709355380E
S1130F8080935638909357380E94170260935438D0
S1130F907093553880935638909357380E949A0529
S1130FA0AB01BC0140935438509355386093563884
S1130FB07093573886E797E90E940602FF90EF90F6
S1130FC0DF90CF9008955058BB27AA270E94FB07B3
S1130FD00C94EE090E94E00938F00E94E70920F021
S1130FE039F49F3F19F426F40C94B6090EF4E095F5
S1130FF0E7FB0C94B009E92F0E94FF0958F3BA17D4
S1131000620773078407950720F079F4A6F50C941A
S1131010210A0EF4E0950B2EBA2FA02D0B01B90175
S113102090010C01CA01A0011124FF27591B99F05A
S1131030593F50F4503E68F11A16F040A22F232F66
S1131040342F4427585FF3CF469537952795A795B6
S1131050F0405395C9F77EF41F16BA0B620B730B5D
S1131060840BBAF09150A1F0FF0FBB1F661F771FCE
S1131070881FC2F70EC0BA0F621F731F841F48F483
S1131080879577956795B795F7959E3F08F0B0CF0C
S11310909395880F08F09927EE0F979587950895F3
S11310A00E948C0908F481E008950E9469080C9458
S11310B0EE090E94E70958F00E94E00940F029F483
S11310C05F3F29F00C94B00951110C94220A0C943E
S11310D0B6090E94FF0968F39923B1F3552391F3EC
S11310E0951B550BBB27AA2762177307840738F093
S11310F09F5F5F4F220F331F441FAA1FA9F335D0F0
S11311000E2E3AF0E0E832D091505040E695001CA3
S1131110CAF72BD0FE2F29D0660F771F881FBB1F5D
S1131120261737074807AB07B0E809F0BB0B802D3B
S1131130BF01FF2793585F4F3AF09E3F510578F067
S11311400C94B0090C94220A5F3FE4F3983ED4F364
S1131150869577956795B795F7959F5FC9F7880F3B
S1131160911D9695879597F90895E1E0660F771F8D
S1131170881FBB1F621773078407BA0720F0621B1E
S1131180730B840BBA0BEE1F88F7E095089529F4CE
S113119016F00C94B0090C94210A0C94B6090E9420
S11311A0070AA8F39638A0F707F80F92E8942BE300
S11311B03AEA48EB5FE70E94B90A0F920F920F9246
S11311C04DB75EB70F920E946F0AECE7F0E00E9401
S11311D0B9094F915F91EF91FF91E595EE1FFF1FC4
S11311E049F0FE57E0684427EE0F441FFA95E1F7F3
S11311F04195550B0E94390A0F9007FE0C942D0A55
S113120008950E94070A88F09F5798F0B92F9927EC
S1131210B751B0F0E1F0660F771F881F991F1AF0DD
S1131220BA95C9F714C0B13091F00E94210AB1E017
S113123008950C94210A672F782F8827B85F39F016
S1131240B93FCCF3869577956795B395D9F73EF476
S113125090958095709561957F4F8F4F9F4F08951E
S1131260E89409C097FB3EF490958095709561953C
S11312707F4F8F4F9F4F9923A9F0F92F96E9BB27F2
S11312809395F695879577956795B795F111F8CF6E
S1131290FAF4BB0F11F460FF1BC06F5F7F4F8F4FD9
S11312A09F4F16C0882311F096E911C0772321F0CF
S11312B09EE8872F762F05C0662371F096E8862F67
S11312C070E060E02AF09A95660F771F881FDAF7BE
S11312D0880F9695879597F90895990FBB0B550F2D
S11312E0AA0BE0E8FEEF16161706E807F90770F0F8
S11312F012161306E407F50760F0BA1754F031F438
S11313002617370748075907A7951BF4B901CA01DF
S1131310BA2FB69597950895990F0008550FAA0B03
S1131320E0E8FEEF16161706E807F907C0F01216F4
S11313301306E407F50798F0621B730B840B950BF7
S113134039F40A2661F0232B242B252B21F408954C
S11313500A2609F4A140A6958FEF811D811D0895E9
S113136097F99F6780E870E060E008959FEF80EC54
S11313700895DF93CF931F930F93FF92EF92DF9221
S11313807B018C01689406C0DA2EEF010E94B60A34
S1131390FE01E894A5912591359145915591A6F3C7
S11313A0EF010E94FB07FE019701A801DA9469F797
S11313B0DF90EF90FF900F911F91CF91DF910895EF
S11313C000240A9416161706180609060895002420
S11313D00A9412161306140605060895092E03949A
S11313E0000C11F4882352F0BB0F40F4BF2B11F40E
S11313F060FF04C06F5F7F4F8F4F9F4F089557FD6D
S11314009058440F551F59F05F3F71F04795880F6E
S113141097FB991F61F09F3F79F087950895121605
S113142013061406551FF2CF4695F1DF08C01616B1
S113143017061806991FF1CF869571056105089462
S11314400895E894BB2766277727CB0197F9089579
S11314500E948C0908F48FEF08959B01AC0160E0B1
S113146070E080E89FE30C9455080C94B0090C9448
S1131470180B0E94070AD8F39923C9F3940F511D3E
S1131480A3F39150504094F059F0882332F0660F42
S1131490771F881F91505040C1F79E3F51052CF78C
S11314A0880F911D9695879597F908955F3FACF045
S11314B0983E9CF0BB27869577956795B79508F479
S11314C0B1609395C1F7BB0F58F711F460FFE8CFF3
S11314D06F5F7F4F8F4F9F4FE3CF0C94220AFA0127
S11314E0DC01AA0FBB1F9B01AC01BF5728F42227C4
S11314F033274427507820C0B75190F4AB2F0024F1
S1131500469537952795011CA395D2F3002071F0D9
S1131510220F331F441FB395DAF30ED00C94E30764
S113152061307105A0E88A07B94630F49B01AC012B
S11315306627772788279078309621F02083318397
S11315404283538308950E94B60A0C94EE090E94C4
S1131550E00938F00E94E70920F0952311F00C947B
S1131560B0090C94B60911240C94220A0E94FF09B4
S113157070F3959FC1F3950F50E0551F629FF001E2
S1131580729FBB27F00DB11D639FAA27F00DB11DFB
S1131590AA1F649F6627B00DA11D661F829F222784
S11315A0B00DA11D621F739FB00DA11D621F839F0B
S11315B0A00D611D221F749F3327A00D611D231FE1
S11315C0849F600D211D822F762F6A2F11249F572F
S11315D050409AF0F1F088234AF0EE0FFF1FBB1F32
S11315E0661F771F881F91505040A9F79E3F5105F1
S11315F080F00C94B0090C94220A5F3FE4F3983E07
S1131600D4F3869577956795B795F795E7959F5F9A
S1131610C1F7FE2B880F911D9695879597F908952C
S11316209F930E94280B0F9007FCEE5F0C94510BC4
S11316309F3F31F0915020F4879577956795B79542
S1131640880F911D9695879597F908950C94B6097E
S11316500E94070AD8F3E894E0E0BB279F57F0F014
S11316602AED3FE049EC06C0EE0FBB0F661F771F63
S1131670881F28F0B23A62077307840728F0B25A29
S1131680620B730B840BE3959A9572F7803830F4F0
S11316909A95BB0F661F771F881FD2F790480C944A
S11316A01A0BEF93E0FF07C0A2EA2AED3FE049ECF2
S11316B05FEB0E94FB070E94EE090F90039401FC6C
S11316C09058E4EAF0E00C94650B9F938F937F931A
S11316D06F93FF93EF939B01AC010E94A30AEF91D8
S11316E0FF910E94B9092F913F914F915F910C9402
S11316F0A30AA1E21A2EAA1BBB1BFD010DC0AA1F3F
S1131700BB1FEE1FFF1FA217B307E407F50720F066
S1131710A21BB30BE40BF50B661F771F881F991FE1
S11317201A9469F760957095809590959B01AC012A
S10D1730BD01CF010895F894FFCF26
S113173A74696D65004C45443120636F6C6F7200A7
S113174A4C45443220636F6C6F720041786F6E00AF
S113175A50756C736573004431004432004433009D
S113176A44340044350044656E64500041786F6E19
S105177A500019
S113177C0000000200000000CF010000000001F492
S109178C010705090B0A28
S9030000FC
