:1000000019C033C032C031C030C02FC02EC02DC087
:100010002CC02BC02AC029C028C027C026C025C09C
:1000200024C023C022C021C020C01FC01EC01DC0CC
:100030001CC01BC011241FBECFEFCDBFDFE3DEBF4E
:100040001EE3A0E0BEE3E0E5F4E002C005900D92FF
:10005000A030B107D9F72EE3A0E0BEE301C01D92A6
:10006000A231B207E1F7F4D0E8C1CACF85D1089533
:10007000CF93DF93CDB7DEB76297CDBFDEBF86E00B
:10008000EEE3F4E8DE01119601900D928A95E1F716
:1000900086E0E4E4F4E8DE01179601900D928A957B
:1000A000E1F786E0EAE4F4E8DE011D9601900D92A6
:1000B0008A95E1F75E012DE0A20EB11C6E0137E0DA
:1000C000C30ED11CCE0101967C019924939400E0CB
:1000D00010E00F2EFEEF8F2EF02D890C011511056B
:1000E00029F00530110541F480E007C0892D0F2E5D
:1000F000F5E08F2EF02D01C0892DF70191917F0140
:100100009032E9F4282D30E0E1E0F0E0EC0FFD1F43
:10011000E20FF31F9081992391F0E1E0F0E0EC0F02
:10012000FD1FE80FF11D90819F5F9083E1E0F0E0FB
:10013000EC0FFD1FE20FF31F908191509083F601A9
:1001400091916F019032E9F4282D30E0E7E0F0E082
:10015000EC0FFD1FE20FF31F9081992391F0E7E070
:10016000F0E0EC0FFD1FE80FF11D90819F5F908381
:10017000E7E0F0E0EC0FFD1FE20FF31F90819150DC
:100180009083F50191915F019032E9F4282D30E0E0
:10019000EDE0F0E0EC0FFD1FE20FF31F90819923DB
:1001A00091F0EDE0F0E0EC0FFD1FE80FF11D908104
:1001B0009F5F9083EDE0F0E0EC0FFD1FE20FF31F77
:1001C000908191509083282F30E04DE050E04C0F0B
:1001D0005D1F420F531FA7E0B0E0AC0FBD1FA20F81
:1001E000B31F61E070E06C0F7D1F620F731FFA0197
:1001F00020814C91FB016081FCD0882D90E0ADE026
:10020000B0E0AC0FBD1FA80FB91FE7E0F0E0EC0FA6
:10021000FD1FE80FF91F21E030E02C0F3D1F820F7A
:10022000931F2C914081FC016081882DE2D00F5FEB
:100230001F4F9394F7E09F124CCFE8D02FE53AEE92
:1002400080E0215030408040E1F700C0000032CF14
:100250000DDF83E38093A0000BDFFECF85E080936A
:10026000000680E0089580E00895E0ECF1E088EA7F
:10027000848788E083878BEB828789E0818781E4AC
:10028000808380E0089541E068ED81E690E07FD0D2
:1002900080E0089580E0089581E48093800680E006
:1002A0000895E0E1F4E0808188608193E83184E0A2
:1002B000F807C9F7E0E3F4E0808188608193E833D0
:1002C00084E0F807C9F7E0E5F4E080818860819375
:1002D000E83584E0F807C9F70895E5E1F4E08081A6
:1002E000887F846080838081877F8083E7E1F4E07A
:1002F0008081887F846080838081877F8083E4E33E
:10030000F4E08081887F846080838081877F808320
:10031000E1E3F4E08081887F846080838081877F4F
:100320008083E0E3F4E08081887F84608083808143
:10033000877F808393DF0895259A2D98E0E0F2E08F
:1003400082818460828331D00895419A4998E0E0A7
:10035000F2E080818062808388DF08950298E2E184
:10036000F4E08081877F8083019A0998039A0B9833
:10037000049A0C9812D0089594DF85DFAEDFDCDF9D
:10038000E4DFECDF89DF86DF06D06DDF0895FC0156
:1003900064BF4083089580E00895E0E2F8E083E2DE
:1003A000808384E0818380E00895E0E0FAE084E0E7
:1003B00090E084A795A783E4818384E0828387E02B
:1003C00090E086A397A380E00895909123089093EE
:1003D0002308E0E0FAE010A211A291E0908380935C
:1003E0002408E0E2F8E083818823ECF71092000A09
:1003F000089590E0FC01EE0FFF1F8E0F9F1FFC0180
:10040000E050F24C60834183228308950F931F9341
:10041000CF93DF93C0E0DEE302E11EE38981D5DF05
:100420008881D3DF8A81D1DF2396C017D107B1F746
:0E043000DF91CF911F910F910895F894FFCFA7
:10043E00201000000010001020100000000000101E
:02044E0020107C
:00000001FF
